{
	"DefiBorrow/BorrowContract.sol": {
		"BorrowContract": {
			"abi": [
				{
					"inputs": [
						{
							"internalType": "address",
							"name": "_borrower",
							"type": "address"
						},
						{
							"internalType": "contract IERC20",
							"name": "_wBtc",
							"type": "address"
						},
						{
							"internalType": "uint256",
							"name": "_borrowAmount",
							"type": "uint256"
						},
						{
							"internalType": "bool",
							"name": "_wantBTC",
							"type": "bool"
						},
						{
							"internalType": "uint256",
							"name": "_collateralAmount",
							"type": "uint256"
						},
						{
							"internalType": "uint256",
							"name": "_btcInEthPrice",
							"type": "uint256"
						},
						{
							"internalType": "uint256",
							"name": "_dailyInterestRate",
							"type": "uint256"
						},
						{
							"internalType": "bool",
							"name": "_activated",
							"type": "bool"
						},
						{
							"internalType": "uint256",
							"name": "_loanTerm",
							"type": "uint256"
						}
					],
					"stateMutability": "nonpayable",
					"type": "constructor"
				},
				{
					"anonymous": false,
					"inputs": [
						{
							"indexed": false,
							"internalType": "address",
							"name": "borrowContract",
							"type": "address"
						},
						{
							"indexed": false,
							"internalType": "uint256",
							"name": "startTime",
							"type": "uint256"
						},
						{
							"indexed": false,
							"internalType": "uint256",
							"name": "remainingDays",
							"type": "uint256"
						}
					],
					"name": "BorrowContractActivated",
					"type": "event"
				},
				{
					"anonymous": false,
					"inputs": [
						{
							"indexed": false,
							"internalType": "address",
							"name": "borrowContract",
							"type": "address"
						}
					],
					"name": "BorrowContractDeactivated",
					"type": "event"
				},
				{
					"anonymous": false,
					"inputs": [
						{
							"indexed": true,
							"internalType": "address",
							"name": "borrower",
							"type": "address"
						},
						{
							"indexed": false,
							"internalType": "uint256",
							"name": "amount",
							"type": "uint256"
						},
						{
							"indexed": false,
							"internalType": "bool",
							"name": "wantBTC",
							"type": "bool"
						}
					],
					"name": "CollateralDeposited",
					"type": "event"
				},
				{
					"anonymous": false,
					"inputs": [
						{
							"indexed": true,
							"internalType": "address",
							"name": "borrower",
							"type": "address"
						},
						{
							"indexed": false,
							"internalType": "uint256",
							"name": "amount",
							"type": "uint256"
						},
						{
							"indexed": false,
							"internalType": "bool",
							"name": "wantBTC",
							"type": "bool"
						}
					],
					"name": "LoanRepayed",
					"type": "event"
				},
				{
					"inputs": [],
					"name": "activateContract",
					"outputs": [],
					"stateMutability": "nonpayable",
					"type": "function"
				},
				{
					"inputs": [],
					"name": "activated",
					"outputs": [
						{
							"internalType": "bool",
							"name": "",
							"type": "bool"
						}
					],
					"stateMutability": "view",
					"type": "function"
				},
				{
					"inputs": [],
					"name": "borrowAmount",
					"outputs": [
						{
							"internalType": "uint256",
							"name": "",
							"type": "uint256"
						}
					],
					"stateMutability": "view",
					"type": "function"
				},
				{
					"inputs": [],
					"name": "borrower",
					"outputs": [
						{
							"internalType": "address",
							"name": "",
							"type": "address"
						}
					],
					"stateMutability": "view",
					"type": "function"
				},
				{
					"inputs": [],
					"name": "btcInEthPrice",
					"outputs": [
						{
							"internalType": "uint256",
							"name": "",
							"type": "uint256"
						}
					],
					"stateMutability": "view",
					"type": "function"
				},
				{
					"inputs": [],
					"name": "collateralAmount",
					"outputs": [
						{
							"internalType": "uint256",
							"name": "",
							"type": "uint256"
						}
					],
					"stateMutability": "view",
					"type": "function"
				},
				{
					"inputs": [],
					"name": "creator",
					"outputs": [
						{
							"internalType": "address",
							"name": "",
							"type": "address"
						}
					],
					"stateMutability": "view",
					"type": "function"
				},
				{
					"inputs": [],
					"name": "dailyInterestRate",
					"outputs": [
						{
							"internalType": "uint256",
							"name": "",
							"type": "uint256"
						}
					],
					"stateMutability": "view",
					"type": "function"
				},
				{
					"inputs": [],
					"name": "deactivateContract",
					"outputs": [],
					"stateMutability": "nonpayable",
					"type": "function"
				},
				{
					"inputs": [
						{
							"internalType": "address",
							"name": "receiver",
							"type": "address"
						},
						{
							"internalType": "uint256",
							"name": "_wBtcCollateral",
							"type": "uint256"
						}
					],
					"name": "depositCollateralBTC",
					"outputs": [],
					"stateMutability": "nonpayable",
					"type": "function"
				},
				{
					"inputs": [
						{
							"internalType": "address",
							"name": "receiver",
							"type": "address"
						}
					],
					"name": "depositCollateralETH",
					"outputs": [],
					"stateMutability": "payable",
					"type": "function"
				},
				{
					"inputs": [],
					"name": "getRemainingDays",
					"outputs": [
						{
							"internalType": "uint256",
							"name": "",
							"type": "uint256"
						}
					],
					"stateMutability": "view",
					"type": "function"
				},
				{
					"inputs": [],
					"name": "loanDeadline",
					"outputs": [
						{
							"internalType": "uint256",
							"name": "",
							"type": "uint256"
						}
					],
					"stateMutability": "view",
					"type": "function"
				},
				{
					"inputs": [],
					"name": "loanDurationInDays",
					"outputs": [
						{
							"internalType": "uint256",
							"name": "",
							"type": "uint256"
						}
					],
					"stateMutability": "view",
					"type": "function"
				},
				{
					"inputs": [],
					"name": "loanTerm",
					"outputs": [
						{
							"internalType": "uint256",
							"name": "",
							"type": "uint256"
						}
					],
					"stateMutability": "view",
					"type": "function"
				},
				{
					"inputs": [
						{
							"internalType": "address",
							"name": "receiver",
							"type": "address"
						},
						{
							"internalType": "uint256",
							"name": "_wBtcRepayment",
							"type": "uint256"
						}
					],
					"name": "repayLoanBTC",
					"outputs": [],
					"stateMutability": "nonpayable",
					"type": "function"
				},
				{
					"inputs": [
						{
							"internalType": "address",
							"name": "receiver",
							"type": "address"
						}
					],
					"name": "repayLoanETH",
					"outputs": [],
					"stateMutability": "payable",
					"type": "function"
				},
				{
					"inputs": [],
					"name": "repaymentPendingStatus",
					"outputs": [
						{
							"internalType": "bool",
							"name": "",
							"type": "bool"
						}
					],
					"stateMutability": "view",
					"type": "function"
				},
				{
					"inputs": [
						{
							"internalType": "uint256",
							"name": "balance",
							"type": "uint256"
						}
					],
					"name": "requestRepayment",
					"outputs": [
						{
							"internalType": "uint256",
							"name": "",
							"type": "uint256"
						}
					],
					"stateMutability": "nonpayable",
					"type": "function"
				},
				{
					"inputs": [],
					"name": "startTime",
					"outputs": [
						{
							"internalType": "uint256",
							"name": "",
							"type": "uint256"
						}
					],
					"stateMutability": "view",
					"type": "function"
				},
				{
					"inputs": [],
					"name": "totalRepaymentAmount",
					"outputs": [
						{
							"internalType": "uint256",
							"name": "",
							"type": "uint256"
						}
					],
					"stateMutability": "view",
					"type": "function"
				},
				{
					"inputs": [],
					"name": "wBtc",
					"outputs": [
						{
							"internalType": "contract IERC20",
							"name": "",
							"type": "address"
						}
					],
					"stateMutability": "view",
					"type": "function"
				},
				{
					"inputs": [],
					"name": "wantBTC",
					"outputs": [
						{
							"internalType": "bool",
							"name": "",
							"type": "bool"
						}
					],
					"stateMutability": "view",
					"type": "function"
				}
			],
			"devdoc": {
				"kind": "dev",
				"methods": {
					"activateContract()": {
						"details": "Activate contract and start timer,       which can only be invoked by the manager contract*"
					},
					"deactivateContract()": {
						"details": "Deactivate contract      which can only be invoked by the manager contract*"
					},
					"depositCollateralBTC(address,uint256)": {
						"details": "Desposit collateral in BTC from the borrower's account to the receiver's account",
						"params": {
							"_wBtcCollateral": "Amount of collateral to be deposited*",
							"receiver": "Address of the receiver of the collateral"
						}
					},
					"depositCollateralETH(address)": {
						"details": "Desposit collateral (specified in the msg.value) in ETH to the receiver",
						"params": {
							"receiver": "Payable address of the receiver of the collateral*"
						}
					},
					"getRemainingDays()": {
						"details": "Get remaining number of days until the loan's deadline return Remaining days*"
					},
					"repayLoanBTC(address,uint256)": {
						"details": "Transfer repayment amount in BTC from the borrower's account to the receiver's account",
						"params": {
							"_wBtcRepayment": "Amount of repayment to be transferred*",
							"receiver": "Address of the receiver of the collateral"
						}
					},
					"repayLoanETH(address)": {
						"details": "Transfer repayment amount in BTC from the borrower's account to the receiver's account",
						"params": {
							"receiver": "Address of the receiver of the repayment*"
						}
					},
					"requestRepayment(uint256)": {
						"details": "Allow users to request for repayment when they are ready",
						"params": {
							"balance": "User current account balance*"
						}
					}
				},
				"title": "Individual borrow contract",
				"version": 1
			},
			"evm": {
				"assembly": "    /* \"DefiBorrow/BorrowContract.sol\":161:10575  contract BorrowContract {... */\n  mstore(0x40, 0x80)\n    /* \"DefiBorrow/BorrowContract.sol\":2345:3025  constructor(address _borrower, IERC20 _wBtc, uint _borrowAmount, bool _wantBTC, uint _collateralAmount, uint _btcInEthPrice, uint _dailyInterestRate, bool _activated, uint _loanTerm) {... */\n  callvalue\n  dup1\n  iszero\n  tag_1\n  jumpi\n  0x00\n  dup1\n  revert\ntag_1:\n  pop\n  mload(0x40)\n  sub(codesize, bytecodeSize)\n  dup1\n  bytecodeSize\n  dup4\n  codecopy\n  dup2\n  dup2\n  add\n  0x40\n  mstore\n  dup2\n  add\n  swap1\n  tag_2\n  swap2\n  swap1\n  tag_3\n  jump\t// in\ntag_2:\n    /* \"DefiBorrow/BorrowContract.sol\":2550:2559  _borrower */\n  dup9\n    /* \"DefiBorrow/BorrowContract.sol\":2539:2547  borrower */\n  0x02\n  0x00\n    /* \"DefiBorrow/BorrowContract.sol\":2539:2559  borrower = _borrower */\n  0x0100\n  exp\n  dup2\n  sload\n  dup2\n  0xffffffffffffffffffffffffffffffffffffffff\n  mul\n  not\n  and\n  swap1\n  dup4\n  0xffffffffffffffffffffffffffffffffffffffff\n  and\n  mul\n  or\n  swap1\n  sstore\n  pop\n    /* \"DefiBorrow/BorrowContract.sol\":2580:2590  msg.sender */\n  caller\n    /* \"DefiBorrow/BorrowContract.sol\":2570:2577  creator */\n  0x01\n  0x00\n    /* \"DefiBorrow/BorrowContract.sol\":2570:2590  creator = msg.sender */\n  0x0100\n  exp\n  dup2\n  sload\n  dup2\n  0xffffffffffffffffffffffffffffffffffffffff\n  mul\n  not\n  and\n  swap1\n  dup4\n  0xffffffffffffffffffffffffffffffffffffffff\n  and\n  mul\n  or\n  swap1\n  sstore\n  pop\n    /* \"DefiBorrow/BorrowContract.sol\":2608:2613  _wBtc */\n  dup8\n    /* \"DefiBorrow/BorrowContract.sol\":2601:2605  wBtc */\n  0x00\n  dup1\n    /* \"DefiBorrow/BorrowContract.sol\":2601:2613  wBtc = _wBtc */\n  0x0100\n  exp\n  dup2\n  sload\n  dup2\n  0xffffffffffffffffffffffffffffffffffffffff\n  mul\n  not\n  and\n  swap1\n  dup4\n  0xffffffffffffffffffffffffffffffffffffffff\n  and\n  mul\n  or\n  swap1\n  sstore\n  pop\n    /* \"DefiBorrow/BorrowContract.sol\":2639:2652  _borrowAmount */\n  dup7\n    /* \"DefiBorrow/BorrowContract.sol\":2624:2636  borrowAmount */\n  0x03\n    /* \"DefiBorrow/BorrowContract.sol\":2624:2652  borrowAmount = _borrowAmount */\n  dup2\n  swap1\n  sstore\n  pop\n    /* \"DefiBorrow/BorrowContract.sol\":2673:2681  _wantBTC */\n  dup6\n    /* \"DefiBorrow/BorrowContract.sol\":2663:2670  wantBTC */\n  0x07\n  0x00\n    /* \"DefiBorrow/BorrowContract.sol\":2663:2681  wantBTC = _wantBTC */\n  0x0100\n  exp\n  dup2\n  sload\n  dup2\n  0xff\n  mul\n  not\n  and\n  swap1\n  dup4\n  iszero\n  iszero\n  mul\n  or\n  swap1\n  sstore\n  pop\n    /* \"DefiBorrow/BorrowContract.sol\":2711:2728  _collateralAmount */\n  dup5\n    /* \"DefiBorrow/BorrowContract.sol\":2692:2708  collateralAmount */\n  0x04\n    /* \"DefiBorrow/BorrowContract.sol\":2692:2728  collateralAmount = _collateralAmount */\n  dup2\n  swap1\n  sstore\n  pop\n    /* \"DefiBorrow/BorrowContract.sol\":2755:2769  _btcInEthPrice */\n  dup4\n    /* \"DefiBorrow/BorrowContract.sol\":2739:2752  btcInEthPrice */\n  0x05\n    /* \"DefiBorrow/BorrowContract.sol\":2739:2769  btcInEthPrice = _btcInEthPrice */\n  dup2\n  swap1\n  sstore\n  pop\n    /* \"DefiBorrow/BorrowContract.sol\":2800:2818  _dailyInterestRate */\n  dup3\n    /* \"DefiBorrow/BorrowContract.sol\":2780:2797  dailyInterestRate */\n  0x06\n    /* \"DefiBorrow/BorrowContract.sol\":2780:2818  dailyInterestRate = _dailyInterestRate */\n  dup2\n  swap1\n  sstore\n  pop\n    /* \"DefiBorrow/BorrowContract.sol\":2841:2851  _activated */\n  dup2\n    /* \"DefiBorrow/BorrowContract.sol\":2829:2838  activated */\n  0x07\n  0x01\n    /* \"DefiBorrow/BorrowContract.sol\":2829:2851  activated = _activated */\n  0x0100\n  exp\n  dup2\n  sload\n  dup2\n  0xff\n  mul\n  not\n  and\n  swap1\n  dup4\n  iszero\n  iszero\n  mul\n  or\n  swap1\n  sstore\n  pop\n    /* \"DefiBorrow/BorrowContract.sol\":2873:2882  _loanTerm */\n  dup1\n    /* \"DefiBorrow/BorrowContract.sol\":2862:2870  loanTerm */\n  0x08\n    /* \"DefiBorrow/BorrowContract.sol\":2862:2882  loanTerm = _loanTerm */\n  dup2\n  swap1\n  sstore\n  pop\n    /* \"DefiBorrow/BorrowContract.sol\":2907:2908  0 */\n  0x00\n    /* \"DefiBorrow/BorrowContract.sol\":2895:2904  startTime */\n  0x09\n    /* \"DefiBorrow/BorrowContract.sol\":2895:2908  startTime = 0 */\n  dup2\n  swap1\n  sstore\n  pop\n    /* \"DefiBorrow/BorrowContract.sol\":2940:2941  0 */\n  0x00\n    /* \"DefiBorrow/BorrowContract.sol\":2919:2937  loanDurationInDays */\n  0x0a\n    /* \"DefiBorrow/BorrowContract.sol\":2919:2941  loanDurationInDays = 0 */\n  dup2\n  swap1\n  sstore\n  pop\n    /* \"DefiBorrow/BorrowContract.sol\":2975:2976  0 */\n  0x00\n    /* \"DefiBorrow/BorrowContract.sol\":2952:2972  totalRepaymentAmount */\n  0x0b\n    /* \"DefiBorrow/BorrowContract.sol\":2952:2976  totalRepaymentAmount = 0 */\n  dup2\n  swap1\n  sstore\n  pop\n    /* \"DefiBorrow/BorrowContract.sol\":3012:3017  false */\n  0x00\n    /* \"DefiBorrow/BorrowContract.sol\":2987:3009  repaymentPendingStatus */\n  0x0c\n  0x00\n    /* \"DefiBorrow/BorrowContract.sol\":2987:3017  repaymentPendingStatus = false */\n  0x0100\n  exp\n  dup2\n  sload\n  dup2\n  0xff\n  mul\n  not\n  and\n  swap1\n  dup4\n  iszero\n  iszero\n  mul\n  or\n  swap1\n  sstore\n  pop\n    /* \"DefiBorrow/BorrowContract.sol\":2345:3025  constructor(address _borrower, IERC20 _wBtc, uint _borrowAmount, bool _wantBTC, uint _collateralAmount, uint _btcInEthPrice, uint _dailyInterestRate, bool _activated, uint _loanTerm) {... */\n  pop\n  pop\n  pop\n  pop\n  pop\n  pop\n  pop\n  pop\n  pop\n    /* \"DefiBorrow/BorrowContract.sol\":161:10575  contract BorrowContract {... */\n  jump(tag_6)\n    /* \"#utility.yul\":88:205   */\ntag_8:\n    /* \"#utility.yul\":197:198   */\n  0x00\n    /* \"#utility.yul\":194:195   */\n  dup1\n    /* \"#utility.yul\":187:199   */\n  revert\n    /* \"#utility.yul\":334:460   */\ntag_10:\n    /* \"#utility.yul\":371:378   */\n  0x00\n    /* \"#utility.yul\":411:453   */\n  0xffffffffffffffffffffffffffffffffffffffff\n    /* \"#utility.yul\":404:409   */\n  dup3\n    /* \"#utility.yul\":400:454   */\n  and\n    /* \"#utility.yul\":389:454   */\n  swap1\n  pop\n    /* \"#utility.yul\":334:460   */\n  swap2\n  swap1\n  pop\n  jump\t// out\n    /* \"#utility.yul\":466:562   */\ntag_11:\n    /* \"#utility.yul\":503:510   */\n  0x00\n    /* \"#utility.yul\":532:556   */\n  tag_29\n    /* \"#utility.yul\":550:555   */\n  dup3\n    /* \"#utility.yul\":532:556   */\n  tag_10\n  jump\t// in\ntag_29:\n    /* \"#utility.yul\":521:556   */\n  swap1\n  pop\n    /* \"#utility.yul\":466:562   */\n  swap2\n  swap1\n  pop\n  jump\t// out\n    /* \"#utility.yul\":568:690   */\ntag_12:\n    /* \"#utility.yul\":641:665   */\n  tag_31\n    /* \"#utility.yul\":659:664   */\n  dup2\n    /* \"#utility.yul\":641:665   */\n  tag_11\n  jump\t// in\ntag_31:\n    /* \"#utility.yul\":634:639   */\n  dup2\n    /* \"#utility.yul\":631:666   */\n  eq\n    /* \"#utility.yul\":621:684   */\n  tag_32\n  jumpi\n    /* \"#utility.yul\":680:681   */\n  0x00\n    /* \"#utility.yul\":677:678   */\n  dup1\n    /* \"#utility.yul\":670:682   */\n  revert\n    /* \"#utility.yul\":621:684   */\ntag_32:\n    /* \"#utility.yul\":568:690   */\n  pop\n  jump\t// out\n    /* \"#utility.yul\":696:839   */\ntag_13:\n    /* \"#utility.yul\":753:758   */\n  0x00\n    /* \"#utility.yul\":784:790   */\n  dup2\n    /* \"#utility.yul\":778:791   */\n  mload\n    /* \"#utility.yul\":769:791   */\n  swap1\n  pop\n    /* \"#utility.yul\":800:833   */\n  tag_34\n    /* \"#utility.yul\":827:832   */\n  dup2\n    /* \"#utility.yul\":800:833   */\n  tag_12\n  jump\t// in\ntag_34:\n    /* \"#utility.yul\":696:839   */\n  swap3\n  swap2\n  pop\n  pop\n  jump\t// out\n    /* \"#utility.yul\":845:954   */\ntag_14:\n    /* \"#utility.yul\":895:902   */\n  0x00\n    /* \"#utility.yul\":924:948   */\n  tag_36\n    /* \"#utility.yul\":942:947   */\n  dup3\n    /* \"#utility.yul\":924:948   */\n  tag_11\n  jump\t// in\ntag_36:\n    /* \"#utility.yul\":913:948   */\n  swap1\n  pop\n    /* \"#utility.yul\":845:954   */\n  swap2\n  swap1\n  pop\n  jump\t// out\n    /* \"#utility.yul\":960:1108   */\ntag_15:\n    /* \"#utility.yul\":1046:1083   */\n  tag_38\n    /* \"#utility.yul\":1077:1082   */\n  dup2\n    /* \"#utility.yul\":1046:1083   */\n  tag_14\n  jump\t// in\ntag_38:\n    /* \"#utility.yul\":1039:1044   */\n  dup2\n    /* \"#utility.yul\":1036:1084   */\n  eq\n    /* \"#utility.yul\":1026:1102   */\n  tag_39\n  jumpi\n    /* \"#utility.yul\":1098:1099   */\n  0x00\n    /* \"#utility.yul\":1095:1096   */\n  dup1\n    /* \"#utility.yul\":1088:1100   */\n  revert\n    /* \"#utility.yul\":1026:1102   */\ntag_39:\n    /* \"#utility.yul\":960:1108   */\n  pop\n  jump\t// out\n    /* \"#utility.yul\":1114:1283   */\ntag_16:\n    /* \"#utility.yul\":1184:1189   */\n  0x00\n    /* \"#utility.yul\":1215:1221   */\n  dup2\n    /* \"#utility.yul\":1209:1222   */\n  mload\n    /* \"#utility.yul\":1200:1222   */\n  swap1\n  pop\n    /* \"#utility.yul\":1231:1277   */\n  tag_41\n    /* \"#utility.yul\":1271:1276   */\n  dup2\n    /* \"#utility.yul\":1231:1277   */\n  tag_15\n  jump\t// in\ntag_41:\n    /* \"#utility.yul\":1114:1283   */\n  swap3\n  swap2\n  pop\n  pop\n  jump\t// out\n    /* \"#utility.yul\":1289:1366   */\ntag_17:\n    /* \"#utility.yul\":1326:1333   */\n  0x00\n    /* \"#utility.yul\":1355:1360   */\n  dup2\n    /* \"#utility.yul\":1344:1360   */\n  swap1\n  pop\n    /* \"#utility.yul\":1289:1366   */\n  swap2\n  swap1\n  pop\n  jump\t// out\n    /* \"#utility.yul\":1372:1494   */\ntag_18:\n    /* \"#utility.yul\":1445:1469   */\n  tag_44\n    /* \"#utility.yul\":1463:1468   */\n  dup2\n    /* \"#utility.yul\":1445:1469   */\n  tag_17\n  jump\t// in\ntag_44:\n    /* \"#utility.yul\":1438:1443   */\n  dup2\n    /* \"#utility.yul\":1435:1470   */\n  eq\n    /* \"#utility.yul\":1425:1488   */\n  tag_45\n  jumpi\n    /* \"#utility.yul\":1484:1485   */\n  0x00\n    /* \"#utility.yul\":1481:1482   */\n  dup1\n    /* \"#utility.yul\":1474:1486   */\n  revert\n    /* \"#utility.yul\":1425:1488   */\ntag_45:\n    /* \"#utility.yul\":1372:1494   */\n  pop\n  jump\t// out\n    /* \"#utility.yul\":1500:1643   */\ntag_19:\n    /* \"#utility.yul\":1557:1562   */\n  0x00\n    /* \"#utility.yul\":1588:1594   */\n  dup2\n    /* \"#utility.yul\":1582:1595   */\n  mload\n    /* \"#utility.yul\":1573:1595   */\n  swap1\n  pop\n    /* \"#utility.yul\":1604:1637   */\n  tag_47\n    /* \"#utility.yul\":1631:1636   */\n  dup2\n    /* \"#utility.yul\":1604:1637   */\n  tag_18\n  jump\t// in\ntag_47:\n    /* \"#utility.yul\":1500:1643   */\n  swap3\n  swap2\n  pop\n  pop\n  jump\t// out\n    /* \"#utility.yul\":1649:1739   */\ntag_20:\n    /* \"#utility.yul\":1683:1690   */\n  0x00\n    /* \"#utility.yul\":1726:1731   */\n  dup2\n    /* \"#utility.yul\":1719:1732   */\n  iszero\n    /* \"#utility.yul\":1712:1733   */\n  iszero\n    /* \"#utility.yul\":1701:1733   */\n  swap1\n  pop\n    /* \"#utility.yul\":1649:1739   */\n  swap2\n  swap1\n  pop\n  jump\t// out\n    /* \"#utility.yul\":1745:1861   */\ntag_21:\n    /* \"#utility.yul\":1815:1836   */\n  tag_50\n    /* \"#utility.yul\":1830:1835   */\n  dup2\n    /* \"#utility.yul\":1815:1836   */\n  tag_20\n  jump\t// in\ntag_50:\n    /* \"#utility.yul\":1808:1813   */\n  dup2\n    /* \"#utility.yul\":1805:1837   */\n  eq\n    /* \"#utility.yul\":1795:1855   */\n  tag_51\n  jumpi\n    /* \"#utility.yul\":1851:1852   */\n  0x00\n    /* \"#utility.yul\":1848:1849   */\n  dup1\n    /* \"#utility.yul\":1841:1853   */\n  revert\n    /* \"#utility.yul\":1795:1855   */\ntag_51:\n    /* \"#utility.yul\":1745:1861   */\n  pop\n  jump\t// out\n    /* \"#utility.yul\":1867:2004   */\ntag_22:\n    /* \"#utility.yul\":1921:1926   */\n  0x00\n    /* \"#utility.yul\":1952:1958   */\n  dup2\n    /* \"#utility.yul\":1946:1959   */\n  mload\n    /* \"#utility.yul\":1937:1959   */\n  swap1\n  pop\n    /* \"#utility.yul\":1968:1998   */\n  tag_53\n    /* \"#utility.yul\":1992:1997   */\n  dup2\n    /* \"#utility.yul\":1968:1998   */\n  tag_21\n  jump\t// in\ntag_53:\n    /* \"#utility.yul\":1867:2004   */\n  swap3\n  swap2\n  pop\n  pop\n  jump\t// out\n    /* \"#utility.yul\":2010:3629   */\ntag_3:\n    /* \"#utility.yul\":2159:2165   */\n  0x00\n    /* \"#utility.yul\":2167:2173   */\n  dup1\n    /* \"#utility.yul\":2175:2181   */\n  0x00\n    /* \"#utility.yul\":2183:2189   */\n  dup1\n    /* \"#utility.yul\":2191:2197   */\n  0x00\n    /* \"#utility.yul\":2199:2205   */\n  dup1\n    /* \"#utility.yul\":2207:2213   */\n  0x00\n    /* \"#utility.yul\":2215:2221   */\n  dup1\n    /* \"#utility.yul\":2223:2229   */\n  0x00\n    /* \"#utility.yul\":2272:2275   */\n  0x0120\n    /* \"#utility.yul\":2260:2269   */\n  dup11\n    /* \"#utility.yul\":2251:2258   */\n  dup13\n    /* \"#utility.yul\":2247:2270   */\n  sub\n    /* \"#utility.yul\":2243:2276   */\n  slt\n    /* \"#utility.yul\":2240:2360   */\n  iszero\n  tag_55\n  jumpi\n    /* \"#utility.yul\":2279:2358   */\n  tag_56\n  tag_8\n  jump\t// in\ntag_56:\n    /* \"#utility.yul\":2240:2360   */\ntag_55:\n    /* \"#utility.yul\":2399:2400   */\n  0x00\n    /* \"#utility.yul\":2424:2488   */\n  tag_57\n    /* \"#utility.yul\":2480:2487   */\n  dup13\n    /* \"#utility.yul\":2471:2477   */\n  dup3\n    /* \"#utility.yul\":2460:2469   */\n  dup14\n    /* \"#utility.yul\":2456:2478   */\n  add\n    /* \"#utility.yul\":2424:2488   */\n  tag_13\n  jump\t// in\ntag_57:\n    /* \"#utility.yul\":2414:2488   */\n  swap10\n  pop\n    /* \"#utility.yul\":2370:2498   */\n  pop\n    /* \"#utility.yul\":2537:2539   */\n  0x20\n    /* \"#utility.yul\":2563:2640   */\n  tag_58\n    /* \"#utility.yul\":2632:2639   */\n  dup13\n    /* \"#utility.yul\":2623:2629   */\n  dup3\n    /* \"#utility.yul\":2612:2621   */\n  dup14\n    /* \"#utility.yul\":2608:2630   */\n  add\n    /* \"#utility.yul\":2563:2640   */\n  tag_16\n  jump\t// in\ntag_58:\n    /* \"#utility.yul\":2553:2640   */\n  swap9\n  pop\n    /* \"#utility.yul\":2508:2650   */\n  pop\n    /* \"#utility.yul\":2689:2691   */\n  0x40\n    /* \"#utility.yul\":2715:2779   */\n  tag_59\n    /* \"#utility.yul\":2771:2778   */\n  dup13\n    /* \"#utility.yul\":2762:2768   */\n  dup3\n    /* \"#utility.yul\":2751:2760   */\n  dup14\n    /* \"#utility.yul\":2747:2769   */\n  add\n    /* \"#utility.yul\":2715:2779   */\n  tag_19\n  jump\t// in\ntag_59:\n    /* \"#utility.yul\":2705:2779   */\n  swap8\n  pop\n    /* \"#utility.yul\":2660:2789   */\n  pop\n    /* \"#utility.yul\":2828:2830   */\n  0x60\n    /* \"#utility.yul\":2854:2915   */\n  tag_60\n    /* \"#utility.yul\":2907:2914   */\n  dup13\n    /* \"#utility.yul\":2898:2904   */\n  dup3\n    /* \"#utility.yul\":2887:2896   */\n  dup14\n    /* \"#utility.yul\":2883:2905   */\n  add\n    /* \"#utility.yul\":2854:2915   */\n  tag_22\n  jump\t// in\ntag_60:\n    /* \"#utility.yul\":2844:2915   */\n  swap7\n  pop\n    /* \"#utility.yul\":2799:2925   */\n  pop\n    /* \"#utility.yul\":2964:2967   */\n  0x80\n    /* \"#utility.yul\":2991:3055   */\n  tag_61\n    /* \"#utility.yul\":3047:3054   */\n  dup13\n    /* \"#utility.yul\":3038:3044   */\n  dup3\n    /* \"#utility.yul\":3027:3036   */\n  dup14\n    /* \"#utility.yul\":3023:3045   */\n  add\n    /* \"#utility.yul\":2991:3055   */\n  tag_19\n  jump\t// in\ntag_61:\n    /* \"#utility.yul\":2981:3055   */\n  swap6\n  pop\n    /* \"#utility.yul\":2935:3065   */\n  pop\n    /* \"#utility.yul\":3104:3107   */\n  0xa0\n    /* \"#utility.yul\":3131:3195   */\n  tag_62\n    /* \"#utility.yul\":3187:3194   */\n  dup13\n    /* \"#utility.yul\":3178:3184   */\n  dup3\n    /* \"#utility.yul\":3167:3176   */\n  dup14\n    /* \"#utility.yul\":3163:3185   */\n  add\n    /* \"#utility.yul\":3131:3195   */\n  tag_19\n  jump\t// in\ntag_62:\n    /* \"#utility.yul\":3121:3195   */\n  swap5\n  pop\n    /* \"#utility.yul\":3075:3205   */\n  pop\n    /* \"#utility.yul\":3244:3247   */\n  0xc0\n    /* \"#utility.yul\":3271:3335   */\n  tag_63\n    /* \"#utility.yul\":3327:3334   */\n  dup13\n    /* \"#utility.yul\":3318:3324   */\n  dup3\n    /* \"#utility.yul\":3307:3316   */\n  dup14\n    /* \"#utility.yul\":3303:3325   */\n  add\n    /* \"#utility.yul\":3271:3335   */\n  tag_19\n  jump\t// in\ntag_63:\n    /* \"#utility.yul\":3261:3335   */\n  swap4\n  pop\n    /* \"#utility.yul\":3215:3345   */\n  pop\n    /* \"#utility.yul\":3384:3387   */\n  0xe0\n    /* \"#utility.yul\":3411:3472   */\n  tag_64\n    /* \"#utility.yul\":3464:3471   */\n  dup13\n    /* \"#utility.yul\":3455:3461   */\n  dup3\n    /* \"#utility.yul\":3444:3453   */\n  dup14\n    /* \"#utility.yul\":3440:3462   */\n  add\n    /* \"#utility.yul\":3411:3472   */\n  tag_22\n  jump\t// in\ntag_64:\n    /* \"#utility.yul\":3401:3472   */\n  swap3\n  pop\n    /* \"#utility.yul\":3355:3482   */\n  pop\n    /* \"#utility.yul\":3521:3524   */\n  0x0100\n    /* \"#utility.yul\":3548:3612   */\n  tag_65\n    /* \"#utility.yul\":3604:3611   */\n  dup13\n    /* \"#utility.yul\":3595:3601   */\n  dup3\n    /* \"#utility.yul\":3584:3593   */\n  dup14\n    /* \"#utility.yul\":3580:3602   */\n  add\n    /* \"#utility.yul\":3548:3612   */\n  tag_19\n  jump\t// in\ntag_65:\n    /* \"#utility.yul\":3538:3612   */\n  swap2\n  pop\n    /* \"#utility.yul\":3492:3622   */\n  pop\n    /* \"#utility.yul\":2010:3629   */\n  swap3\n  swap6\n  swap9\n  pop\n  swap3\n  swap6\n  swap9\n  pop\n  swap3\n  swap6\n  swap9\n  jump\t// out\n    /* \"DefiBorrow/BorrowContract.sol\":161:10575  contract BorrowContract {... */\ntag_6:\n  dataSize(sub_0)\n  dup1\n  dataOffset(sub_0)\n  0x00\n  codecopy\n  0x00\n  return\nstop\n\nsub_0: assembly {\n        /* \"DefiBorrow/BorrowContract.sol\":161:10575  contract BorrowContract {... */\n      mstore(0x40, 0x80)\n      jumpi(tag_1, lt(calldatasize, 0x04))\n      shr(0xe0, calldataload(0x00))\n      dup1\n      0x75c7c9e0\n      gt\n      tag_25\n      jumpi\n      dup1\n      0x97fcd1d7\n      gt\n      tag_26\n      jumpi\n      dup1\n      0x97fcd1d7\n      eq\n      tag_19\n      jumpi\n      dup1\n      0x9a996efa\n      eq\n      tag_20\n      jumpi\n      dup1\n      0xa3220df7\n      eq\n      tag_21\n      jumpi\n      dup1\n      0xb7661a54\n      eq\n      tag_22\n      jumpi\n      dup1\n      0xb7dd32aa\n      eq\n      tag_23\n      jumpi\n      dup1\n      0xbca353be\n      eq\n      tag_24\n      jumpi\n      jump(tag_1)\n    tag_26:\n      dup1\n      0x75c7c9e0\n      eq\n      tag_13\n      jumpi\n      dup1\n      0x78e97925\n      eq\n      tag_14\n      jumpi\n      dup1\n      0x7df1f1b9\n      eq\n      tag_15\n      jumpi\n      dup1\n      0x7fca631f\n      eq\n      tag_16\n      jumpi\n      dup1\n      0x8fda356d\n      eq\n      tag_17\n      jumpi\n      dup1\n      0x92d09ceb\n      eq\n      tag_18\n      jumpi\n      jump(tag_1)\n    tag_25:\n      dup1\n      0x30e9e551\n      gt\n      tag_27\n      jumpi\n      dup1\n      0x30e9e551\n      eq\n      tag_7\n      jumpi\n      dup1\n      0x3577d94e\n      eq\n      tag_8\n      jumpi\n      dup1\n      0x4d3a6916\n      eq\n      tag_9\n      jumpi\n      dup1\n      0x58fe22be\n      eq\n      tag_10\n      jumpi\n      dup1\n      0x6baa17d0\n      eq\n      tag_11\n      jumpi\n      dup1\n      0x73dbd5d4\n      eq\n      tag_12\n      jumpi\n      jump(tag_1)\n    tag_27:\n      dup1\n      0x0c7019\n      eq\n      tag_2\n      jumpi\n      dup1\n      0x02d05d3f\n      eq\n      tag_3\n      jumpi\n      dup1\n      0x0c7c9e68\n      eq\n      tag_4\n      jumpi\n      dup1\n      0x186601ca\n      eq\n      tag_5\n      jumpi\n      dup1\n      0x2765bdb9\n      eq\n      tag_6\n      jumpi\n    tag_1:\n      0x00\n      dup1\n      revert\n        /* \"DefiBorrow/BorrowContract.sol\":7313:7551  function getRemainingDays() public view contractActivated returns (uint) {... */\n    tag_2:\n      callvalue\n      dup1\n      iszero\n      tag_28\n      jumpi\n      0x00\n      dup1\n      revert\n    tag_28:\n      pop\n      tag_29\n      tag_30\n      jump\t// in\n    tag_29:\n      mload(0x40)\n      tag_31\n      swap2\n      swap1\n      tag_32\n      jump\t// in\n    tag_31:\n      mload(0x40)\n      dup1\n      swap2\n      sub\n      swap1\n      return\n        /* \"DefiBorrow/BorrowContract.sol\":272:294  address public creator */\n    tag_3:\n      callvalue\n      dup1\n      iszero\n      tag_33\n      jumpi\n      0x00\n      dup1\n      revert\n    tag_33:\n      pop\n      tag_34\n      tag_35\n      jump\t// in\n    tag_34:\n      mload(0x40)\n      tag_36\n      swap2\n      swap1\n      tag_37\n      jump\t// in\n    tag_36:\n      mload(0x40)\n      dup1\n      swap2\n      sub\n      swap1\n      return\n        /* \"DefiBorrow/BorrowContract.sol\":1228:1262  bool public repaymentPendingStatus */\n    tag_4:\n      callvalue\n      dup1\n      iszero\n      tag_38\n      jumpi\n      0x00\n      dup1\n      revert\n    tag_38:\n      pop\n      tag_39\n      tag_40\n      jump\t// in\n    tag_39:\n      mload(0x40)\n      tag_41\n      swap2\n      swap1\n      tag_42\n      jump\t// in\n    tag_41:\n      mload(0x40)\n      dup1\n      swap2\n      sub\n      swap1\n      return\n        /* \"DefiBorrow/BorrowContract.sol\":839:860  bool public activated */\n    tag_5:\n      callvalue\n      dup1\n      iszero\n      tag_43\n      jumpi\n      0x00\n      dup1\n      revert\n    tag_43:\n      pop\n      tag_44\n      tag_45\n      jump\t// in\n    tag_44:\n      mload(0x40)\n      tag_46\n      swap2\n      swap1\n      tag_42\n      jump\t// in\n    tag_46:\n      mload(0x40)\n      dup1\n      swap2\n      sub\n      swap1\n      return\n        /* \"DefiBorrow/BorrowContract.sol\":1115:1147  uint public totalRepaymentAmount */\n    tag_6:\n      callvalue\n      dup1\n      iszero\n      tag_47\n      jumpi\n      0x00\n      dup1\n      revert\n    tag_47:\n      pop\n      tag_48\n      tag_49\n      jump\t// in\n    tag_48:\n      mload(0x40)\n      tag_50\n      swap2\n      swap1\n      tag_32\n      jump\t// in\n    tag_50:\n      mload(0x40)\n      dup1\n      swap2\n      sub\n      swap1\n      return\n        /* \"DefiBorrow/BorrowContract.sol\":3918:4375  function depositCollateralBTC(address receiver, uint _wBtcCollateral) external contractNotActivated {... */\n    tag_7:\n      callvalue\n      dup1\n      iszero\n      tag_51\n      jumpi\n      0x00\n      dup1\n      revert\n    tag_51:\n      pop\n      tag_52\n      0x04\n      dup1\n      calldatasize\n      sub\n      dup2\n      add\n      swap1\n      tag_53\n      swap2\n      swap1\n      tag_54\n      jump\t// in\n    tag_53:\n      tag_55\n      jump\t// in\n    tag_52:\n      stop\n        /* \"DefiBorrow/BorrowContract.sol\":912:932  uint public loanTerm */\n    tag_8:\n      callvalue\n      dup1\n      iszero\n      tag_56\n      jumpi\n      0x00\n      dup1\n      revert\n    tag_56:\n      pop\n      tag_57\n      tag_58\n      jump\t// in\n    tag_57:\n      mload(0x40)\n      tag_59\n      swap2\n      swap1\n      tag_32\n      jump\t// in\n    tag_59:\n      mload(0x40)\n      dup1\n      swap2\n      sub\n      swap1\n      return\n        /* \"DefiBorrow/BorrowContract.sol\":736:755  bool public wantBTC */\n    tag_9:\n      callvalue\n      dup1\n      iszero\n      tag_60\n      jumpi\n      0x00\n      dup1\n      revert\n    tag_60:\n      pop\n      tag_61\n      tag_62\n      jump\t// in\n    tag_61:\n      mload(0x40)\n      tag_63\n      swap2\n      swap1\n      tag_42\n      jump\t// in\n    tag_63:\n      mload(0x40)\n      dup1\n      swap2\n      sub\n      swap1\n      return\n        /* \"DefiBorrow/BorrowContract.sol\":5268:5841  function requestRepayment(uint balance) external contractActivated returns (uint) {... */\n    tag_10:\n      callvalue\n      dup1\n      iszero\n      tag_64\n      jumpi\n      0x00\n      dup1\n      revert\n    tag_64:\n      pop\n      tag_65\n      0x04\n      dup1\n      calldatasize\n      sub\n      dup2\n      add\n      swap1\n      tag_66\n      swap2\n      swap1\n      tag_67\n      jump\t// in\n    tag_66:\n      tag_68\n      jump\t// in\n    tag_65:\n      mload(0x40)\n      tag_69\n      swap2\n      swap1\n      tag_32\n      jump\t// in\n    tag_69:\n      mload(0x40)\n      dup1\n      swap2\n      sub\n      swap1\n      return\n        /* \"DefiBorrow/BorrowContract.sol\":1295:1319  uint public loanDeadline */\n    tag_11:\n      callvalue\n      dup1\n      iszero\n      tag_70\n      jumpi\n      0x00\n      dup1\n      revert\n    tag_70:\n      pop\n      tag_71\n      tag_72\n      jump\t// in\n    tag_71:\n      mload(0x40)\n      tag_73\n      swap2\n      swap1\n      tag_32\n      jump\t// in\n    tag_73:\n      mload(0x40)\n      dup1\n      swap2\n      sub\n      swap1\n      return\n        /* \"DefiBorrow/BorrowContract.sol\":3217:3658  function depositCollateralETH(address receiver) external payable contractNotActivated {... */\n    tag_12:\n      tag_74\n      0x04\n      dup1\n      calldatasize\n      sub\n      dup2\n      add\n      swap1\n      tag_75\n      swap2\n      swap1\n      tag_76\n      jump\t// in\n    tag_75:\n      tag_77\n      jump\t// in\n    tag_74:\n      stop\n        /* \"DefiBorrow/BorrowContract.sol\":6039:6471  function repayLoanETH(address receiver) external contractActivated payable {... */\n    tag_13:\n      tag_78\n      0x04\n      dup1\n      calldatasize\n      sub\n      dup2\n      add\n      swap1\n      tag_79\n      swap2\n      swap1\n      tag_76\n      jump\t// in\n    tag_79:\n      tag_80\n      jump\t// in\n    tag_78:\n      stop\n        /* \"DefiBorrow/BorrowContract.sol\":972:993  uint public startTime */\n    tag_14:\n      callvalue\n      dup1\n      iszero\n      tag_81\n      jumpi\n      0x00\n      dup1\n      revert\n    tag_81:\n      pop\n      tag_82\n      tag_83\n      jump\t// in\n    tag_82:\n      mload(0x40)\n      tag_84\n      swap2\n      swap1\n      tag_32\n      jump\t// in\n    tag_84:\n      mload(0x40)\n      dup1\n      swap2\n      sub\n      swap1\n      return\n        /* \"DefiBorrow/BorrowContract.sol\":328:351  address public borrower */\n    tag_15:\n      callvalue\n      dup1\n      iszero\n      tag_85\n      jumpi\n      0x00\n      dup1\n      revert\n    tag_85:\n      pop\n      tag_86\n      tag_87\n      jump\t// in\n    tag_86:\n      mload(0x40)\n      tag_88\n      swap2\n      swap1\n      tag_37\n      jump\t// in\n    tag_88:\n      mload(0x40)\n      dup1\n      swap2\n      sub\n      swap1\n      return\n        /* \"DefiBorrow/BorrowContract.sol\":644:673  uint public dailyInterestRate */\n    tag_16:\n      callvalue\n      dup1\n      iszero\n      tag_89\n      jumpi\n      0x00\n      dup1\n      revert\n    tag_89:\n      pop\n      tag_90\n      tag_91\n      jump\t// in\n    tag_90:\n      mload(0x40)\n      tag_92\n      swap2\n      swap1\n      tag_32\n      jump\t// in\n    tag_92:\n      mload(0x40)\n      dup1\n      swap2\n      sub\n      swap1\n      return\n        /* \"DefiBorrow/BorrowContract.sol\":4513:4783  function activateContract() external restricted contractNotActivated{... */\n    tag_17:\n      callvalue\n      dup1\n      iszero\n      tag_93\n      jumpi\n      0x00\n      dup1\n      revert\n    tag_93:\n      pop\n      tag_94\n      tag_95\n      jump\t// in\n    tag_94:\n      stop\n        /* \"DefiBorrow/BorrowContract.sol\":447:478  uint256 public collateralAmount */\n    tag_18:\n      callvalue\n      dup1\n      iszero\n      tag_96\n      jumpi\n      0x00\n      dup1\n      revert\n    tag_96:\n      pop\n      tag_97\n      tag_98\n      jump\t// in\n    tag_97:\n      mload(0x40)\n      tag_99\n      swap2\n      swap1\n      tag_32\n      jump\t// in\n    tag_99:\n      mload(0x40)\n      dup1\n      swap2\n      sub\n      swap1\n      return\n        /* \"DefiBorrow/BorrowContract.sol\":220:238  IERC20 public wBtc */\n    tag_19:\n      callvalue\n      dup1\n      iszero\n      tag_100\n      jumpi\n      0x00\n      dup1\n      revert\n    tag_100:\n      pop\n      tag_101\n      tag_102\n      jump\t// in\n    tag_101:\n      mload(0x40)\n      tag_103\n      swap2\n      swap1\n      tag_104\n      jump\t// in\n    tag_103:\n      mload(0x40)\n      dup1\n      swap2\n      sub\n      swap1\n      return\n        /* \"DefiBorrow/BorrowContract.sol\":547:572  uint public btcInEthPrice */\n    tag_20:\n      callvalue\n      dup1\n      iszero\n      tag_105\n      jumpi\n      0x00\n      dup1\n      revert\n    tag_105:\n      pop\n      tag_106\n      tag_107\n      jump\t// in\n    tag_106:\n      mload(0x40)\n      tag_108\n      swap2\n      swap1\n      tag_32\n      jump\t// in\n    tag_108:\n      mload(0x40)\n      dup1\n      swap2\n      sub\n      swap1\n      return\n        /* \"DefiBorrow/BorrowContract.sol\":6737:7182  function repayLoanBTC(address receiver, uint _wBtcRepayment) external contractActivated {... */\n    tag_21:\n      callvalue\n      dup1\n      iszero\n      tag_109\n      jumpi\n      0x00\n      dup1\n      revert\n    tag_109:\n      pop\n      tag_110\n      0x04\n      dup1\n      calldatasize\n      sub\n      dup2\n      add\n      swap1\n      tag_111\n      swap2\n      swap1\n      tag_54\n      jump\t// in\n    tag_111:\n      tag_112\n      jump\t// in\n    tag_110:\n      stop\n        /* \"DefiBorrow/BorrowContract.sol\":1045:1075  uint public loanDurationInDays */\n    tag_22:\n      callvalue\n      dup1\n      iszero\n      tag_113\n      jumpi\n      0x00\n      dup1\n      revert\n    tag_113:\n      pop\n      tag_114\n      tag_115\n      jump\t// in\n    tag_114:\n      mload(0x40)\n      tag_116\n      swap2\n      swap1\n      tag_32\n      jump\t// in\n    tag_116:\n      mload(0x40)\n      dup1\n      swap2\n      sub\n      swap1\n      return\n        /* \"DefiBorrow/BorrowContract.sol\":380:404  uint public borrowAmount */\n    tag_23:\n      callvalue\n      dup1\n      iszero\n      tag_117\n      jumpi\n      0x00\n      dup1\n      revert\n    tag_117:\n      pop\n      tag_118\n      tag_119\n      jump\t// in\n    tag_118:\n      mload(0x40)\n      tag_120\n      swap2\n      swap1\n      tag_32\n      jump\t// in\n    tag_120:\n      mload(0x40)\n      dup1\n      swap2\n      sub\n      swap1\n      return\n        /* \"DefiBorrow/BorrowContract.sol\":4912:5113  function deactivateContract() external contractActivated restricted {... */\n    tag_24:\n      callvalue\n      dup1\n      iszero\n      tag_121\n      jumpi\n      0x00\n      dup1\n      revert\n    tag_121:\n      pop\n      tag_122\n      tag_123\n      jump\t// in\n    tag_122:\n      stop\n        /* \"DefiBorrow/BorrowContract.sol\":7313:7551  function getRemainingDays() public view contractActivated returns (uint) {... */\n    tag_30:\n        /* \"DefiBorrow/BorrowContract.sol\":7380:7384  uint */\n      0x00\n        /* \"DefiBorrow/BorrowContract.sol\":10057:10066  activated */\n      0x07\n      0x01\n      swap1\n      sload\n      swap1\n      0x0100\n      exp\n      swap1\n      div\n      0xff\n      and\n        /* \"DefiBorrow/BorrowContract.sol\":10049:10122  require(activated, \"Can only be executed when the contract is activated\") */\n      tag_125\n      jumpi\n      mload(0x40)\n      0x08c379a000000000000000000000000000000000000000000000000000000000\n      dup2\n      mstore\n      0x04\n      add\n      tag_126\n      swap1\n      tag_127\n      jump\t// in\n    tag_126:\n      mload(0x40)\n      dup1\n      swap2\n      sub\n      swap1\n      revert\n    tag_125:\n        /* \"DefiBorrow/BorrowContract.sol\":7420:7432  loanDeadline */\n      sload(0x0d)\n        /* \"DefiBorrow/BorrowContract.sol\":7401:7416  block.timestamp */\n      timestamp\n        /* \"DefiBorrow/BorrowContract.sol\":7401:7432  block.timestamp >= loanDeadline */\n      lt\n        /* \"DefiBorrow/BorrowContract.sol\":7397:7544  if (block.timestamp >= loanDeadline) {... */\n      tag_129\n      jumpi\n        /* \"DefiBorrow/BorrowContract.sol\":7456:7457  0 */\n      0x00\n        /* \"DefiBorrow/BorrowContract.sol\":7449:7457  return 0 */\n      swap1\n      pop\n      jump(tag_128)\n        /* \"DefiBorrow/BorrowContract.sol\":7397:7544  if (block.timestamp >= loanDeadline) {... */\n    tag_129:\n        /* \"DefiBorrow/BorrowContract.sol\":7526:7532  1 days */\n      0x015180\n        /* \"DefiBorrow/BorrowContract.sol\":7513:7522  startTime */\n      sload(0x09)\n        /* \"DefiBorrow/BorrowContract.sol\":7498:7510  loanDeadline */\n      sload(0x0d)\n        /* \"DefiBorrow/BorrowContract.sol\":7498:7522  loanDeadline - startTime */\n      tag_131\n      swap2\n      swap1\n      tag_132\n      jump\t// in\n    tag_131:\n        /* \"DefiBorrow/BorrowContract.sol\":7497:7532  (loanDeadline - startTime) / 1 days */\n      tag_133\n      swap2\n      swap1\n      tag_134\n      jump\t// in\n    tag_133:\n        /* \"DefiBorrow/BorrowContract.sol\":7490:7532  return (loanDeadline - startTime) / 1 days */\n      swap1\n      pop\n        /* \"DefiBorrow/BorrowContract.sol\":10133:10134  _ */\n    tag_128:\n        /* \"DefiBorrow/BorrowContract.sol\":7313:7551  function getRemainingDays() public view contractActivated returns (uint) {... */\n      swap1\n      jump\t// out\n        /* \"DefiBorrow/BorrowContract.sol\":272:294  address public creator */\n    tag_35:\n      0x01\n      0x00\n      swap1\n      sload\n      swap1\n      0x0100\n      exp\n      swap1\n      div\n      0xffffffffffffffffffffffffffffffffffffffff\n      and\n      dup2\n      jump\t// out\n        /* \"DefiBorrow/BorrowContract.sol\":1228:1262  bool public repaymentPendingStatus */\n    tag_40:\n      0x0c\n      0x00\n      swap1\n      sload\n      swap1\n      0x0100\n      exp\n      swap1\n      div\n      0xff\n      and\n      dup2\n      jump\t// out\n        /* \"DefiBorrow/BorrowContract.sol\":839:860  bool public activated */\n    tag_45:\n      0x07\n      0x01\n      swap1\n      sload\n      swap1\n      0x0100\n      exp\n      swap1\n      div\n      0xff\n      and\n      dup2\n      jump\t// out\n        /* \"DefiBorrow/BorrowContract.sol\":1115:1147  uint public totalRepaymentAmount */\n    tag_49:\n      sload(0x0b)\n      dup2\n      jump\t// out\n        /* \"DefiBorrow/BorrowContract.sol\":3918:4375  function depositCollateralBTC(address receiver, uint _wBtcCollateral) external contractNotActivated {... */\n    tag_55:\n        /* \"DefiBorrow/BorrowContract.sol\":10283:10292  activated */\n      0x07\n      0x01\n      swap1\n      sload\n      swap1\n      0x0100\n      exp\n      swap1\n      div\n      0xff\n      and\n        /* \"DefiBorrow/BorrowContract.sol\":10282:10292  !activated */\n      iszero\n        /* \"DefiBorrow/BorrowContract.sol\":10274:10352  require(!activated, \"Can only be executed when the contract is not activated\") */\n      tag_136\n      jumpi\n      mload(0x40)\n      0x08c379a000000000000000000000000000000000000000000000000000000000\n      dup2\n      mstore\n      0x04\n      add\n      tag_137\n      swap1\n      tag_138\n      jump\t// in\n    tag_137:\n      mload(0x40)\n      dup1\n      swap2\n      sub\n      swap1\n      revert\n    tag_136:\n        /* \"DefiBorrow/BorrowContract.sol\":4056:4072  collateralAmount */\n      sload(0x04)\n        /* \"DefiBorrow/BorrowContract.sol\":4037:4052  _wBtcCollateral */\n      dup2\n        /* \"DefiBorrow/BorrowContract.sol\":4037:4072  _wBtcCollateral == collateralAmount */\n      eq\n        /* \"DefiBorrow/BorrowContract.sol\":4029:4109  require(_wBtcCollateral == collateralAmount, \"Incorrect WBTC collateral amount\") */\n      tag_140\n      jumpi\n      mload(0x40)\n      0x08c379a000000000000000000000000000000000000000000000000000000000\n      dup2\n      mstore\n      0x04\n      add\n      tag_141\n      swap1\n      tag_142\n      jump\t// in\n    tag_141:\n      mload(0x40)\n      dup1\n      swap2\n      sub\n      swap1\n      revert\n    tag_140:\n        /* \"DefiBorrow/BorrowContract.sol\":4216:4220  wBtc */\n      0x00\n      dup1\n      sload\n      swap1\n      0x0100\n      exp\n      swap1\n      div\n      0xffffffffffffffffffffffffffffffffffffffff\n      and\n        /* \"DefiBorrow/BorrowContract.sol\":4216:4233  wBtc.transferFrom */\n      0xffffffffffffffffffffffffffffffffffffffff\n      and\n      0x23b872dd\n        /* \"DefiBorrow/BorrowContract.sol\":4234:4242  borrower */\n      0x02\n      0x00\n      swap1\n      sload\n      swap1\n      0x0100\n      exp\n      swap1\n      div\n      0xffffffffffffffffffffffffffffffffffffffff\n      and\n        /* \"DefiBorrow/BorrowContract.sol\":4244:4252  receiver */\n      dup5\n        /* \"DefiBorrow/BorrowContract.sol\":4254:4270  collateralAmount */\n      sload(0x04)\n        /* \"DefiBorrow/BorrowContract.sol\":4216:4271  wBtc.transferFrom(borrower, receiver, collateralAmount) */\n      mload(0x40)\n      dup5\n      0xffffffff\n      and\n      0xe0\n      shl\n      dup2\n      mstore\n      0x04\n      add\n      tag_143\n      swap4\n      swap3\n      swap2\n      swap1\n      tag_144\n      jump\t// in\n    tag_143:\n      0x20\n      mload(0x40)\n      dup1\n      dup4\n      sub\n      dup2\n      0x00\n      dup8\n      gas\n      call\n      iszero\n      dup1\n      iszero\n      tag_146\n      jumpi\n      returndatasize\n      0x00\n      dup1\n      returndatacopy\n      revert(0x00, returndatasize)\n    tag_146:\n      pop\n      pop\n      pop\n      pop\n      mload(0x40)\n      returndatasize\n      not(0x1f)\n      0x1f\n      dup3\n      add\n      and\n      dup3\n      add\n      dup1\n      0x40\n      mstore\n      pop\n      dup2\n      add\n      swap1\n      tag_147\n      swap2\n      swap1\n      tag_148\n      jump\t// in\n    tag_147:\n        /* \"DefiBorrow/BorrowContract.sol\":4208:4296  require(wBtc.transferFrom(borrower, receiver, collateralAmount), \"WBTC transfer failed\") */\n      tag_149\n      jumpi\n      mload(0x40)\n      0x08c379a000000000000000000000000000000000000000000000000000000000\n      dup2\n      mstore\n      0x04\n      add\n      tag_150\n      swap1\n      tag_151\n      jump\t// in\n    tag_150:\n      mload(0x40)\n      dup1\n      swap2\n      sub\n      swap1\n      revert\n    tag_149:\n        /* \"DefiBorrow/BorrowContract.sol\":4332:4340  borrower */\n      0x02\n      0x00\n      swap1\n      sload\n      swap1\n      0x0100\n      exp\n      swap1\n      div\n      0xffffffffffffffffffffffffffffffffffffffff\n      and\n        /* \"DefiBorrow/BorrowContract.sol\":4312:4367  CollateralDeposited(borrower, _wBtcCollateral, wantBTC) */\n      0xffffffffffffffffffffffffffffffffffffffff\n      and\n      0xfe671c76cdf692b140b5703c07cfb25d42ddaa92d6566df7d188db5acf436bc8\n        /* \"DefiBorrow/BorrowContract.sol\":4342:4357  _wBtcCollateral */\n      dup3\n        /* \"DefiBorrow/BorrowContract.sol\":4359:4366  wantBTC */\n      0x07\n      0x00\n      swap1\n      sload\n      swap1\n      0x0100\n      exp\n      swap1\n      div\n      0xff\n      and\n        /* \"DefiBorrow/BorrowContract.sol\":4312:4367  CollateralDeposited(borrower, _wBtcCollateral, wantBTC) */\n      mload(0x40)\n      tag_152\n      swap3\n      swap2\n      swap1\n      tag_153\n      jump\t// in\n    tag_152:\n      mload(0x40)\n      dup1\n      swap2\n      sub\n      swap1\n      log2\n        /* \"DefiBorrow/BorrowContract.sol\":3918:4375  function depositCollateralBTC(address receiver, uint _wBtcCollateral) external contractNotActivated {... */\n      pop\n      pop\n      jump\t// out\n        /* \"DefiBorrow/BorrowContract.sol\":912:932  uint public loanTerm */\n    tag_58:\n      sload(0x08)\n      dup2\n      jump\t// out\n        /* \"DefiBorrow/BorrowContract.sol\":736:755  bool public wantBTC */\n    tag_62:\n      0x07\n      0x00\n      swap1\n      sload\n      swap1\n      0x0100\n      exp\n      swap1\n      div\n      0xff\n      and\n      dup2\n      jump\t// out\n        /* \"DefiBorrow/BorrowContract.sol\":5268:5841  function requestRepayment(uint balance) external contractActivated returns (uint) {... */\n    tag_68:\n        /* \"DefiBorrow/BorrowContract.sol\":5344:5348  uint */\n      0x00\n        /* \"DefiBorrow/BorrowContract.sol\":10057:10066  activated */\n      0x07\n      0x01\n      swap1\n      sload\n      swap1\n      0x0100\n      exp\n      swap1\n      div\n      0xff\n      and\n        /* \"DefiBorrow/BorrowContract.sol\":10049:10122  require(activated, \"Can only be executed when the contract is activated\") */\n      tag_155\n      jumpi\n      mload(0x40)\n      0x08c379a000000000000000000000000000000000000000000000000000000000\n      dup2\n      mstore\n      0x04\n      add\n      tag_156\n      swap1\n      tag_127\n      jump\t// in\n    tag_156:\n      mload(0x40)\n      dup1\n      swap2\n      sub\n      swap1\n      revert\n    tag_155:\n        /* \"DefiBorrow/BorrowContract.sol\":5475:5481  1 days */\n      0x015180\n        /* \"DefiBorrow/BorrowContract.sol\":5462:5471  startTime */\n      sload(0x09)\n        /* \"DefiBorrow/BorrowContract.sol\":5444:5459  block.timestamp */\n      timestamp\n        /* \"DefiBorrow/BorrowContract.sol\":5444:5471  block.timestamp - startTime */\n      tag_158\n      swap2\n      swap1\n      tag_132\n      jump\t// in\n    tag_158:\n        /* \"DefiBorrow/BorrowContract.sol\":5443:5481  (block.timestamp - startTime) / 1 days */\n      tag_159\n      swap2\n      swap1\n      tag_134\n      jump\t// in\n    tag_159:\n        /* \"DefiBorrow/BorrowContract.sol\":5422:5440  loanDurationInDays */\n      0x0a\n        /* \"DefiBorrow/BorrowContract.sol\":5422:5481  loanDurationInDays = (block.timestamp - startTime) / 1 days */\n      dup2\n      swap1\n      sstore\n      pop\n        /* \"DefiBorrow/BorrowContract.sol\":5614:5678  _calculateTotalRepaymentAmount(borrowAmount, loanDurationInDays) */\n      tag_160\n        /* \"DefiBorrow/BorrowContract.sol\":5645:5657  borrowAmount */\n      sload(0x03)\n        /* \"DefiBorrow/BorrowContract.sol\":5659:5677  loanDurationInDays */\n      sload(0x0a)\n        /* \"DefiBorrow/BorrowContract.sol\":5614:5644  _calculateTotalRepaymentAmount */\n      tag_161\n        /* \"DefiBorrow/BorrowContract.sol\":5614:5678  _calculateTotalRepaymentAmount(borrowAmount, loanDurationInDays) */\n      jump\t// in\n    tag_160:\n        /* \"DefiBorrow/BorrowContract.sol\":5591:5611  totalRepaymentAmount */\n      0x0b\n        /* \"DefiBorrow/BorrowContract.sol\":5591:5678  totalRepaymentAmount = _calculateTotalRepaymentAmount(borrowAmount, loanDurationInDays) */\n      dup2\n      swap1\n      sstore\n      pop\n        /* \"DefiBorrow/BorrowContract.sol\":5704:5724  totalRepaymentAmount */\n      sload(0x0b)\n        /* \"DefiBorrow/BorrowContract.sol\":5693:5700  balance */\n      dup3\n        /* \"DefiBorrow/BorrowContract.sol\":5693:5724  balance >= totalRepaymentAmount */\n      lt\n        /* \"DefiBorrow/BorrowContract.sol\":5689:5796  if (balance >= totalRepaymentAmount) {... */\n      tag_162\n      jumpi\n        /* \"DefiBorrow/BorrowContract.sol\":5766:5770  true */\n      0x01\n        /* \"DefiBorrow/BorrowContract.sol\":5741:5763  repaymentPendingStatus */\n      0x0c\n      0x00\n        /* \"DefiBorrow/BorrowContract.sol\":5741:5770  repaymentPendingStatus = true */\n      0x0100\n      exp\n      dup2\n      sload\n      dup2\n      0xff\n      mul\n      not\n      and\n      swap1\n      dup4\n      iszero\n      iszero\n      mul\n      or\n      swap1\n      sstore\n      pop\n        /* \"DefiBorrow/BorrowContract.sol\":5689:5796  if (balance >= totalRepaymentAmount) {... */\n    tag_162:\n        /* \"DefiBorrow/BorrowContract.sol\":5813:5833  totalRepaymentAmount */\n      sload(0x0b)\n        /* \"DefiBorrow/BorrowContract.sol\":5806:5833  return totalRepaymentAmount */\n      swap1\n      pop\n        /* \"DefiBorrow/BorrowContract.sol\":5268:5841  function requestRepayment(uint balance) external contractActivated returns (uint) {... */\n      swap2\n      swap1\n      pop\n      jump\t// out\n        /* \"DefiBorrow/BorrowContract.sol\":1295:1319  uint public loanDeadline */\n    tag_72:\n      sload(0x0d)\n      dup2\n      jump\t// out\n        /* \"DefiBorrow/BorrowContract.sol\":3217:3658  function depositCollateralETH(address receiver) external payable contractNotActivated {... */\n    tag_77:\n        /* \"DefiBorrow/BorrowContract.sol\":10283:10292  activated */\n      0x07\n      0x01\n      swap1\n      sload\n      swap1\n      0x0100\n      exp\n      swap1\n      div\n      0xff\n      and\n        /* \"DefiBorrow/BorrowContract.sol\":10282:10292  !activated */\n      iszero\n        /* \"DefiBorrow/BorrowContract.sol\":10274:10352  require(!activated, \"Can only be executed when the contract is not activated\") */\n      tag_164\n      jumpi\n      mload(0x40)\n      0x08c379a000000000000000000000000000000000000000000000000000000000\n      dup2\n      mstore\n      0x04\n      add\n      tag_165\n      swap1\n      tag_138\n      jump\t// in\n    tag_165:\n      mload(0x40)\n      dup1\n      swap2\n      sub\n      swap1\n      revert\n    tag_164:\n        /* \"DefiBorrow/BorrowContract.sol\":3347:3363  collateralAmount */\n      sload(0x04)\n        /* \"DefiBorrow/BorrowContract.sol\":3335:3342  1 ether */\n      0x0de0b6b3a7640000\n        /* \"DefiBorrow/BorrowContract.sol\":3323:3332  msg.value */\n      callvalue\n        /* \"DefiBorrow/BorrowContract.sol\":3323:3342  msg.value / 1 ether */\n      tag_167\n      swap2\n      swap1\n      tag_134\n      jump\t// in\n    tag_167:\n        /* \"DefiBorrow/BorrowContract.sol\":3322:3363  (msg.value / 1 ether) == collateralAmount */\n      eq\n        /* \"DefiBorrow/BorrowContract.sol\":3314:3399  require((msg.value / 1 ether) == collateralAmount, \"Incorrect ETH collateral amount\") */\n      tag_168\n      jumpi\n      mload(0x40)\n      0x08c379a000000000000000000000000000000000000000000000000000000000\n      dup2\n      mstore\n      0x04\n      add\n      tag_169\n      swap1\n      tag_170\n      jump\t// in\n    tag_169:\n      mload(0x40)\n      dup1\n      swap2\n      sub\n      swap1\n      revert\n    tag_168:\n        /* \"DefiBorrow/BorrowContract.sol\":3475:3487  bool success */\n      0x00\n        /* \"DefiBorrow/BorrowContract.sol\":3501:3509  receiver */\n      dup2\n        /* \"DefiBorrow/BorrowContract.sol\":3493:3515  payable(receiver).call */\n      0xffffffffffffffffffffffffffffffffffffffff\n      and\n        /* \"DefiBorrow/BorrowContract.sol\":3523:3532  msg.value */\n      callvalue\n        /* \"DefiBorrow/BorrowContract.sol\":3493:3537  payable(receiver).call{value: msg.value}(\"\") */\n      mload(0x40)\n      tag_171\n      swap1\n      tag_172\n      jump\t// in\n    tag_171:\n      0x00\n      mload(0x40)\n      dup1\n      dup4\n      sub\n      dup2\n      dup6\n      dup8\n      gas\n      call\n      swap3\n      pop\n      pop\n      pop\n      returndatasize\n      dup1\n      0x00\n      dup2\n      eq\n      tag_175\n      jumpi\n      mload(0x40)\n      swap2\n      pop\n      and(add(returndatasize, 0x3f), not(0x1f))\n      dup3\n      add\n      0x40\n      mstore\n      returndatasize\n      dup3\n      mstore\n      returndatasize\n      0x00\n      0x20\n      dup5\n      add\n      returndatacopy\n      jump(tag_174)\n    tag_175:\n      0x60\n      swap2\n      pop\n    tag_174:\n      pop\n        /* \"DefiBorrow/BorrowContract.sol\":3474:3537  (bool success, ) = payable(receiver).call{value: msg.value}(\"\") */\n      pop\n      swap1\n      pop\n        /* \"DefiBorrow/BorrowContract.sol\":3556:3563  success */\n      dup1\n        /* \"DefiBorrow/BorrowContract.sol\":3548:3583  require(success, \"Transfer failed\") */\n      tag_176\n      jumpi\n      mload(0x40)\n      0x08c379a000000000000000000000000000000000000000000000000000000000\n      dup2\n      mstore\n      0x04\n      add\n      tag_177\n      swap1\n      tag_178\n      jump\t// in\n    tag_177:\n      mload(0x40)\n      dup1\n      swap2\n      sub\n      swap1\n      revert\n    tag_176:\n        /* \"DefiBorrow/BorrowContract.sol\":3621:3629  borrower */\n      0x02\n      0x00\n      swap1\n      sload\n      swap1\n      0x0100\n      exp\n      swap1\n      div\n      0xffffffffffffffffffffffffffffffffffffffff\n      and\n        /* \"DefiBorrow/BorrowContract.sol\":3601:3650  CollateralDeposited(borrower, msg.value, wantBTC) */\n      0xffffffffffffffffffffffffffffffffffffffff\n      and\n      0xfe671c76cdf692b140b5703c07cfb25d42ddaa92d6566df7d188db5acf436bc8\n        /* \"DefiBorrow/BorrowContract.sol\":3631:3640  msg.value */\n      callvalue\n        /* \"DefiBorrow/BorrowContract.sol\":3642:3649  wantBTC */\n      0x07\n      0x00\n      swap1\n      sload\n      swap1\n      0x0100\n      exp\n      swap1\n      div\n      0xff\n      and\n        /* \"DefiBorrow/BorrowContract.sol\":3601:3650  CollateralDeposited(borrower, msg.value, wantBTC) */\n      mload(0x40)\n      tag_179\n      swap3\n      swap2\n      swap1\n      tag_153\n      jump\t// in\n    tag_179:\n      mload(0x40)\n      dup1\n      swap2\n      sub\n      swap1\n      log2\n        /* \"DefiBorrow/BorrowContract.sol\":3303:3658  {... */\n      pop\n        /* \"DefiBorrow/BorrowContract.sol\":3217:3658  function depositCollateralETH(address receiver) external payable contractNotActivated {... */\n      pop\n      jump\t// out\n        /* \"DefiBorrow/BorrowContract.sol\":6039:6471  function repayLoanETH(address receiver) external contractActivated payable {... */\n    tag_80:\n        /* \"DefiBorrow/BorrowContract.sol\":10057:10066  activated */\n      0x07\n      0x01\n      swap1\n      sload\n      swap1\n      0x0100\n      exp\n      swap1\n      div\n      0xff\n      and\n        /* \"DefiBorrow/BorrowContract.sol\":10049:10122  require(activated, \"Can only be executed when the contract is activated\") */\n      tag_181\n      jumpi\n      mload(0x40)\n      0x08c379a000000000000000000000000000000000000000000000000000000000\n      dup2\n      mstore\n      0x04\n      add\n      tag_182\n      swap1\n      tag_127\n      jump\t// in\n    tag_182:\n      mload(0x40)\n      dup1\n      swap2\n      sub\n      swap1\n      revert\n    tag_181:\n        /* \"DefiBorrow/BorrowContract.sol\":6158:6178  totalRepaymentAmount */\n      sload(0x0b)\n        /* \"DefiBorrow/BorrowContract.sol\":6146:6153  1 ether */\n      0x0de0b6b3a7640000\n        /* \"DefiBorrow/BorrowContract.sol\":6134:6143  msg.value */\n      callvalue\n        /* \"DefiBorrow/BorrowContract.sol\":6134:6153  msg.value / 1 ether */\n      tag_184\n      swap2\n      swap1\n      tag_134\n      jump\t// in\n    tag_184:\n        /* \"DefiBorrow/BorrowContract.sol\":6133:6178  (msg.value / 1 ether) == totalRepaymentAmount */\n      eq\n        /* \"DefiBorrow/BorrowContract.sol\":6125:6213  require((msg.value / 1 ether) == totalRepaymentAmount, \"Incorrect ETH repayment amount\") */\n      tag_185\n      jumpi\n      mload(0x40)\n      0x08c379a000000000000000000000000000000000000000000000000000000000\n      dup2\n      mstore\n      0x04\n      add\n      tag_186\n      swap1\n      tag_187\n      jump\t// in\n    tag_186:\n      mload(0x40)\n      dup1\n      swap2\n      sub\n      swap1\n      revert\n    tag_185:\n        /* \"DefiBorrow/BorrowContract.sol\":6296:6308  bool success */\n      0x00\n        /* \"DefiBorrow/BorrowContract.sol\":6322:6330  receiver */\n      dup2\n        /* \"DefiBorrow/BorrowContract.sol\":6314:6336  payable(receiver).call */\n      0xffffffffffffffffffffffffffffffffffffffff\n      and\n        /* \"DefiBorrow/BorrowContract.sol\":6344:6353  msg.value */\n      callvalue\n        /* \"DefiBorrow/BorrowContract.sol\":6314:6358  payable(receiver).call{value: msg.value}(\"\") */\n      mload(0x40)\n      tag_188\n      swap1\n      tag_172\n      jump\t// in\n    tag_188:\n      0x00\n      mload(0x40)\n      dup1\n      dup4\n      sub\n      dup2\n      dup6\n      dup8\n      gas\n      call\n      swap3\n      pop\n      pop\n      pop\n      returndatasize\n      dup1\n      0x00\n      dup2\n      eq\n      tag_191\n      jumpi\n      mload(0x40)\n      swap2\n      pop\n      and(add(returndatasize, 0x3f), not(0x1f))\n      dup3\n      add\n      0x40\n      mstore\n      returndatasize\n      dup3\n      mstore\n      returndatasize\n      0x00\n      0x20\n      dup5\n      add\n      returndatacopy\n      jump(tag_190)\n    tag_191:\n      0x60\n      swap2\n      pop\n    tag_190:\n      pop\n        /* \"DefiBorrow/BorrowContract.sol\":6295:6358  (bool success, ) = payable(receiver).call{value: msg.value}(\"\") */\n      pop\n      swap1\n      pop\n        /* \"DefiBorrow/BorrowContract.sol\":6377:6384  success */\n      dup1\n        /* \"DefiBorrow/BorrowContract.sol\":6369:6404  require(success, \"Transfer failed\") */\n      tag_192\n      jumpi\n      mload(0x40)\n      0x08c379a000000000000000000000000000000000000000000000000000000000\n      dup2\n      mstore\n      0x04\n      add\n      tag_193\n      swap1\n      tag_178\n      jump\t// in\n    tag_193:\n      mload(0x40)\n      dup1\n      swap2\n      sub\n      swap1\n      revert\n    tag_192:\n        /* \"DefiBorrow/BorrowContract.sol\":6434:6442  borrower */\n      0x02\n      0x00\n      swap1\n      sload\n      swap1\n      0x0100\n      exp\n      swap1\n      div\n      0xffffffffffffffffffffffffffffffffffffffff\n      and\n        /* \"DefiBorrow/BorrowContract.sol\":6422:6463  LoanRepayed(borrower, msg.value, wantBTC) */\n      0xffffffffffffffffffffffffffffffffffffffff\n      and\n      0x16fa01357f6cb7df22aa7eb033e5c17d51df75a9b92f0f6885049c85d7d781d5\n        /* \"DefiBorrow/BorrowContract.sol\":6444:6453  msg.value */\n      callvalue\n        /* \"DefiBorrow/BorrowContract.sol\":6455:6462  wantBTC */\n      0x07\n      0x00\n      swap1\n      sload\n      swap1\n      0x0100\n      exp\n      swap1\n      div\n      0xff\n      and\n        /* \"DefiBorrow/BorrowContract.sol\":6422:6463  LoanRepayed(borrower, msg.value, wantBTC) */\n      mload(0x40)\n      tag_194\n      swap3\n      swap2\n      swap1\n      tag_153\n      jump\t// in\n    tag_194:\n      mload(0x40)\n      dup1\n      swap2\n      sub\n      swap1\n      log2\n        /* \"DefiBorrow/BorrowContract.sol\":6114:6471  {... */\n      pop\n        /* \"DefiBorrow/BorrowContract.sol\":6039:6471  function repayLoanETH(address receiver) external contractActivated payable {... */\n      pop\n      jump\t// out\n        /* \"DefiBorrow/BorrowContract.sol\":972:993  uint public startTime */\n    tag_83:\n      sload(0x09)\n      dup2\n      jump\t// out\n        /* \"DefiBorrow/BorrowContract.sol\":328:351  address public borrower */\n    tag_87:\n      0x02\n      0x00\n      swap1\n      sload\n      swap1\n      0x0100\n      exp\n      swap1\n      div\n      0xffffffffffffffffffffffffffffffffffffffff\n      and\n      dup2\n      jump\t// out\n        /* \"DefiBorrow/BorrowContract.sol\":644:673  uint public dailyInterestRate */\n    tag_91:\n      sload(0x06)\n      dup2\n      jump\t// out\n        /* \"DefiBorrow/BorrowContract.sol\":4513:4783  function activateContract() external restricted contractNotActivated{... */\n    tag_95:\n        /* \"DefiBorrow/BorrowContract.sol\":10496:10503  creator */\n      0x01\n      0x00\n      swap1\n      sload\n      swap1\n      0x0100\n      exp\n      swap1\n      div\n      0xffffffffffffffffffffffffffffffffffffffff\n      and\n        /* \"DefiBorrow/BorrowContract.sol\":10482:10503  msg.sender == creator */\n      0xffffffffffffffffffffffffffffffffffffffff\n      and\n        /* \"DefiBorrow/BorrowContract.sol\":10482:10492  msg.sender */\n      caller\n        /* \"DefiBorrow/BorrowContract.sol\":10482:10503  msg.sender == creator */\n      0xffffffffffffffffffffffffffffffffffffffff\n      and\n      eq\n        /* \"DefiBorrow/BorrowContract.sol\":10474:10552  require(msg.sender == creator, \"Can only be executed by the contract creator\") */\n      tag_196\n      jumpi\n      mload(0x40)\n      0x08c379a000000000000000000000000000000000000000000000000000000000\n      dup2\n      mstore\n      0x04\n      add\n      tag_197\n      swap1\n      tag_198\n      jump\t// in\n    tag_197:\n      mload(0x40)\n      dup1\n      swap2\n      sub\n      swap1\n      revert\n    tag_196:\n        /* \"DefiBorrow/BorrowContract.sol\":10283:10292  activated */\n      0x07\n      0x01\n      swap1\n      sload\n      swap1\n      0x0100\n      exp\n      swap1\n      div\n      0xff\n      and\n        /* \"DefiBorrow/BorrowContract.sol\":10282:10292  !activated */\n      iszero\n        /* \"DefiBorrow/BorrowContract.sol\":10274:10352  require(!activated, \"Can only be executed when the contract is not activated\") */\n      tag_200\n      jumpi\n      mload(0x40)\n      0x08c379a000000000000000000000000000000000000000000000000000000000\n      dup2\n      mstore\n      0x04\n      add\n      tag_201\n      swap1\n      tag_138\n      jump\t// in\n    tag_201:\n      mload(0x40)\n      dup1\n      swap2\n      sub\n      swap1\n      revert\n    tag_200:\n        /* \"DefiBorrow/BorrowContract.sol\":4604:4608  true */\n      0x01\n        /* \"DefiBorrow/BorrowContract.sol\":4592:4601  activated */\n      0x07\n      0x01\n        /* \"DefiBorrow/BorrowContract.sol\":4592:4608  activated = true */\n      0x0100\n      exp\n      dup2\n      sload\n      dup2\n      0xff\n      mul\n      not\n      and\n      swap1\n      dup4\n      iszero\n      iszero\n      mul\n      or\n      swap1\n      sstore\n      pop\n        /* \"DefiBorrow/BorrowContract.sol\":4631:4646  block.timestamp */\n      timestamp\n        /* \"DefiBorrow/BorrowContract.sol\":4619:4628  startTime */\n      0x09\n        /* \"DefiBorrow/BorrowContract.sol\":4619:4646  startTime = block.timestamp */\n      dup2\n      swap1\n      sstore\n      pop\n        /* \"DefiBorrow/BorrowContract.sol\":4672:4690  _getLoanDeadline() */\n      tag_203\n        /* \"DefiBorrow/BorrowContract.sol\":4672:4688  _getLoanDeadline */\n      tag_204\n        /* \"DefiBorrow/BorrowContract.sol\":4672:4690  _getLoanDeadline() */\n      jump\t// in\n    tag_203:\n        /* \"DefiBorrow/BorrowContract.sol\":4657:4669  loanDeadline */\n      0x0d\n        /* \"DefiBorrow/BorrowContract.sol\":4657:4690  loanDeadline = _getLoanDeadline() */\n      dup2\n      swap1\n      sstore\n      pop\n        /* \"DefiBorrow/BorrowContract.sol\":4706:4775  BorrowContractActivated(address(this), startTime, getRemainingDays()) */\n      0x089ebd6932f778a71ff463939ad23ae4577d4b0d691f94bd312ca29c15651d8d\n        /* \"DefiBorrow/BorrowContract.sol\":4738:4742  this */\n      address\n        /* \"DefiBorrow/BorrowContract.sol\":4745:4754  startTime */\n      sload(0x09)\n        /* \"DefiBorrow/BorrowContract.sol\":4756:4774  getRemainingDays() */\n      tag_205\n        /* \"DefiBorrow/BorrowContract.sol\":4756:4772  getRemainingDays */\n      tag_30\n        /* \"DefiBorrow/BorrowContract.sol\":4756:4774  getRemainingDays() */\n      jump\t// in\n    tag_205:\n        /* \"DefiBorrow/BorrowContract.sol\":4706:4775  BorrowContractActivated(address(this), startTime, getRemainingDays()) */\n      mload(0x40)\n      tag_206\n      swap4\n      swap3\n      swap2\n      swap1\n      tag_207\n      jump\t// in\n    tag_206:\n      mload(0x40)\n      dup1\n      swap2\n      sub\n      swap1\n      log1\n        /* \"DefiBorrow/BorrowContract.sol\":4513:4783  function activateContract() external restricted contractNotActivated{... */\n      jump\t// out\n        /* \"DefiBorrow/BorrowContract.sol\":447:478  uint256 public collateralAmount */\n    tag_98:\n      sload(0x04)\n      dup2\n      jump\t// out\n        /* \"DefiBorrow/BorrowContract.sol\":220:238  IERC20 public wBtc */\n    tag_102:\n      0x00\n      dup1\n      sload\n      swap1\n      0x0100\n      exp\n      swap1\n      div\n      0xffffffffffffffffffffffffffffffffffffffff\n      and\n      dup2\n      jump\t// out\n        /* \"DefiBorrow/BorrowContract.sol\":547:572  uint public btcInEthPrice */\n    tag_107:\n      sload(0x05)\n      dup2\n      jump\t// out\n        /* \"DefiBorrow/BorrowContract.sol\":6737:7182  function repayLoanBTC(address receiver, uint _wBtcRepayment) external contractActivated {... */\n    tag_112:\n        /* \"DefiBorrow/BorrowContract.sol\":10057:10066  activated */\n      0x07\n      0x01\n      swap1\n      sload\n      swap1\n      0x0100\n      exp\n      swap1\n      div\n      0xff\n      and\n        /* \"DefiBorrow/BorrowContract.sol\":10049:10122  require(activated, \"Can only be executed when the contract is activated\") */\n      tag_209\n      jumpi\n      mload(0x40)\n      0x08c379a000000000000000000000000000000000000000000000000000000000\n      dup2\n      mstore\n      0x04\n      add\n      tag_210\n      swap1\n      tag_127\n      jump\t// in\n    tag_210:\n      mload(0x40)\n      dup1\n      swap2\n      sub\n      swap1\n      revert\n    tag_209:\n        /* \"DefiBorrow/BorrowContract.sol\":6862:6878  collateralAmount */\n      sload(0x04)\n        /* \"DefiBorrow/BorrowContract.sol\":6844:6858  _wBtcRepayment */\n      dup2\n        /* \"DefiBorrow/BorrowContract.sol\":6844:6878  _wBtcRepayment == collateralAmount */\n      eq\n        /* \"DefiBorrow/BorrowContract.sol\":6836:6914  require(_wBtcRepayment == collateralAmount, \"Incorrect WBTC repayment amount\") */\n      tag_212\n      jumpi\n      mload(0x40)\n      0x08c379a000000000000000000000000000000000000000000000000000000000\n      dup2\n      mstore\n      0x04\n      add\n      tag_213\n      swap1\n      tag_214\n      jump\t// in\n    tag_213:\n      mload(0x40)\n      dup1\n      swap2\n      sub\n      swap1\n      revert\n    tag_212:\n        /* \"DefiBorrow/BorrowContract.sol\":7032:7036  wBtc */\n      0x00\n      dup1\n      sload\n      swap1\n      0x0100\n      exp\n      swap1\n      div\n      0xffffffffffffffffffffffffffffffffffffffff\n      and\n        /* \"DefiBorrow/BorrowContract.sol\":7032:7049  wBtc.transferFrom */\n      0xffffffffffffffffffffffffffffffffffffffff\n      and\n      0x23b872dd\n        /* \"DefiBorrow/BorrowContract.sol\":7050:7058  borrower */\n      0x02\n      0x00\n      swap1\n      sload\n      swap1\n      0x0100\n      exp\n      swap1\n      div\n      0xffffffffffffffffffffffffffffffffffffffff\n      and\n        /* \"DefiBorrow/BorrowContract.sol\":7060:7068  receiver */\n      dup5\n        /* \"DefiBorrow/BorrowContract.sol\":7070:7086  collateralAmount */\n      sload(0x04)\n        /* \"DefiBorrow/BorrowContract.sol\":7032:7087  wBtc.transferFrom(borrower, receiver, collateralAmount) */\n      mload(0x40)\n      dup5\n      0xffffffff\n      and\n      0xe0\n      shl\n      dup2\n      mstore\n      0x04\n      add\n      tag_215\n      swap4\n      swap3\n      swap2\n      swap1\n      tag_144\n      jump\t// in\n    tag_215:\n      0x20\n      mload(0x40)\n      dup1\n      dup4\n      sub\n      dup2\n      0x00\n      dup8\n      gas\n      call\n      iszero\n      dup1\n      iszero\n      tag_217\n      jumpi\n      returndatasize\n      0x00\n      dup1\n      returndatacopy\n      revert(0x00, returndatasize)\n    tag_217:\n      pop\n      pop\n      pop\n      pop\n      mload(0x40)\n      returndatasize\n      not(0x1f)\n      0x1f\n      dup3\n      add\n      and\n      dup3\n      add\n      dup1\n      0x40\n      mstore\n      pop\n      dup2\n      add\n      swap1\n      tag_218\n      swap2\n      swap1\n      tag_148\n      jump\t// in\n    tag_218:\n        /* \"DefiBorrow/BorrowContract.sol\":7024:7112  require(wBtc.transferFrom(borrower, receiver, collateralAmount), \"WBTC transfer failed\") */\n      tag_219\n      jumpi\n      mload(0x40)\n      0x08c379a000000000000000000000000000000000000000000000000000000000\n      dup2\n      mstore\n      0x04\n      add\n      tag_220\n      swap1\n      tag_151\n      jump\t// in\n    tag_220:\n      mload(0x40)\n      dup1\n      swap2\n      sub\n      swap1\n      revert\n    tag_219:\n        /* \"DefiBorrow/BorrowContract.sol\":7140:7148  borrower */\n      0x02\n      0x00\n      swap1\n      sload\n      swap1\n      0x0100\n      exp\n      swap1\n      div\n      0xffffffffffffffffffffffffffffffffffffffff\n      and\n        /* \"DefiBorrow/BorrowContract.sol\":7128:7174  LoanRepayed(borrower, _wBtcRepayment, wantBTC) */\n      0xffffffffffffffffffffffffffffffffffffffff\n      and\n      0x16fa01357f6cb7df22aa7eb033e5c17d51df75a9b92f0f6885049c85d7d781d5\n        /* \"DefiBorrow/BorrowContract.sol\":7150:7164  _wBtcRepayment */\n      dup3\n        /* \"DefiBorrow/BorrowContract.sol\":7166:7173  wantBTC */\n      0x07\n      0x00\n      swap1\n      sload\n      swap1\n      0x0100\n      exp\n      swap1\n      div\n      0xff\n      and\n        /* \"DefiBorrow/BorrowContract.sol\":7128:7174  LoanRepayed(borrower, _wBtcRepayment, wantBTC) */\n      mload(0x40)\n      tag_221\n      swap3\n      swap2\n      swap1\n      tag_153\n      jump\t// in\n    tag_221:\n      mload(0x40)\n      dup1\n      swap2\n      sub\n      swap1\n      log2\n        /* \"DefiBorrow/BorrowContract.sol\":6737:7182  function repayLoanBTC(address receiver, uint _wBtcRepayment) external contractActivated {... */\n      pop\n      pop\n      jump\t// out\n        /* \"DefiBorrow/BorrowContract.sol\":1045:1075  uint public loanDurationInDays */\n    tag_115:\n      sload(0x0a)\n      dup2\n      jump\t// out\n        /* \"DefiBorrow/BorrowContract.sol\":380:404  uint public borrowAmount */\n    tag_119:\n      sload(0x03)\n      dup2\n      jump\t// out\n        /* \"DefiBorrow/BorrowContract.sol\":4912:5113  function deactivateContract() external contractActivated restricted {... */\n    tag_123:\n        /* \"DefiBorrow/BorrowContract.sol\":10057:10066  activated */\n      0x07\n      0x01\n      swap1\n      sload\n      swap1\n      0x0100\n      exp\n      swap1\n      div\n      0xff\n      and\n        /* \"DefiBorrow/BorrowContract.sol\":10049:10122  require(activated, \"Can only be executed when the contract is activated\") */\n      tag_223\n      jumpi\n      mload(0x40)\n      0x08c379a000000000000000000000000000000000000000000000000000000000\n      dup2\n      mstore\n      0x04\n      add\n      tag_224\n      swap1\n      tag_127\n      jump\t// in\n    tag_224:\n      mload(0x40)\n      dup1\n      swap2\n      sub\n      swap1\n      revert\n    tag_223:\n        /* \"DefiBorrow/BorrowContract.sol\":10496:10503  creator */\n      0x01\n      0x00\n      swap1\n      sload\n      swap1\n      0x0100\n      exp\n      swap1\n      div\n      0xffffffffffffffffffffffffffffffffffffffff\n      and\n        /* \"DefiBorrow/BorrowContract.sol\":10482:10503  msg.sender == creator */\n      0xffffffffffffffffffffffffffffffffffffffff\n      and\n        /* \"DefiBorrow/BorrowContract.sol\":10482:10492  msg.sender */\n      caller\n        /* \"DefiBorrow/BorrowContract.sol\":10482:10503  msg.sender == creator */\n      0xffffffffffffffffffffffffffffffffffffffff\n      and\n      eq\n        /* \"DefiBorrow/BorrowContract.sol\":10474:10552  require(msg.sender == creator, \"Can only be executed by the contract creator\") */\n      tag_226\n      jumpi\n      mload(0x40)\n      0x08c379a000000000000000000000000000000000000000000000000000000000\n      dup2\n      mstore\n      0x04\n      add\n      tag_227\n      swap1\n      tag_198\n      jump\t// in\n    tag_227:\n      mload(0x40)\n      dup1\n      swap2\n      sub\n      swap1\n      revert\n    tag_226:\n        /* \"DefiBorrow/BorrowContract.sol\":5013:5020  creator */\n      0x01\n      0x00\n      swap1\n      sload\n      swap1\n      0x0100\n      exp\n      swap1\n      div\n      0xffffffffffffffffffffffffffffffffffffffff\n      and\n        /* \"DefiBorrow/BorrowContract.sol\":4999:5020  msg.sender == creator */\n      0xffffffffffffffffffffffffffffffffffffffff\n      and\n        /* \"DefiBorrow/BorrowContract.sol\":4999:5009  msg.sender */\n      caller\n        /* \"DefiBorrow/BorrowContract.sol\":4999:5020  msg.sender == creator */\n      0xffffffffffffffffffffffffffffffffffffffff\n      and\n      eq\n        /* \"DefiBorrow/BorrowContract.sol\":4991:5021  require(msg.sender == creator) */\n      tag_229\n      jumpi\n      0x00\n      dup1\n      revert\n    tag_229:\n        /* \"DefiBorrow/BorrowContract.sol\":5044:5049  false */\n      0x00\n        /* \"DefiBorrow/BorrowContract.sol\":5032:5041  activated */\n      0x07\n      0x01\n        /* \"DefiBorrow/BorrowContract.sol\":5032:5049  activated = false */\n      0x0100\n      exp\n      dup2\n      sload\n      dup2\n      0xff\n      mul\n      not\n      and\n      swap1\n      dup4\n      iszero\n      iszero\n      mul\n      or\n      swap1\n      sstore\n      pop\n        /* \"DefiBorrow/BorrowContract.sol\":5065:5105  BorrowContractDeactivated(address(this)) */\n      0x61b91cdb2d6b23bfe07da2bfba40f5f008499a45667b5df6af0f7389d46cce8c\n        /* \"DefiBorrow/BorrowContract.sol\":5099:5103  this */\n      address\n        /* \"DefiBorrow/BorrowContract.sol\":5065:5105  BorrowContractDeactivated(address(this)) */\n      mload(0x40)\n      tag_230\n      swap2\n      swap1\n      tag_37\n      jump\t// in\n    tag_230:\n      mload(0x40)\n      dup1\n      swap2\n      sub\n      swap1\n      log1\n        /* \"DefiBorrow/BorrowContract.sol\":4912:5113  function deactivateContract() external contractActivated restricted {... */\n      jump\t// out\n        /* \"DefiBorrow/BorrowContract.sol\":9340:9685  function _calculateTotalRepaymentAmount(uint loanAmount, uint _days) private view contractActivated returns (uint) {... */\n    tag_161:\n        /* \"DefiBorrow/BorrowContract.sol\":9449:9453  uint */\n      0x00\n        /* \"DefiBorrow/BorrowContract.sol\":10057:10066  activated */\n      0x07\n      0x01\n      swap1\n      sload\n      swap1\n      0x0100\n      exp\n      swap1\n      div\n      0xff\n      and\n        /* \"DefiBorrow/BorrowContract.sol\":10049:10122  require(activated, \"Can only be executed when the contract is activated\") */\n      tag_232\n      jumpi\n      mload(0x40)\n      0x08c379a000000000000000000000000000000000000000000000000000000000\n      dup2\n      mstore\n      0x04\n      add\n      tag_233\n      swap1\n      tag_127\n      jump\t// in\n    tag_233:\n      mload(0x40)\n      dup1\n      swap2\n      sub\n      swap1\n      revert\n    tag_232:\n        /* \"DefiBorrow/BorrowContract.sol\":9521:9551  uint compoundInterest7Decimals */\n      0x00\n        /* \"DefiBorrow/BorrowContract.sol\":9554:9598  _calculateInterest(_days, dailyInterestRate) */\n      tag_235\n        /* \"DefiBorrow/BorrowContract.sol\":9573:9578  _days */\n      dup4\n        /* \"DefiBorrow/BorrowContract.sol\":9580:9597  dailyInterestRate */\n      sload(0x06)\n        /* \"DefiBorrow/BorrowContract.sol\":9554:9572  _calculateInterest */\n      tag_236\n        /* \"DefiBorrow/BorrowContract.sol\":9554:9598  _calculateInterest(_days, dailyInterestRate) */\n      jump\t// in\n    tag_235:\n        /* \"DefiBorrow/BorrowContract.sol\":9521:9598  uint compoundInterest7Decimals = _calculateInterest(_days, dailyInterestRate) */\n      swap1\n      pop\n        /* \"DefiBorrow/BorrowContract.sol\":9667:9677  loanAmount */\n      dup4\n        /* \"DefiBorrow/BorrowContract.sol\":9659:9664  10**7 */\n      0x989680\n        /* \"DefiBorrow/BorrowContract.sol\":9630:9655  compoundInterest7Decimals */\n      dup3\n        /* \"DefiBorrow/BorrowContract.sol\":9617:9627  loanAmount */\n      dup7\n        /* \"DefiBorrow/BorrowContract.sol\":9617:9655  loanAmount * compoundInterest7Decimals */\n      tag_237\n      swap2\n      swap1\n      tag_238\n      jump\t// in\n    tag_237:\n        /* \"DefiBorrow/BorrowContract.sol\":9616:9664  (loanAmount * compoundInterest7Decimals) / 10**7 */\n      tag_239\n      swap2\n      swap1\n      tag_134\n      jump\t// in\n    tag_239:\n        /* \"DefiBorrow/BorrowContract.sol\":9616:9677  (loanAmount * compoundInterest7Decimals) / 10**7 + loanAmount */\n      tag_240\n      swap2\n      swap1\n      tag_241\n      jump\t// in\n    tag_240:\n        /* \"DefiBorrow/BorrowContract.sol\":9609:9677  return (loanAmount * compoundInterest7Decimals) / 10**7 + loanAmount */\n      swap2\n      pop\n      pop\n        /* \"DefiBorrow/BorrowContract.sol\":9340:9685  function _calculateTotalRepaymentAmount(uint loanAmount, uint _days) private view contractActivated returns (uint) {... */\n      swap3\n      swap2\n      pop\n      pop\n      jump\t// out\n        /* \"DefiBorrow/BorrowContract.sol\":9815:9928  function _getLoanDeadline() private view returns (uint) {... */\n    tag_204:\n        /* \"DefiBorrow/BorrowContract.sol\":9865:9869  uint */\n      0x00\n        /* \"DefiBorrow/BorrowContract.sol\":9913:9919  1 days */\n      0x015180\n        /* \"DefiBorrow/BorrowContract.sol\":9902:9910  loanTerm */\n      sload(0x08)\n        /* \"DefiBorrow/BorrowContract.sol\":9902:9919  loanTerm * 1 days */\n      tag_243\n      swap2\n      swap1\n      tag_238\n      jump\t// in\n    tag_243:\n        /* \"DefiBorrow/BorrowContract.sol\":9889:9898  startTime */\n      sload(0x09)\n        /* \"DefiBorrow/BorrowContract.sol\":9889:9920  startTime + (loanTerm * 1 days) */\n      tag_244\n      swap2\n      swap1\n      tag_241\n      jump\t// in\n    tag_244:\n        /* \"DefiBorrow/BorrowContract.sol\":9882:9920  return startTime + (loanTerm * 1 days) */\n      swap1\n      pop\n        /* \"DefiBorrow/BorrowContract.sol\":9815:9928  function _getLoanDeadline() private view returns (uint) {... */\n      swap1\n      jump\t// out\n        /* \"DefiBorrow/BorrowContract.sol\":8066:8982  function _calculateInterest(uint _days, uint dailyRate) private view contractActivated returns (uint) {... */\n    tag_236:\n        /* \"DefiBorrow/BorrowContract.sol\":8162:8166  uint */\n      0x00\n        /* \"DefiBorrow/BorrowContract.sol\":10057:10066  activated */\n      0x07\n      0x01\n      swap1\n      sload\n      swap1\n      0x0100\n      exp\n      swap1\n      div\n      0xff\n      and\n        /* \"DefiBorrow/BorrowContract.sol\":10049:10122  require(activated, \"Can only be executed when the contract is activated\") */\n      tag_246\n      jumpi\n      mload(0x40)\n      0x08c379a000000000000000000000000000000000000000000000000000000000\n      dup2\n      mstore\n      0x04\n      add\n      tag_247\n      swap1\n      tag_127\n      jump\t// in\n    tag_247:\n      mload(0x40)\n      dup1\n      swap2\n      sub\n      swap1\n      revert\n    tag_246:\n        /* \"DefiBorrow/BorrowContract.sol\":8275:8294  uint compoundFactor */\n      0x00\n        /* \"DefiBorrow/BorrowContract.sol\":8305:8314  dailyRate */\n      dup3\n        /* \"DefiBorrow/BorrowContract.sol\":8297:8302  10**7 */\n      0x989680\n        /* \"DefiBorrow/BorrowContract.sol\":8297:8314  10**7 + dailyRate */\n      tag_249\n      swap2\n      swap1\n      tag_241\n      jump\t// in\n    tag_249:\n        /* \"DefiBorrow/BorrowContract.sol\":8275:8314  uint compoundFactor = 10**7 + dailyRate */\n      swap1\n      pop\n        /* \"DefiBorrow/BorrowContract.sol\":8409:8433  uint256 compoundInterest */\n      0x00\n        /* \"DefiBorrow/BorrowContract.sol\":8436:8441  10**7 */\n      0x989680\n        /* \"DefiBorrow/BorrowContract.sol\":8409:8441  uint256 compoundInterest = 10**7 */\n      swap1\n      pop\n        /* \"DefiBorrow/BorrowContract.sol\":8453:8474  uint compoundExponent */\n      0x00\n        /* \"DefiBorrow/BorrowContract.sol\":8477:8482  _days */\n      dup6\n        /* \"DefiBorrow/BorrowContract.sol\":8453:8482  uint compoundExponent = _days */\n      swap1\n      pop\n        /* \"DefiBorrow/BorrowContract.sol\":8493:8941  while (compoundExponent > 0) {... */\n    tag_250:\n        /* \"DefiBorrow/BorrowContract.sol\":8519:8520  0 */\n      0x00\n        /* \"DefiBorrow/BorrowContract.sol\":8500:8516  compoundExponent */\n      dup2\n        /* \"DefiBorrow/BorrowContract.sol\":8500:8520  compoundExponent > 0 */\n      gt\n        /* \"DefiBorrow/BorrowContract.sol\":8493:8941  while (compoundExponent > 0) {... */\n      iszero\n      tag_251\n      jumpi\n        /* \"DefiBorrow/BorrowContract.sol\":8640:8641  1 */\n      0x01\n        /* \"DefiBorrow/BorrowContract.sol\":8635:8636  2 */\n      0x02\n        /* \"DefiBorrow/BorrowContract.sol\":8616:8632  compoundExponent */\n      dup3\n        /* \"DefiBorrow/BorrowContract.sol\":8616:8636  compoundExponent % 2 */\n      tag_252\n      swap2\n      swap1\n      tag_253\n      jump\t// in\n    tag_252:\n        /* \"DefiBorrow/BorrowContract.sol\":8616:8641  compoundExponent % 2 == 1 */\n      sub\n        /* \"DefiBorrow/BorrowContract.sol\":8612:8740  if (compoundExponent % 2 == 1) {... */\n      tag_254\n      jumpi\n        /* \"DefiBorrow/BorrowContract.sol\":8719:8724  10**7 */\n      0x989680\n        /* \"DefiBorrow/BorrowContract.sol\":8701:8715  compoundFactor */\n      dup4\n        /* \"DefiBorrow/BorrowContract.sol\":8682:8698  compoundInterest */\n      dup4\n        /* \"DefiBorrow/BorrowContract.sol\":8682:8715  compoundInterest * compoundFactor */\n      tag_255\n      swap2\n      swap1\n      tag_238\n      jump\t// in\n    tag_255:\n        /* \"DefiBorrow/BorrowContract.sol\":8681:8724  (compoundInterest * compoundFactor) / 10**7 */\n      tag_256\n      swap2\n      swap1\n      tag_134\n      jump\t// in\n    tag_256:\n        /* \"DefiBorrow/BorrowContract.sol\":8662:8724  compoundInterest = (compoundInterest * compoundFactor) / 10**7 */\n      swap2\n      pop\n        /* \"DefiBorrow/BorrowContract.sol\":8612:8740  if (compoundExponent % 2 == 1) {... */\n    tag_254:\n        /* \"DefiBorrow/BorrowContract.sol\":8835:8840  10**7 */\n      0x989680\n        /* \"DefiBorrow/BorrowContract.sol\":8817:8831  compoundFactor */\n      dup4\n        /* \"DefiBorrow/BorrowContract.sol\":8800:8814  compoundFactor */\n      dup5\n        /* \"DefiBorrow/BorrowContract.sol\":8800:8831  compoundFactor * compoundFactor */\n      tag_257\n      swap2\n      swap1\n      tag_238\n      jump\t// in\n    tag_257:\n        /* \"DefiBorrow/BorrowContract.sol\":8799:8840  (compoundFactor * compoundFactor) / 10**7 */\n      tag_258\n      swap2\n      swap1\n      tag_134\n      jump\t// in\n    tag_258:\n        /* \"DefiBorrow/BorrowContract.sol\":8782:8840  compoundFactor = (compoundFactor * compoundFactor) / 10**7 */\n      swap3\n      pop\n        /* \"DefiBorrow/BorrowContract.sol\":8928:8929  2 */\n      0x02\n        /* \"DefiBorrow/BorrowContract.sol\":8908:8929  compoundExponent /= 2 */\n      dup2\n      tag_259\n      swap2\n      swap1\n      tag_134\n      jump\t// in\n    tag_259:\n      swap1\n      pop\n        /* \"DefiBorrow/BorrowContract.sol\":8493:8941  while (compoundExponent > 0) {... */\n      jump(tag_250)\n    tag_251:\n        /* \"DefiBorrow/BorrowContract.sol\":8958:8974  compoundInterest */\n      dup2\n        /* \"DefiBorrow/BorrowContract.sol\":8951:8974  return compoundInterest */\n      swap4\n      pop\n      pop\n      pop\n      pop\n        /* \"DefiBorrow/BorrowContract.sol\":8066:8982  function _calculateInterest(uint _days, uint dailyRate) private view contractActivated returns (uint) {... */\n      swap3\n      swap2\n      pop\n      pop\n      jump\t// out\n        /* \"#utility.yul\":7:84   */\n    tag_260:\n        /* \"#utility.yul\":44:51   */\n      0x00\n        /* \"#utility.yul\":73:78   */\n      dup2\n        /* \"#utility.yul\":62:78   */\n      swap1\n      pop\n        /* \"#utility.yul\":7:84   */\n      swap2\n      swap1\n      pop\n      jump\t// out\n        /* \"#utility.yul\":90:208   */\n    tag_261:\n        /* \"#utility.yul\":177:201   */\n      tag_308\n        /* \"#utility.yul\":195:200   */\n      dup2\n        /* \"#utility.yul\":177:201   */\n      tag_260\n      jump\t// in\n    tag_308:\n        /* \"#utility.yul\":172:175   */\n      dup3\n        /* \"#utility.yul\":165:202   */\n      mstore\n        /* \"#utility.yul\":90:208   */\n      pop\n      pop\n      jump\t// out\n        /* \"#utility.yul\":214:436   */\n    tag_32:\n        /* \"#utility.yul\":307:311   */\n      0x00\n        /* \"#utility.yul\":345:347   */\n      0x20\n        /* \"#utility.yul\":334:343   */\n      dup3\n        /* \"#utility.yul\":330:348   */\n      add\n        /* \"#utility.yul\":322:348   */\n      swap1\n      pop\n        /* \"#utility.yul\":358:429   */\n      tag_310\n        /* \"#utility.yul\":426:427   */\n      0x00\n        /* \"#utility.yul\":415:424   */\n      dup4\n        /* \"#utility.yul\":411:428   */\n      add\n        /* \"#utility.yul\":402:408   */\n      dup5\n        /* \"#utility.yul\":358:429   */\n      tag_261\n      jump\t// in\n    tag_310:\n        /* \"#utility.yul\":214:436   */\n      swap3\n      swap2\n      pop\n      pop\n      jump\t// out\n        /* \"#utility.yul\":442:568   */\n    tag_262:\n        /* \"#utility.yul\":479:486   */\n      0x00\n        /* \"#utility.yul\":519:561   */\n      0xffffffffffffffffffffffffffffffffffffffff\n        /* \"#utility.yul\":512:517   */\n      dup3\n        /* \"#utility.yul\":508:562   */\n      and\n        /* \"#utility.yul\":497:562   */\n      swap1\n      pop\n        /* \"#utility.yul\":442:568   */\n      swap2\n      swap1\n      pop\n      jump\t// out\n        /* \"#utility.yul\":574:670   */\n    tag_263:\n        /* \"#utility.yul\":611:618   */\n      0x00\n        /* \"#utility.yul\":640:664   */\n      tag_313\n        /* \"#utility.yul\":658:663   */\n      dup3\n        /* \"#utility.yul\":640:664   */\n      tag_262\n      jump\t// in\n    tag_313:\n        /* \"#utility.yul\":629:664   */\n      swap1\n      pop\n        /* \"#utility.yul\":574:670   */\n      swap2\n      swap1\n      pop\n      jump\t// out\n        /* \"#utility.yul\":676:794   */\n    tag_264:\n        /* \"#utility.yul\":763:787   */\n      tag_315\n        /* \"#utility.yul\":781:786   */\n      dup2\n        /* \"#utility.yul\":763:787   */\n      tag_263\n      jump\t// in\n    tag_315:\n        /* \"#utility.yul\":758:761   */\n      dup3\n        /* \"#utility.yul\":751:788   */\n      mstore\n        /* \"#utility.yul\":676:794   */\n      pop\n      pop\n      jump\t// out\n        /* \"#utility.yul\":800:1022   */\n    tag_37:\n        /* \"#utility.yul\":893:897   */\n      0x00\n        /* \"#utility.yul\":931:933   */\n      0x20\n        /* \"#utility.yul\":920:929   */\n      dup3\n        /* \"#utility.yul\":916:934   */\n      add\n        /* \"#utility.yul\":908:934   */\n      swap1\n      pop\n        /* \"#utility.yul\":944:1015   */\n      tag_317\n        /* \"#utility.yul\":1012:1013   */\n      0x00\n        /* \"#utility.yul\":1001:1010   */\n      dup4\n        /* \"#utility.yul\":997:1014   */\n      add\n        /* \"#utility.yul\":988:994   */\n      dup5\n        /* \"#utility.yul\":944:1015   */\n      tag_264\n      jump\t// in\n    tag_317:\n        /* \"#utility.yul\":800:1022   */\n      swap3\n      swap2\n      pop\n      pop\n      jump\t// out\n        /* \"#utility.yul\":1028:1118   */\n    tag_265:\n        /* \"#utility.yul\":1062:1069   */\n      0x00\n        /* \"#utility.yul\":1105:1110   */\n      dup2\n        /* \"#utility.yul\":1098:1111   */\n      iszero\n        /* \"#utility.yul\":1091:1112   */\n      iszero\n        /* \"#utility.yul\":1080:1112   */\n      swap1\n      pop\n        /* \"#utility.yul\":1028:1118   */\n      swap2\n      swap1\n      pop\n      jump\t// out\n        /* \"#utility.yul\":1124:1233   */\n    tag_266:\n        /* \"#utility.yul\":1205:1226   */\n      tag_320\n        /* \"#utility.yul\":1220:1225   */\n      dup2\n        /* \"#utility.yul\":1205:1226   */\n      tag_265\n      jump\t// in\n    tag_320:\n        /* \"#utility.yul\":1200:1203   */\n      dup3\n        /* \"#utility.yul\":1193:1227   */\n      mstore\n        /* \"#utility.yul\":1124:1233   */\n      pop\n      pop\n      jump\t// out\n        /* \"#utility.yul\":1239:1449   */\n    tag_42:\n        /* \"#utility.yul\":1326:1330   */\n      0x00\n        /* \"#utility.yul\":1364:1366   */\n      0x20\n        /* \"#utility.yul\":1353:1362   */\n      dup3\n        /* \"#utility.yul\":1349:1367   */\n      add\n        /* \"#utility.yul\":1341:1367   */\n      swap1\n      pop\n        /* \"#utility.yul\":1377:1442   */\n      tag_322\n        /* \"#utility.yul\":1439:1440   */\n      0x00\n        /* \"#utility.yul\":1428:1437   */\n      dup4\n        /* \"#utility.yul\":1424:1441   */\n      add\n        /* \"#utility.yul\":1415:1421   */\n      dup5\n        /* \"#utility.yul\":1377:1442   */\n      tag_266\n      jump\t// in\n    tag_322:\n        /* \"#utility.yul\":1239:1449   */\n      swap3\n      swap2\n      pop\n      pop\n      jump\t// out\n        /* \"#utility.yul\":1536:1653   */\n    tag_268:\n        /* \"#utility.yul\":1645:1646   */\n      0x00\n        /* \"#utility.yul\":1642:1643   */\n      dup1\n        /* \"#utility.yul\":1635:1647   */\n      revert\n        /* \"#utility.yul\":1782:1904   */\n    tag_270:\n        /* \"#utility.yul\":1855:1879   */\n      tag_327\n        /* \"#utility.yul\":1873:1878   */\n      dup2\n        /* \"#utility.yul\":1855:1879   */\n      tag_263\n      jump\t// in\n    tag_327:\n        /* \"#utility.yul\":1848:1853   */\n      dup2\n        /* \"#utility.yul\":1845:1880   */\n      eq\n        /* \"#utility.yul\":1835:1898   */\n      tag_328\n      jumpi\n        /* \"#utility.yul\":1894:1895   */\n      0x00\n        /* \"#utility.yul\":1891:1892   */\n      dup1\n        /* \"#utility.yul\":1884:1896   */\n      revert\n        /* \"#utility.yul\":1835:1898   */\n    tag_328:\n        /* \"#utility.yul\":1782:1904   */\n      pop\n      jump\t// out\n        /* \"#utility.yul\":1910:2049   */\n    tag_271:\n        /* \"#utility.yul\":1956:1961   */\n      0x00\n        /* \"#utility.yul\":1994:2000   */\n      dup2\n        /* \"#utility.yul\":1981:2001   */\n      calldataload\n        /* \"#utility.yul\":1972:2001   */\n      swap1\n      pop\n        /* \"#utility.yul\":2010:2043   */\n      tag_330\n        /* \"#utility.yul\":2037:2042   */\n      dup2\n        /* \"#utility.yul\":2010:2043   */\n      tag_270\n      jump\t// in\n    tag_330:\n        /* \"#utility.yul\":1910:2049   */\n      swap3\n      swap2\n      pop\n      pop\n      jump\t// out\n        /* \"#utility.yul\":2055:2177   */\n    tag_272:\n        /* \"#utility.yul\":2128:2152   */\n      tag_332\n        /* \"#utility.yul\":2146:2151   */\n      dup2\n        /* \"#utility.yul\":2128:2152   */\n      tag_260\n      jump\t// in\n    tag_332:\n        /* \"#utility.yul\":2121:2126   */\n      dup2\n        /* \"#utility.yul\":2118:2153   */\n      eq\n        /* \"#utility.yul\":2108:2171   */\n      tag_333\n      jumpi\n        /* \"#utility.yul\":2167:2168   */\n      0x00\n        /* \"#utility.yul\":2164:2165   */\n      dup1\n        /* \"#utility.yul\":2157:2169   */\n      revert\n        /* \"#utility.yul\":2108:2171   */\n    tag_333:\n        /* \"#utility.yul\":2055:2177   */\n      pop\n      jump\t// out\n        /* \"#utility.yul\":2183:2322   */\n    tag_273:\n        /* \"#utility.yul\":2229:2234   */\n      0x00\n        /* \"#utility.yul\":2267:2273   */\n      dup2\n        /* \"#utility.yul\":2254:2274   */\n      calldataload\n        /* \"#utility.yul\":2245:2274   */\n      swap1\n      pop\n        /* \"#utility.yul\":2283:2316   */\n      tag_335\n        /* \"#utility.yul\":2310:2315   */\n      dup2\n        /* \"#utility.yul\":2283:2316   */\n      tag_272\n      jump\t// in\n    tag_335:\n        /* \"#utility.yul\":2183:2322   */\n      swap3\n      swap2\n      pop\n      pop\n      jump\t// out\n        /* \"#utility.yul\":2328:2802   */\n    tag_54:\n        /* \"#utility.yul\":2396:2402   */\n      0x00\n        /* \"#utility.yul\":2404:2410   */\n      dup1\n        /* \"#utility.yul\":2453:2455   */\n      0x40\n        /* \"#utility.yul\":2441:2450   */\n      dup4\n        /* \"#utility.yul\":2432:2439   */\n      dup6\n        /* \"#utility.yul\":2428:2451   */\n      sub\n        /* \"#utility.yul\":2424:2456   */\n      slt\n        /* \"#utility.yul\":2421:2540   */\n      iszero\n      tag_337\n      jumpi\n        /* \"#utility.yul\":2459:2538   */\n      tag_338\n      tag_268\n      jump\t// in\n    tag_338:\n        /* \"#utility.yul\":2421:2540   */\n    tag_337:\n        /* \"#utility.yul\":2579:2580   */\n      0x00\n        /* \"#utility.yul\":2604:2657   */\n      tag_339\n        /* \"#utility.yul\":2649:2656   */\n      dup6\n        /* \"#utility.yul\":2640:2646   */\n      dup3\n        /* \"#utility.yul\":2629:2638   */\n      dup7\n        /* \"#utility.yul\":2625:2647   */\n      add\n        /* \"#utility.yul\":2604:2657   */\n      tag_271\n      jump\t// in\n    tag_339:\n        /* \"#utility.yul\":2594:2657   */\n      swap3\n      pop\n        /* \"#utility.yul\":2550:2667   */\n      pop\n        /* \"#utility.yul\":2706:2708   */\n      0x20\n        /* \"#utility.yul\":2732:2785   */\n      tag_340\n        /* \"#utility.yul\":2777:2784   */\n      dup6\n        /* \"#utility.yul\":2768:2774   */\n      dup3\n        /* \"#utility.yul\":2757:2766   */\n      dup7\n        /* \"#utility.yul\":2753:2775   */\n      add\n        /* \"#utility.yul\":2732:2785   */\n      tag_273\n      jump\t// in\n    tag_340:\n        /* \"#utility.yul\":2722:2785   */\n      swap2\n      pop\n        /* \"#utility.yul\":2677:2795   */\n      pop\n        /* \"#utility.yul\":2328:2802   */\n      swap3\n      pop\n      swap3\n      swap1\n      pop\n      jump\t// out\n        /* \"#utility.yul\":2808:3137   */\n    tag_67:\n        /* \"#utility.yul\":2867:2873   */\n      0x00\n        /* \"#utility.yul\":2916:2918   */\n      0x20\n        /* \"#utility.yul\":2904:2913   */\n      dup3\n        /* \"#utility.yul\":2895:2902   */\n      dup5\n        /* \"#utility.yul\":2891:2914   */\n      sub\n        /* \"#utility.yul\":2887:2919   */\n      slt\n        /* \"#utility.yul\":2884:3003   */\n      iszero\n      tag_342\n      jumpi\n        /* \"#utility.yul\":2922:3001   */\n      tag_343\n      tag_268\n      jump\t// in\n    tag_343:\n        /* \"#utility.yul\":2884:3003   */\n    tag_342:\n        /* \"#utility.yul\":3042:3043   */\n      0x00\n        /* \"#utility.yul\":3067:3120   */\n      tag_344\n        /* \"#utility.yul\":3112:3119   */\n      dup5\n        /* \"#utility.yul\":3103:3109   */\n      dup3\n        /* \"#utility.yul\":3092:3101   */\n      dup6\n        /* \"#utility.yul\":3088:3110   */\n      add\n        /* \"#utility.yul\":3067:3120   */\n      tag_273\n      jump\t// in\n    tag_344:\n        /* \"#utility.yul\":3057:3120   */\n      swap2\n      pop\n        /* \"#utility.yul\":3013:3130   */\n      pop\n        /* \"#utility.yul\":2808:3137   */\n      swap3\n      swap2\n      pop\n      pop\n      jump\t// out\n        /* \"#utility.yul\":3143:3472   */\n    tag_76:\n        /* \"#utility.yul\":3202:3208   */\n      0x00\n        /* \"#utility.yul\":3251:3253   */\n      0x20\n        /* \"#utility.yul\":3239:3248   */\n      dup3\n        /* \"#utility.yul\":3230:3237   */\n      dup5\n        /* \"#utility.yul\":3226:3249   */\n      sub\n        /* \"#utility.yul\":3222:3254   */\n      slt\n        /* \"#utility.yul\":3219:3338   */\n      iszero\n      tag_346\n      jumpi\n        /* \"#utility.yul\":3257:3336   */\n      tag_347\n      tag_268\n      jump\t// in\n    tag_347:\n        /* \"#utility.yul\":3219:3338   */\n    tag_346:\n        /* \"#utility.yul\":3377:3378   */\n      0x00\n        /* \"#utility.yul\":3402:3455   */\n      tag_348\n        /* \"#utility.yul\":3447:3454   */\n      dup5\n        /* \"#utility.yul\":3438:3444   */\n      dup3\n        /* \"#utility.yul\":3427:3436   */\n      dup6\n        /* \"#utility.yul\":3423:3445   */\n      add\n        /* \"#utility.yul\":3402:3455   */\n      tag_271\n      jump\t// in\n    tag_348:\n        /* \"#utility.yul\":3392:3455   */\n      swap2\n      pop\n        /* \"#utility.yul\":3348:3465   */\n      pop\n        /* \"#utility.yul\":3143:3472   */\n      swap3\n      swap2\n      pop\n      pop\n      jump\t// out\n        /* \"#utility.yul\":3478:3538   */\n    tag_274:\n        /* \"#utility.yul\":3506:3509   */\n      0x00\n        /* \"#utility.yul\":3527:3532   */\n      dup2\n        /* \"#utility.yul\":3520:3532   */\n      swap1\n      pop\n        /* \"#utility.yul\":3478:3538   */\n      swap2\n      swap1\n      pop\n      jump\t// out\n        /* \"#utility.yul\":3544:3686   */\n    tag_275:\n        /* \"#utility.yul\":3594:3603   */\n      0x00\n        /* \"#utility.yul\":3627:3680   */\n      tag_351\n        /* \"#utility.yul\":3645:3679   */\n      tag_352\n        /* \"#utility.yul\":3654:3678   */\n      tag_353\n        /* \"#utility.yul\":3672:3677   */\n      dup5\n        /* \"#utility.yul\":3654:3678   */\n      tag_262\n      jump\t// in\n    tag_353:\n        /* \"#utility.yul\":3645:3679   */\n      tag_274\n      jump\t// in\n    tag_352:\n        /* \"#utility.yul\":3627:3680   */\n      tag_262\n      jump\t// in\n    tag_351:\n        /* \"#utility.yul\":3614:3680   */\n      swap1\n      pop\n        /* \"#utility.yul\":3544:3686   */\n      swap2\n      swap1\n      pop\n      jump\t// out\n        /* \"#utility.yul\":3692:3818   */\n    tag_276:\n        /* \"#utility.yul\":3742:3751   */\n      0x00\n        /* \"#utility.yul\":3775:3812   */\n      tag_355\n        /* \"#utility.yul\":3806:3811   */\n      dup3\n        /* \"#utility.yul\":3775:3812   */\n      tag_275\n      jump\t// in\n    tag_355:\n        /* \"#utility.yul\":3762:3812   */\n      swap1\n      pop\n        /* \"#utility.yul\":3692:3818   */\n      swap2\n      swap1\n      pop\n      jump\t// out\n        /* \"#utility.yul\":3824:3963   */\n    tag_277:\n        /* \"#utility.yul\":3887:3896   */\n      0x00\n        /* \"#utility.yul\":3920:3957   */\n      tag_357\n        /* \"#utility.yul\":3951:3956   */\n      dup3\n        /* \"#utility.yul\":3920:3957   */\n      tag_276\n      jump\t// in\n    tag_357:\n        /* \"#utility.yul\":3907:3957   */\n      swap1\n      pop\n        /* \"#utility.yul\":3824:3963   */\n      swap2\n      swap1\n      pop\n      jump\t// out\n        /* \"#utility.yul\":3969:4126   */\n    tag_278:\n        /* \"#utility.yul\":4069:4119   */\n      tag_359\n        /* \"#utility.yul\":4113:4118   */\n      dup2\n        /* \"#utility.yul\":4069:4119   */\n      tag_277\n      jump\t// in\n    tag_359:\n        /* \"#utility.yul\":4064:4067   */\n      dup3\n        /* \"#utility.yul\":4057:4120   */\n      mstore\n        /* \"#utility.yul\":3969:4126   */\n      pop\n      pop\n      jump\t// out\n        /* \"#utility.yul\":4132:4380   */\n    tag_104:\n        /* \"#utility.yul\":4238:4242   */\n      0x00\n        /* \"#utility.yul\":4276:4278   */\n      0x20\n        /* \"#utility.yul\":4265:4274   */\n      dup3\n        /* \"#utility.yul\":4261:4279   */\n      add\n        /* \"#utility.yul\":4253:4279   */\n      swap1\n      pop\n        /* \"#utility.yul\":4289:4373   */\n      tag_361\n        /* \"#utility.yul\":4370:4371   */\n      0x00\n        /* \"#utility.yul\":4359:4368   */\n      dup4\n        /* \"#utility.yul\":4355:4372   */\n      add\n        /* \"#utility.yul\":4346:4352   */\n      dup5\n        /* \"#utility.yul\":4289:4373   */\n      tag_278\n      jump\t// in\n    tag_361:\n        /* \"#utility.yul\":4132:4380   */\n      swap3\n      swap2\n      pop\n      pop\n      jump\t// out\n        /* \"#utility.yul\":4386:4555   */\n    tag_279:\n        /* \"#utility.yul\":4470:4481   */\n      0x00\n        /* \"#utility.yul\":4504:4510   */\n      dup3\n        /* \"#utility.yul\":4499:4502   */\n      dup3\n        /* \"#utility.yul\":4492:4511   */\n      mstore\n        /* \"#utility.yul\":4544:4548   */\n      0x20\n        /* \"#utility.yul\":4539:4542   */\n      dup3\n        /* \"#utility.yul\":4535:4549   */\n      add\n        /* \"#utility.yul\":4520:4549   */\n      swap1\n      pop\n        /* \"#utility.yul\":4386:4555   */\n      swap3\n      swap2\n      pop\n      pop\n      jump\t// out\n        /* \"#utility.yul\":4561:4799   */\n    tag_280:\n        /* \"#utility.yul\":4701:4735   */\n      0x43616e206f6e6c79206265206578656375746564207768656e2074686520636f\n        /* \"#utility.yul\":4697:4698   */\n      0x00\n        /* \"#utility.yul\":4689:4695   */\n      dup3\n        /* \"#utility.yul\":4685:4699   */\n      add\n        /* \"#utility.yul\":4678:4736   */\n      mstore\n        /* \"#utility.yul\":4770:4791   */\n      0x6e74726163742069732061637469766174656400000000000000000000000000\n        /* \"#utility.yul\":4765:4767   */\n      0x20\n        /* \"#utility.yul\":4757:4763   */\n      dup3\n        /* \"#utility.yul\":4753:4768   */\n      add\n        /* \"#utility.yul\":4746:4792   */\n      mstore\n        /* \"#utility.yul\":4561:4799   */\n      pop\n      jump\t// out\n        /* \"#utility.yul\":4805:5171   */\n    tag_281:\n        /* \"#utility.yul\":4947:4950   */\n      0x00\n        /* \"#utility.yul\":4968:5035   */\n      tag_365\n        /* \"#utility.yul\":5032:5034   */\n      0x33\n        /* \"#utility.yul\":5027:5030   */\n      dup4\n        /* \"#utility.yul\":4968:5035   */\n      tag_279\n      jump\t// in\n    tag_365:\n        /* \"#utility.yul\":4961:5035   */\n      swap2\n      pop\n        /* \"#utility.yul\":5044:5137   */\n      tag_366\n        /* \"#utility.yul\":5133:5136   */\n      dup3\n        /* \"#utility.yul\":5044:5137   */\n      tag_280\n      jump\t// in\n    tag_366:\n        /* \"#utility.yul\":5162:5164   */\n      0x40\n        /* \"#utility.yul\":5157:5160   */\n      dup3\n        /* \"#utility.yul\":5153:5165   */\n      add\n        /* \"#utility.yul\":5146:5165   */\n      swap1\n      pop\n        /* \"#utility.yul\":4805:5171   */\n      swap2\n      swap1\n      pop\n      jump\t// out\n        /* \"#utility.yul\":5177:5596   */\n    tag_127:\n        /* \"#utility.yul\":5343:5347   */\n      0x00\n        /* \"#utility.yul\":5381:5383   */\n      0x20\n        /* \"#utility.yul\":5370:5379   */\n      dup3\n        /* \"#utility.yul\":5366:5384   */\n      add\n        /* \"#utility.yul\":5358:5384   */\n      swap1\n      pop\n        /* \"#utility.yul\":5430:5439   */\n      dup2\n        /* \"#utility.yul\":5424:5428   */\n      dup2\n        /* \"#utility.yul\":5420:5440   */\n      sub\n        /* \"#utility.yul\":5416:5417   */\n      0x00\n        /* \"#utility.yul\":5405:5414   */\n      dup4\n        /* \"#utility.yul\":5401:5418   */\n      add\n        /* \"#utility.yul\":5394:5441   */\n      mstore\n        /* \"#utility.yul\":5458:5589   */\n      tag_368\n        /* \"#utility.yul\":5584:5588   */\n      dup2\n        /* \"#utility.yul\":5458:5589   */\n      tag_281\n      jump\t// in\n    tag_368:\n        /* \"#utility.yul\":5450:5589   */\n      swap1\n      pop\n        /* \"#utility.yul\":5177:5596   */\n      swap2\n      swap1\n      pop\n      jump\t// out\n        /* \"#utility.yul\":5602:5782   */\n    tag_282:\n        /* \"#utility.yul\":5650:5727   */\n      0x4e487b7100000000000000000000000000000000000000000000000000000000\n        /* \"#utility.yul\":5647:5648   */\n      0x00\n        /* \"#utility.yul\":5640:5728   */\n      mstore\n        /* \"#utility.yul\":5747:5751   */\n      0x11\n        /* \"#utility.yul\":5744:5745   */\n      0x04\n        /* \"#utility.yul\":5737:5752   */\n      mstore\n        /* \"#utility.yul\":5771:5775   */\n      0x24\n        /* \"#utility.yul\":5768:5769   */\n      0x00\n        /* \"#utility.yul\":5761:5776   */\n      revert\n        /* \"#utility.yul\":5788:5982   */\n    tag_132:\n        /* \"#utility.yul\":5828:5832   */\n      0x00\n        /* \"#utility.yul\":5848:5868   */\n      tag_371\n        /* \"#utility.yul\":5866:5867   */\n      dup3\n        /* \"#utility.yul\":5848:5868   */\n      tag_260\n      jump\t// in\n    tag_371:\n        /* \"#utility.yul\":5843:5868   */\n      swap2\n      pop\n        /* \"#utility.yul\":5882:5902   */\n      tag_372\n        /* \"#utility.yul\":5900:5901   */\n      dup4\n        /* \"#utility.yul\":5882:5902   */\n      tag_260\n      jump\t// in\n    tag_372:\n        /* \"#utility.yul\":5877:5902   */\n      swap3\n      pop\n        /* \"#utility.yul\":5926:5927   */\n      dup3\n        /* \"#utility.yul\":5923:5924   */\n      dup3\n        /* \"#utility.yul\":5919:5928   */\n      sub\n        /* \"#utility.yul\":5911:5928   */\n      swap1\n      pop\n        /* \"#utility.yul\":5950:5951   */\n      dup2\n        /* \"#utility.yul\":5944:5948   */\n      dup2\n        /* \"#utility.yul\":5941:5952   */\n      gt\n        /* \"#utility.yul\":5938:5975   */\n      iszero\n      tag_373\n      jumpi\n        /* \"#utility.yul\":5955:5973   */\n      tag_374\n      tag_282\n      jump\t// in\n    tag_374:\n        /* \"#utility.yul\":5938:5975   */\n    tag_373:\n        /* \"#utility.yul\":5788:5982   */\n      swap3\n      swap2\n      pop\n      pop\n      jump\t// out\n        /* \"#utility.yul\":5988:6168   */\n    tag_283:\n        /* \"#utility.yul\":6036:6113   */\n      0x4e487b7100000000000000000000000000000000000000000000000000000000\n        /* \"#utility.yul\":6033:6034   */\n      0x00\n        /* \"#utility.yul\":6026:6114   */\n      mstore\n        /* \"#utility.yul\":6133:6137   */\n      0x12\n        /* \"#utility.yul\":6130:6131   */\n      0x04\n        /* \"#utility.yul\":6123:6138   */\n      mstore\n        /* \"#utility.yul\":6157:6161   */\n      0x24\n        /* \"#utility.yul\":6154:6155   */\n      0x00\n        /* \"#utility.yul\":6147:6162   */\n      revert\n        /* \"#utility.yul\":6174:6359   */\n    tag_134:\n        /* \"#utility.yul\":6214:6215   */\n      0x00\n        /* \"#utility.yul\":6231:6251   */\n      tag_377\n        /* \"#utility.yul\":6249:6250   */\n      dup3\n        /* \"#utility.yul\":6231:6251   */\n      tag_260\n      jump\t// in\n    tag_377:\n        /* \"#utility.yul\":6226:6251   */\n      swap2\n      pop\n        /* \"#utility.yul\":6265:6285   */\n      tag_378\n        /* \"#utility.yul\":6283:6284   */\n      dup4\n        /* \"#utility.yul\":6265:6285   */\n      tag_260\n      jump\t// in\n    tag_378:\n        /* \"#utility.yul\":6260:6285   */\n      swap3\n      pop\n        /* \"#utility.yul\":6304:6305   */\n      dup3\n        /* \"#utility.yul\":6294:6329   */\n      tag_379\n      jumpi\n        /* \"#utility.yul\":6309:6327   */\n      tag_380\n      tag_283\n      jump\t// in\n    tag_380:\n        /* \"#utility.yul\":6294:6329   */\n    tag_379:\n        /* \"#utility.yul\":6351:6352   */\n      dup3\n        /* \"#utility.yul\":6348:6349   */\n      dup3\n        /* \"#utility.yul\":6344:6353   */\n      div\n        /* \"#utility.yul\":6339:6353   */\n      swap1\n      pop\n        /* \"#utility.yul\":6174:6359   */\n      swap3\n      swap2\n      pop\n      pop\n      jump\t// out\n        /* \"#utility.yul\":6365:6607   */\n    tag_284:\n        /* \"#utility.yul\":6505:6539   */\n      0x43616e206f6e6c79206265206578656375746564207768656e2074686520636f\n        /* \"#utility.yul\":6501:6502   */\n      0x00\n        /* \"#utility.yul\":6493:6499   */\n      dup3\n        /* \"#utility.yul\":6489:6503   */\n      add\n        /* \"#utility.yul\":6482:6540   */\n      mstore\n        /* \"#utility.yul\":6574:6599   */\n      0x6e7472616374206973206e6f7420616374697661746564000000000000000000\n        /* \"#utility.yul\":6569:6571   */\n      0x20\n        /* \"#utility.yul\":6561:6567   */\n      dup3\n        /* \"#utility.yul\":6557:6572   */\n      add\n        /* \"#utility.yul\":6550:6600   */\n      mstore\n        /* \"#utility.yul\":6365:6607   */\n      pop\n      jump\t// out\n        /* \"#utility.yul\":6613:6979   */\n    tag_285:\n        /* \"#utility.yul\":6755:6758   */\n      0x00\n        /* \"#utility.yul\":6776:6843   */\n      tag_383\n        /* \"#utility.yul\":6840:6842   */\n      0x37\n        /* \"#utility.yul\":6835:6838   */\n      dup4\n        /* \"#utility.yul\":6776:6843   */\n      tag_279\n      jump\t// in\n    tag_383:\n        /* \"#utility.yul\":6769:6843   */\n      swap2\n      pop\n        /* \"#utility.yul\":6852:6945   */\n      tag_384\n        /* \"#utility.yul\":6941:6944   */\n      dup3\n        /* \"#utility.yul\":6852:6945   */\n      tag_284\n      jump\t// in\n    tag_384:\n        /* \"#utility.yul\":6970:6972   */\n      0x40\n        /* \"#utility.yul\":6965:6968   */\n      dup3\n        /* \"#utility.yul\":6961:6973   */\n      add\n        /* \"#utility.yul\":6954:6973   */\n      swap1\n      pop\n        /* \"#utility.yul\":6613:6979   */\n      swap2\n      swap1\n      pop\n      jump\t// out\n        /* \"#utility.yul\":6985:7404   */\n    tag_138:\n        /* \"#utility.yul\":7151:7155   */\n      0x00\n        /* \"#utility.yul\":7189:7191   */\n      0x20\n        /* \"#utility.yul\":7178:7187   */\n      dup3\n        /* \"#utility.yul\":7174:7192   */\n      add\n        /* \"#utility.yul\":7166:7192   */\n      swap1\n      pop\n        /* \"#utility.yul\":7238:7247   */\n      dup2\n        /* \"#utility.yul\":7232:7236   */\n      dup2\n        /* \"#utility.yul\":7228:7248   */\n      sub\n        /* \"#utility.yul\":7224:7225   */\n      0x00\n        /* \"#utility.yul\":7213:7222   */\n      dup4\n        /* \"#utility.yul\":7209:7226   */\n      add\n        /* \"#utility.yul\":7202:7249   */\n      mstore\n        /* \"#utility.yul\":7266:7397   */\n      tag_386\n        /* \"#utility.yul\":7392:7396   */\n      dup2\n        /* \"#utility.yul\":7266:7397   */\n      tag_285\n      jump\t// in\n    tag_386:\n        /* \"#utility.yul\":7258:7397   */\n      swap1\n      pop\n        /* \"#utility.yul\":6985:7404   */\n      swap2\n      swap1\n      pop\n      jump\t// out\n        /* \"#utility.yul\":7410:7592   */\n    tag_286:\n        /* \"#utility.yul\":7550:7584   */\n      0x496e636f7272656374205742544320636f6c6c61746572616c20616d6f756e74\n        /* \"#utility.yul\":7546:7547   */\n      0x00\n        /* \"#utility.yul\":7538:7544   */\n      dup3\n        /* \"#utility.yul\":7534:7548   */\n      add\n        /* \"#utility.yul\":7527:7585   */\n      mstore\n        /* \"#utility.yul\":7410:7592   */\n      pop\n      jump\t// out\n        /* \"#utility.yul\":7598:7964   */\n    tag_287:\n        /* \"#utility.yul\":7740:7743   */\n      0x00\n        /* \"#utility.yul\":7761:7828   */\n      tag_389\n        /* \"#utility.yul\":7825:7827   */\n      0x20\n        /* \"#utility.yul\":7820:7823   */\n      dup4\n        /* \"#utility.yul\":7761:7828   */\n      tag_279\n      jump\t// in\n    tag_389:\n        /* \"#utility.yul\":7754:7828   */\n      swap2\n      pop\n        /* \"#utility.yul\":7837:7930   */\n      tag_390\n        /* \"#utility.yul\":7926:7929   */\n      dup3\n        /* \"#utility.yul\":7837:7930   */\n      tag_286\n      jump\t// in\n    tag_390:\n        /* \"#utility.yul\":7955:7957   */\n      0x20\n        /* \"#utility.yul\":7950:7953   */\n      dup3\n        /* \"#utility.yul\":7946:7958   */\n      add\n        /* \"#utility.yul\":7939:7958   */\n      swap1\n      pop\n        /* \"#utility.yul\":7598:7964   */\n      swap2\n      swap1\n      pop\n      jump\t// out\n        /* \"#utility.yul\":7970:8389   */\n    tag_142:\n        /* \"#utility.yul\":8136:8140   */\n      0x00\n        /* \"#utility.yul\":8174:8176   */\n      0x20\n        /* \"#utility.yul\":8163:8172   */\n      dup3\n        /* \"#utility.yul\":8159:8177   */\n      add\n        /* \"#utility.yul\":8151:8177   */\n      swap1\n      pop\n        /* \"#utility.yul\":8223:8232   */\n      dup2\n        /* \"#utility.yul\":8217:8221   */\n      dup2\n        /* \"#utility.yul\":8213:8233   */\n      sub\n        /* \"#utility.yul\":8209:8210   */\n      0x00\n        /* \"#utility.yul\":8198:8207   */\n      dup4\n        /* \"#utility.yul\":8194:8211   */\n      add\n        /* \"#utility.yul\":8187:8234   */\n      mstore\n        /* \"#utility.yul\":8251:8382   */\n      tag_392\n        /* \"#utility.yul\":8377:8381   */\n      dup2\n        /* \"#utility.yul\":8251:8382   */\n      tag_287\n      jump\t// in\n    tag_392:\n        /* \"#utility.yul\":8243:8382   */\n      swap1\n      pop\n        /* \"#utility.yul\":7970:8389   */\n      swap2\n      swap1\n      pop\n      jump\t// out\n        /* \"#utility.yul\":8395:8837   */\n    tag_144:\n        /* \"#utility.yul\":8544:8548   */\n      0x00\n        /* \"#utility.yul\":8582:8584   */\n      0x60\n        /* \"#utility.yul\":8571:8580   */\n      dup3\n        /* \"#utility.yul\":8567:8585   */\n      add\n        /* \"#utility.yul\":8559:8585   */\n      swap1\n      pop\n        /* \"#utility.yul\":8595:8666   */\n      tag_394\n        /* \"#utility.yul\":8663:8664   */\n      0x00\n        /* \"#utility.yul\":8652:8661   */\n      dup4\n        /* \"#utility.yul\":8648:8665   */\n      add\n        /* \"#utility.yul\":8639:8645   */\n      dup7\n        /* \"#utility.yul\":8595:8666   */\n      tag_264\n      jump\t// in\n    tag_394:\n        /* \"#utility.yul\":8676:8748   */\n      tag_395\n        /* \"#utility.yul\":8744:8746   */\n      0x20\n        /* \"#utility.yul\":8733:8742   */\n      dup4\n        /* \"#utility.yul\":8729:8747   */\n      add\n        /* \"#utility.yul\":8720:8726   */\n      dup6\n        /* \"#utility.yul\":8676:8748   */\n      tag_264\n      jump\t// in\n    tag_395:\n        /* \"#utility.yul\":8758:8830   */\n      tag_396\n        /* \"#utility.yul\":8826:8828   */\n      0x40\n        /* \"#utility.yul\":8815:8824   */\n      dup4\n        /* \"#utility.yul\":8811:8829   */\n      add\n        /* \"#utility.yul\":8802:8808   */\n      dup5\n        /* \"#utility.yul\":8758:8830   */\n      tag_261\n      jump\t// in\n    tag_396:\n        /* \"#utility.yul\":8395:8837   */\n      swap5\n      swap4\n      pop\n      pop\n      pop\n      pop\n      jump\t// out\n        /* \"#utility.yul\":8843:8959   */\n    tag_288:\n        /* \"#utility.yul\":8913:8934   */\n      tag_398\n        /* \"#utility.yul\":8928:8933   */\n      dup2\n        /* \"#utility.yul\":8913:8934   */\n      tag_265\n      jump\t// in\n    tag_398:\n        /* \"#utility.yul\":8906:8911   */\n      dup2\n        /* \"#utility.yul\":8903:8935   */\n      eq\n        /* \"#utility.yul\":8893:8953   */\n      tag_399\n      jumpi\n        /* \"#utility.yul\":8949:8950   */\n      0x00\n        /* \"#utility.yul\":8946:8947   */\n      dup1\n        /* \"#utility.yul\":8939:8951   */\n      revert\n        /* \"#utility.yul\":8893:8953   */\n    tag_399:\n        /* \"#utility.yul\":8843:8959   */\n      pop\n      jump\t// out\n        /* \"#utility.yul\":8965:9102   */\n    tag_289:\n        /* \"#utility.yul\":9019:9024   */\n      0x00\n        /* \"#utility.yul\":9050:9056   */\n      dup2\n        /* \"#utility.yul\":9044:9057   */\n      mload\n        /* \"#utility.yul\":9035:9057   */\n      swap1\n      pop\n        /* \"#utility.yul\":9066:9096   */\n      tag_401\n        /* \"#utility.yul\":9090:9095   */\n      dup2\n        /* \"#utility.yul\":9066:9096   */\n      tag_288\n      jump\t// in\n    tag_401:\n        /* \"#utility.yul\":8965:9102   */\n      swap3\n      swap2\n      pop\n      pop\n      jump\t// out\n        /* \"#utility.yul\":9108:9453   */\n    tag_148:\n        /* \"#utility.yul\":9175:9181   */\n      0x00\n        /* \"#utility.yul\":9224:9226   */\n      0x20\n        /* \"#utility.yul\":9212:9221   */\n      dup3\n        /* \"#utility.yul\":9203:9210   */\n      dup5\n        /* \"#utility.yul\":9199:9222   */\n      sub\n        /* \"#utility.yul\":9195:9227   */\n      slt\n        /* \"#utility.yul\":9192:9311   */\n      iszero\n      tag_403\n      jumpi\n        /* \"#utility.yul\":9230:9309   */\n      tag_404\n      tag_268\n      jump\t// in\n    tag_404:\n        /* \"#utility.yul\":9192:9311   */\n    tag_403:\n        /* \"#utility.yul\":9350:9351   */\n      0x00\n        /* \"#utility.yul\":9375:9436   */\n      tag_405\n        /* \"#utility.yul\":9428:9435   */\n      dup5\n        /* \"#utility.yul\":9419:9425   */\n      dup3\n        /* \"#utility.yul\":9408:9417   */\n      dup6\n        /* \"#utility.yul\":9404:9426   */\n      add\n        /* \"#utility.yul\":9375:9436   */\n      tag_289\n      jump\t// in\n    tag_405:\n        /* \"#utility.yul\":9365:9436   */\n      swap2\n      pop\n        /* \"#utility.yul\":9321:9446   */\n      pop\n        /* \"#utility.yul\":9108:9453   */\n      swap3\n      swap2\n      pop\n      pop\n      jump\t// out\n        /* \"#utility.yul\":9459:9629   */\n    tag_290:\n        /* \"#utility.yul\":9599:9621   */\n      0x57425443207472616e73666572206661696c6564000000000000000000000000\n        /* \"#utility.yul\":9595:9596   */\n      0x00\n        /* \"#utility.yul\":9587:9593   */\n      dup3\n        /* \"#utility.yul\":9583:9597   */\n      add\n        /* \"#utility.yul\":9576:9622   */\n      mstore\n        /* \"#utility.yul\":9459:9629   */\n      pop\n      jump\t// out\n        /* \"#utility.yul\":9635:10001   */\n    tag_291:\n        /* \"#utility.yul\":9777:9780   */\n      0x00\n        /* \"#utility.yul\":9798:9865   */\n      tag_408\n        /* \"#utility.yul\":9862:9864   */\n      0x14\n        /* \"#utility.yul\":9857:9860   */\n      dup4\n        /* \"#utility.yul\":9798:9865   */\n      tag_279\n      jump\t// in\n    tag_408:\n        /* \"#utility.yul\":9791:9865   */\n      swap2\n      pop\n        /* \"#utility.yul\":9874:9967   */\n      tag_409\n        /* \"#utility.yul\":9963:9966   */\n      dup3\n        /* \"#utility.yul\":9874:9967   */\n      tag_290\n      jump\t// in\n    tag_409:\n        /* \"#utility.yul\":9992:9994   */\n      0x20\n        /* \"#utility.yul\":9987:9990   */\n      dup3\n        /* \"#utility.yul\":9983:9995   */\n      add\n        /* \"#utility.yul\":9976:9995   */\n      swap1\n      pop\n        /* \"#utility.yul\":9635:10001   */\n      swap2\n      swap1\n      pop\n      jump\t// out\n        /* \"#utility.yul\":10007:10426   */\n    tag_151:\n        /* \"#utility.yul\":10173:10177   */\n      0x00\n        /* \"#utility.yul\":10211:10213   */\n      0x20\n        /* \"#utility.yul\":10200:10209   */\n      dup3\n        /* \"#utility.yul\":10196:10214   */\n      add\n        /* \"#utility.yul\":10188:10214   */\n      swap1\n      pop\n        /* \"#utility.yul\":10260:10269   */\n      dup2\n        /* \"#utility.yul\":10254:10258   */\n      dup2\n        /* \"#utility.yul\":10250:10270   */\n      sub\n        /* \"#utility.yul\":10246:10247   */\n      0x00\n        /* \"#utility.yul\":10235:10244   */\n      dup4\n        /* \"#utility.yul\":10231:10248   */\n      add\n        /* \"#utility.yul\":10224:10271   */\n      mstore\n        /* \"#utility.yul\":10288:10419   */\n      tag_411\n        /* \"#utility.yul\":10414:10418   */\n      dup2\n        /* \"#utility.yul\":10288:10419   */\n      tag_291\n      jump\t// in\n    tag_411:\n        /* \"#utility.yul\":10280:10419   */\n      swap1\n      pop\n        /* \"#utility.yul\":10007:10426   */\n      swap2\n      swap1\n      pop\n      jump\t// out\n        /* \"#utility.yul\":10432:10752   */\n    tag_153:\n        /* \"#utility.yul\":10547:10551   */\n      0x00\n        /* \"#utility.yul\":10585:10587   */\n      0x40\n        /* \"#utility.yul\":10574:10583   */\n      dup3\n        /* \"#utility.yul\":10570:10588   */\n      add\n        /* \"#utility.yul\":10562:10588   */\n      swap1\n      pop\n        /* \"#utility.yul\":10598:10669   */\n      tag_413\n        /* \"#utility.yul\":10666:10667   */\n      0x00\n        /* \"#utility.yul\":10655:10664   */\n      dup4\n        /* \"#utility.yul\":10651:10668   */\n      add\n        /* \"#utility.yul\":10642:10648   */\n      dup6\n        /* \"#utility.yul\":10598:10669   */\n      tag_261\n      jump\t// in\n    tag_413:\n        /* \"#utility.yul\":10679:10745   */\n      tag_414\n        /* \"#utility.yul\":10741:10743   */\n      0x20\n        /* \"#utility.yul\":10730:10739   */\n      dup4\n        /* \"#utility.yul\":10726:10744   */\n      add\n        /* \"#utility.yul\":10717:10723   */\n      dup5\n        /* \"#utility.yul\":10679:10745   */\n      tag_266\n      jump\t// in\n    tag_414:\n        /* \"#utility.yul\":10432:10752   */\n      swap4\n      swap3\n      pop\n      pop\n      pop\n      jump\t// out\n        /* \"#utility.yul\":10758:10939   */\n    tag_292:\n        /* \"#utility.yul\":10898:10931   */\n      0x496e636f72726563742045544820636f6c6c61746572616c20616d6f756e7400\n        /* \"#utility.yul\":10894:10895   */\n      0x00\n        /* \"#utility.yul\":10886:10892   */\n      dup3\n        /* \"#utility.yul\":10882:10896   */\n      add\n        /* \"#utility.yul\":10875:10932   */\n      mstore\n        /* \"#utility.yul\":10758:10939   */\n      pop\n      jump\t// out\n        /* \"#utility.yul\":10945:11311   */\n    tag_293:\n        /* \"#utility.yul\":11087:11090   */\n      0x00\n        /* \"#utility.yul\":11108:11175   */\n      tag_417\n        /* \"#utility.yul\":11172:11174   */\n      0x1f\n        /* \"#utility.yul\":11167:11170   */\n      dup4\n        /* \"#utility.yul\":11108:11175   */\n      tag_279\n      jump\t// in\n    tag_417:\n        /* \"#utility.yul\":11101:11175   */\n      swap2\n      pop\n        /* \"#utility.yul\":11184:11277   */\n      tag_418\n        /* \"#utility.yul\":11273:11276   */\n      dup3\n        /* \"#utility.yul\":11184:11277   */\n      tag_292\n      jump\t// in\n    tag_418:\n        /* \"#utility.yul\":11302:11304   */\n      0x20\n        /* \"#utility.yul\":11297:11300   */\n      dup3\n        /* \"#utility.yul\":11293:11305   */\n      add\n        /* \"#utility.yul\":11286:11305   */\n      swap1\n      pop\n        /* \"#utility.yul\":10945:11311   */\n      swap2\n      swap1\n      pop\n      jump\t// out\n        /* \"#utility.yul\":11317:11736   */\n    tag_170:\n        /* \"#utility.yul\":11483:11487   */\n      0x00\n        /* \"#utility.yul\":11521:11523   */\n      0x20\n        /* \"#utility.yul\":11510:11519   */\n      dup3\n        /* \"#utility.yul\":11506:11524   */\n      add\n        /* \"#utility.yul\":11498:11524   */\n      swap1\n      pop\n        /* \"#utility.yul\":11570:11579   */\n      dup2\n        /* \"#utility.yul\":11564:11568   */\n      dup2\n        /* \"#utility.yul\":11560:11580   */\n      sub\n        /* \"#utility.yul\":11556:11557   */\n      0x00\n        /* \"#utility.yul\":11545:11554   */\n      dup4\n        /* \"#utility.yul\":11541:11558   */\n      add\n        /* \"#utility.yul\":11534:11581   */\n      mstore\n        /* \"#utility.yul\":11598:11729   */\n      tag_420\n        /* \"#utility.yul\":11724:11728   */\n      dup2\n        /* \"#utility.yul\":11598:11729   */\n      tag_293\n      jump\t// in\n    tag_420:\n        /* \"#utility.yul\":11590:11729   */\n      swap1\n      pop\n        /* \"#utility.yul\":11317:11736   */\n      swap2\n      swap1\n      pop\n      jump\t// out\n        /* \"#utility.yul\":11742:11889   */\n    tag_294:\n        /* \"#utility.yul\":11843:11854   */\n      0x00\n        /* \"#utility.yul\":11880:11883   */\n      dup2\n        /* \"#utility.yul\":11865:11883   */\n      swap1\n      pop\n        /* \"#utility.yul\":11742:11889   */\n      swap3\n      swap2\n      pop\n      pop\n      jump\t// out\n        /* \"#utility.yul\":11895:12009   */\n    tag_295:\n      pop\n      jump\t// out\n        /* \"#utility.yul\":12015:12413   */\n    tag_296:\n        /* \"#utility.yul\":12174:12177   */\n      0x00\n        /* \"#utility.yul\":12195:12278   */\n      tag_424\n        /* \"#utility.yul\":12276:12277   */\n      0x00\n        /* \"#utility.yul\":12271:12274   */\n      dup4\n        /* \"#utility.yul\":12195:12278   */\n      tag_294\n      jump\t// in\n    tag_424:\n        /* \"#utility.yul\":12188:12278   */\n      swap2\n      pop\n        /* \"#utility.yul\":12287:12380   */\n      tag_425\n        /* \"#utility.yul\":12376:12379   */\n      dup3\n        /* \"#utility.yul\":12287:12380   */\n      tag_295\n      jump\t// in\n    tag_425:\n        /* \"#utility.yul\":12405:12406   */\n      0x00\n        /* \"#utility.yul\":12400:12403   */\n      dup3\n        /* \"#utility.yul\":12396:12407   */\n      add\n        /* \"#utility.yul\":12389:12407   */\n      swap1\n      pop\n        /* \"#utility.yul\":12015:12413   */\n      swap2\n      swap1\n      pop\n      jump\t// out\n        /* \"#utility.yul\":12419:12798   */\n    tag_172:\n        /* \"#utility.yul\":12603:12606   */\n      0x00\n        /* \"#utility.yul\":12625:12772   */\n      tag_427\n        /* \"#utility.yul\":12768:12771   */\n      dup3\n        /* \"#utility.yul\":12625:12772   */\n      tag_296\n      jump\t// in\n    tag_427:\n        /* \"#utility.yul\":12618:12772   */\n      swap2\n      pop\n        /* \"#utility.yul\":12789:12792   */\n      dup2\n        /* \"#utility.yul\":12782:12792   */\n      swap1\n      pop\n        /* \"#utility.yul\":12419:12798   */\n      swap2\n      swap1\n      pop\n      jump\t// out\n        /* \"#utility.yul\":12804:12969   */\n    tag_297:\n        /* \"#utility.yul\":12944:12961   */\n      0x5472616e73666572206661696c65640000000000000000000000000000000000\n        /* \"#utility.yul\":12940:12941   */\n      0x00\n        /* \"#utility.yul\":12932:12938   */\n      dup3\n        /* \"#utility.yul\":12928:12942   */\n      add\n        /* \"#utility.yul\":12921:12962   */\n      mstore\n        /* \"#utility.yul\":12804:12969   */\n      pop\n      jump\t// out\n        /* \"#utility.yul\":12975:13341   */\n    tag_298:\n        /* \"#utility.yul\":13117:13120   */\n      0x00\n        /* \"#utility.yul\":13138:13205   */\n      tag_430\n        /* \"#utility.yul\":13202:13204   */\n      0x0f\n        /* \"#utility.yul\":13197:13200   */\n      dup4\n        /* \"#utility.yul\":13138:13205   */\n      tag_279\n      jump\t// in\n    tag_430:\n        /* \"#utility.yul\":13131:13205   */\n      swap2\n      pop\n        /* \"#utility.yul\":13214:13307   */\n      tag_431\n        /* \"#utility.yul\":13303:13306   */\n      dup3\n        /* \"#utility.yul\":13214:13307   */\n      tag_297\n      jump\t// in\n    tag_431:\n        /* \"#utility.yul\":13332:13334   */\n      0x20\n        /* \"#utility.yul\":13327:13330   */\n      dup3\n        /* \"#utility.yul\":13323:13335   */\n      add\n        /* \"#utility.yul\":13316:13335   */\n      swap1\n      pop\n        /* \"#utility.yul\":12975:13341   */\n      swap2\n      swap1\n      pop\n      jump\t// out\n        /* \"#utility.yul\":13347:13766   */\n    tag_178:\n        /* \"#utility.yul\":13513:13517   */\n      0x00\n        /* \"#utility.yul\":13551:13553   */\n      0x20\n        /* \"#utility.yul\":13540:13549   */\n      dup3\n        /* \"#utility.yul\":13536:13554   */\n      add\n        /* \"#utility.yul\":13528:13554   */\n      swap1\n      pop\n        /* \"#utility.yul\":13600:13609   */\n      dup2\n        /* \"#utility.yul\":13594:13598   */\n      dup2\n        /* \"#utility.yul\":13590:13610   */\n      sub\n        /* \"#utility.yul\":13586:13587   */\n      0x00\n        /* \"#utility.yul\":13575:13584   */\n      dup4\n        /* \"#utility.yul\":13571:13588   */\n      add\n        /* \"#utility.yul\":13564:13611   */\n      mstore\n        /* \"#utility.yul\":13628:13759   */\n      tag_433\n        /* \"#utility.yul\":13754:13758   */\n      dup2\n        /* \"#utility.yul\":13628:13759   */\n      tag_298\n      jump\t// in\n    tag_433:\n        /* \"#utility.yul\":13620:13759   */\n      swap1\n      pop\n        /* \"#utility.yul\":13347:13766   */\n      swap2\n      swap1\n      pop\n      jump\t// out\n        /* \"#utility.yul\":13772:13952   */\n    tag_299:\n        /* \"#utility.yul\":13912:13944   */\n      0x496e636f7272656374204554482072657061796d656e7420616d6f756e740000\n        /* \"#utility.yul\":13908:13909   */\n      0x00\n        /* \"#utility.yul\":13900:13906   */\n      dup3\n        /* \"#utility.yul\":13896:13910   */\n      add\n        /* \"#utility.yul\":13889:13945   */\n      mstore\n        /* \"#utility.yul\":13772:13952   */\n      pop\n      jump\t// out\n        /* \"#utility.yul\":13958:14324   */\n    tag_300:\n        /* \"#utility.yul\":14100:14103   */\n      0x00\n        /* \"#utility.yul\":14121:14188   */\n      tag_436\n        /* \"#utility.yul\":14185:14187   */\n      0x1e\n        /* \"#utility.yul\":14180:14183   */\n      dup4\n        /* \"#utility.yul\":14121:14188   */\n      tag_279\n      jump\t// in\n    tag_436:\n        /* \"#utility.yul\":14114:14188   */\n      swap2\n      pop\n        /* \"#utility.yul\":14197:14290   */\n      tag_437\n        /* \"#utility.yul\":14286:14289   */\n      dup3\n        /* \"#utility.yul\":14197:14290   */\n      tag_299\n      jump\t// in\n    tag_437:\n        /* \"#utility.yul\":14315:14317   */\n      0x20\n        /* \"#utility.yul\":14310:14313   */\n      dup3\n        /* \"#utility.yul\":14306:14318   */\n      add\n        /* \"#utility.yul\":14299:14318   */\n      swap1\n      pop\n        /* \"#utility.yul\":13958:14324   */\n      swap2\n      swap1\n      pop\n      jump\t// out\n        /* \"#utility.yul\":14330:14749   */\n    tag_187:\n        /* \"#utility.yul\":14496:14500   */\n      0x00\n        /* \"#utility.yul\":14534:14536   */\n      0x20\n        /* \"#utility.yul\":14523:14532   */\n      dup3\n        /* \"#utility.yul\":14519:14537   */\n      add\n        /* \"#utility.yul\":14511:14537   */\n      swap1\n      pop\n        /* \"#utility.yul\":14583:14592   */\n      dup2\n        /* \"#utility.yul\":14577:14581   */\n      dup2\n        /* \"#utility.yul\":14573:14593   */\n      sub\n        /* \"#utility.yul\":14569:14570   */\n      0x00\n        /* \"#utility.yul\":14558:14567   */\n      dup4\n        /* \"#utility.yul\":14554:14571   */\n      add\n        /* \"#utility.yul\":14547:14594   */\n      mstore\n        /* \"#utility.yul\":14611:14742   */\n      tag_439\n        /* \"#utility.yul\":14737:14741   */\n      dup2\n        /* \"#utility.yul\":14611:14742   */\n      tag_300\n      jump\t// in\n    tag_439:\n        /* \"#utility.yul\":14603:14742   */\n      swap1\n      pop\n        /* \"#utility.yul\":14330:14749   */\n      swap2\n      swap1\n      pop\n      jump\t// out\n        /* \"#utility.yul\":14755:14986   */\n    tag_301:\n        /* \"#utility.yul\":14895:14929   */\n      0x43616e206f6e6c792062652065786563757465642062792074686520636f6e74\n        /* \"#utility.yul\":14891:14892   */\n      0x00\n        /* \"#utility.yul\":14883:14889   */\n      dup3\n        /* \"#utility.yul\":14879:14893   */\n      add\n        /* \"#utility.yul\":14872:14930   */\n      mstore\n        /* \"#utility.yul\":14964:14978   */\n      0x726163742063726561746f720000000000000000000000000000000000000000\n        /* \"#utility.yul\":14959:14961   */\n      0x20\n        /* \"#utility.yul\":14951:14957   */\n      dup3\n        /* \"#utility.yul\":14947:14962   */\n      add\n        /* \"#utility.yul\":14940:14979   */\n      mstore\n        /* \"#utility.yul\":14755:14986   */\n      pop\n      jump\t// out\n        /* \"#utility.yul\":14992:15358   */\n    tag_302:\n        /* \"#utility.yul\":15134:15137   */\n      0x00\n        /* \"#utility.yul\":15155:15222   */\n      tag_442\n        /* \"#utility.yul\":15219:15221   */\n      0x2c\n        /* \"#utility.yul\":15214:15217   */\n      dup4\n        /* \"#utility.yul\":15155:15222   */\n      tag_279\n      jump\t// in\n    tag_442:\n        /* \"#utility.yul\":15148:15222   */\n      swap2\n      pop\n        /* \"#utility.yul\":15231:15324   */\n      tag_443\n        /* \"#utility.yul\":15320:15323   */\n      dup3\n        /* \"#utility.yul\":15231:15324   */\n      tag_301\n      jump\t// in\n    tag_443:\n        /* \"#utility.yul\":15349:15351   */\n      0x40\n        /* \"#utility.yul\":15344:15347   */\n      dup3\n        /* \"#utility.yul\":15340:15352   */\n      add\n        /* \"#utility.yul\":15333:15352   */\n      swap1\n      pop\n        /* \"#utility.yul\":14992:15358   */\n      swap2\n      swap1\n      pop\n      jump\t// out\n        /* \"#utility.yul\":15364:15783   */\n    tag_198:\n        /* \"#utility.yul\":15530:15534   */\n      0x00\n        /* \"#utility.yul\":15568:15570   */\n      0x20\n        /* \"#utility.yul\":15557:15566   */\n      dup3\n        /* \"#utility.yul\":15553:15571   */\n      add\n        /* \"#utility.yul\":15545:15571   */\n      swap1\n      pop\n        /* \"#utility.yul\":15617:15626   */\n      dup2\n        /* \"#utility.yul\":15611:15615   */\n      dup2\n        /* \"#utility.yul\":15607:15627   */\n      sub\n        /* \"#utility.yul\":15603:15604   */\n      0x00\n        /* \"#utility.yul\":15592:15601   */\n      dup4\n        /* \"#utility.yul\":15588:15605   */\n      add\n        /* \"#utility.yul\":15581:15628   */\n      mstore\n        /* \"#utility.yul\":15645:15776   */\n      tag_445\n        /* \"#utility.yul\":15771:15775   */\n      dup2\n        /* \"#utility.yul\":15645:15776   */\n      tag_302\n      jump\t// in\n    tag_445:\n        /* \"#utility.yul\":15637:15776   */\n      swap1\n      pop\n        /* \"#utility.yul\":15364:15783   */\n      swap2\n      swap1\n      pop\n      jump\t// out\n        /* \"#utility.yul\":15789:16231   */\n    tag_207:\n        /* \"#utility.yul\":15938:15942   */\n      0x00\n        /* \"#utility.yul\":15976:15978   */\n      0x60\n        /* \"#utility.yul\":15965:15974   */\n      dup3\n        /* \"#utility.yul\":15961:15979   */\n      add\n        /* \"#utility.yul\":15953:15979   */\n      swap1\n      pop\n        /* \"#utility.yul\":15989:16060   */\n      tag_447\n        /* \"#utility.yul\":16057:16058   */\n      0x00\n        /* \"#utility.yul\":16046:16055   */\n      dup4\n        /* \"#utility.yul\":16042:16059   */\n      add\n        /* \"#utility.yul\":16033:16039   */\n      dup7\n        /* \"#utility.yul\":15989:16060   */\n      tag_264\n      jump\t// in\n    tag_447:\n        /* \"#utility.yul\":16070:16142   */\n      tag_448\n        /* \"#utility.yul\":16138:16140   */\n      0x20\n        /* \"#utility.yul\":16127:16136   */\n      dup4\n        /* \"#utility.yul\":16123:16141   */\n      add\n        /* \"#utility.yul\":16114:16120   */\n      dup6\n        /* \"#utility.yul\":16070:16142   */\n      tag_261\n      jump\t// in\n    tag_448:\n        /* \"#utility.yul\":16152:16224   */\n      tag_449\n        /* \"#utility.yul\":16220:16222   */\n      0x40\n        /* \"#utility.yul\":16209:16218   */\n      dup4\n        /* \"#utility.yul\":16205:16223   */\n      add\n        /* \"#utility.yul\":16196:16202   */\n      dup5\n        /* \"#utility.yul\":16152:16224   */\n      tag_261\n      jump\t// in\n    tag_449:\n        /* \"#utility.yul\":15789:16231   */\n      swap5\n      swap4\n      pop\n      pop\n      pop\n      pop\n      jump\t// out\n        /* \"#utility.yul\":16237:16418   */\n    tag_303:\n        /* \"#utility.yul\":16377:16410   */\n      0x496e636f727265637420574254432072657061796d656e7420616d6f756e7400\n        /* \"#utility.yul\":16373:16374   */\n      0x00\n        /* \"#utility.yul\":16365:16371   */\n      dup3\n        /* \"#utility.yul\":16361:16375   */\n      add\n        /* \"#utility.yul\":16354:16411   */\n      mstore\n        /* \"#utility.yul\":16237:16418   */\n      pop\n      jump\t// out\n        /* \"#utility.yul\":16424:16790   */\n    tag_304:\n        /* \"#utility.yul\":16566:16569   */\n      0x00\n        /* \"#utility.yul\":16587:16654   */\n      tag_452\n        /* \"#utility.yul\":16651:16653   */\n      0x1f\n        /* \"#utility.yul\":16646:16649   */\n      dup4\n        /* \"#utility.yul\":16587:16654   */\n      tag_279\n      jump\t// in\n    tag_452:\n        /* \"#utility.yul\":16580:16654   */\n      swap2\n      pop\n        /* \"#utility.yul\":16663:16756   */\n      tag_453\n        /* \"#utility.yul\":16752:16755   */\n      dup3\n        /* \"#utility.yul\":16663:16756   */\n      tag_303\n      jump\t// in\n    tag_453:\n        /* \"#utility.yul\":16781:16783   */\n      0x20\n        /* \"#utility.yul\":16776:16779   */\n      dup3\n        /* \"#utility.yul\":16772:16784   */\n      add\n        /* \"#utility.yul\":16765:16784   */\n      swap1\n      pop\n        /* \"#utility.yul\":16424:16790   */\n      swap2\n      swap1\n      pop\n      jump\t// out\n        /* \"#utility.yul\":16796:17215   */\n    tag_214:\n        /* \"#utility.yul\":16962:16966   */\n      0x00\n        /* \"#utility.yul\":17000:17002   */\n      0x20\n        /* \"#utility.yul\":16989:16998   */\n      dup3\n        /* \"#utility.yul\":16985:17003   */\n      add\n        /* \"#utility.yul\":16977:17003   */\n      swap1\n      pop\n        /* \"#utility.yul\":17049:17058   */\n      dup2\n        /* \"#utility.yul\":17043:17047   */\n      dup2\n        /* \"#utility.yul\":17039:17059   */\n      sub\n        /* \"#utility.yul\":17035:17036   */\n      0x00\n        /* \"#utility.yul\":17024:17033   */\n      dup4\n        /* \"#utility.yul\":17020:17037   */\n      add\n        /* \"#utility.yul\":17013:17060   */\n      mstore\n        /* \"#utility.yul\":17077:17208   */\n      tag_455\n        /* \"#utility.yul\":17203:17207   */\n      dup2\n        /* \"#utility.yul\":17077:17208   */\n      tag_304\n      jump\t// in\n    tag_455:\n        /* \"#utility.yul\":17069:17208   */\n      swap1\n      pop\n        /* \"#utility.yul\":16796:17215   */\n      swap2\n      swap1\n      pop\n      jump\t// out\n        /* \"#utility.yul\":17221:17631   */\n    tag_238:\n        /* \"#utility.yul\":17261:17268   */\n      0x00\n        /* \"#utility.yul\":17284:17304   */\n      tag_457\n        /* \"#utility.yul\":17302:17303   */\n      dup3\n        /* \"#utility.yul\":17284:17304   */\n      tag_260\n      jump\t// in\n    tag_457:\n        /* \"#utility.yul\":17279:17304   */\n      swap2\n      pop\n        /* \"#utility.yul\":17318:17338   */\n      tag_458\n        /* \"#utility.yul\":17336:17337   */\n      dup4\n        /* \"#utility.yul\":17318:17338   */\n      tag_260\n      jump\t// in\n    tag_458:\n        /* \"#utility.yul\":17313:17338   */\n      swap3\n      pop\n        /* \"#utility.yul\":17373:17374   */\n      dup3\n        /* \"#utility.yul\":17370:17371   */\n      dup3\n        /* \"#utility.yul\":17366:17375   */\n      mul\n        /* \"#utility.yul\":17395:17425   */\n      tag_459\n        /* \"#utility.yul\":17413:17424   */\n      dup2\n        /* \"#utility.yul\":17395:17425   */\n      tag_260\n      jump\t// in\n    tag_459:\n        /* \"#utility.yul\":17384:17425   */\n      swap2\n      pop\n        /* \"#utility.yul\":17574:17575   */\n      dup3\n        /* \"#utility.yul\":17565:17572   */\n      dup3\n        /* \"#utility.yul\":17561:17576   */\n      div\n        /* \"#utility.yul\":17558:17559   */\n      dup5\n        /* \"#utility.yul\":17555:17577   */\n      eq\n        /* \"#utility.yul\":17535:17536   */\n      dup4\n        /* \"#utility.yul\":17528:17537   */\n      iszero\n        /* \"#utility.yul\":17508:17591   */\n      or\n        /* \"#utility.yul\":17485:17624   */\n      tag_460\n      jumpi\n        /* \"#utility.yul\":17604:17622   */\n      tag_461\n      tag_282\n      jump\t// in\n    tag_461:\n        /* \"#utility.yul\":17485:17624   */\n    tag_460:\n        /* \"#utility.yul\":17269:17631   */\n      pop\n        /* \"#utility.yul\":17221:17631   */\n      swap3\n      swap2\n      pop\n      pop\n      jump\t// out\n        /* \"#utility.yul\":17637:17828   */\n    tag_241:\n        /* \"#utility.yul\":17677:17680   */\n      0x00\n        /* \"#utility.yul\":17696:17716   */\n      tag_463\n        /* \"#utility.yul\":17714:17715   */\n      dup3\n        /* \"#utility.yul\":17696:17716   */\n      tag_260\n      jump\t// in\n    tag_463:\n        /* \"#utility.yul\":17691:17716   */\n      swap2\n      pop\n        /* \"#utility.yul\":17730:17750   */\n      tag_464\n        /* \"#utility.yul\":17748:17749   */\n      dup4\n        /* \"#utility.yul\":17730:17750   */\n      tag_260\n      jump\t// in\n    tag_464:\n        /* \"#utility.yul\":17725:17750   */\n      swap3\n      pop\n        /* \"#utility.yul\":17773:17774   */\n      dup3\n        /* \"#utility.yul\":17770:17771   */\n      dup3\n        /* \"#utility.yul\":17766:17775   */\n      add\n        /* \"#utility.yul\":17759:17775   */\n      swap1\n      pop\n        /* \"#utility.yul\":17794:17797   */\n      dup1\n        /* \"#utility.yul\":17791:17792   */\n      dup3\n        /* \"#utility.yul\":17788:17798   */\n      gt\n        /* \"#utility.yul\":17785:17821   */\n      iszero\n      tag_465\n      jumpi\n        /* \"#utility.yul\":17801:17819   */\n      tag_466\n      tag_282\n      jump\t// in\n    tag_466:\n        /* \"#utility.yul\":17785:17821   */\n    tag_465:\n        /* \"#utility.yul\":17637:17828   */\n      swap3\n      swap2\n      pop\n      pop\n      jump\t// out\n        /* \"#utility.yul\":17834:18010   */\n    tag_253:\n        /* \"#utility.yul\":17866:17867   */\n      0x00\n        /* \"#utility.yul\":17883:17903   */\n      tag_468\n        /* \"#utility.yul\":17901:17902   */\n      dup3\n        /* \"#utility.yul\":17883:17903   */\n      tag_260\n      jump\t// in\n    tag_468:\n        /* \"#utility.yul\":17878:17903   */\n      swap2\n      pop\n        /* \"#utility.yul\":17917:17937   */\n      tag_469\n        /* \"#utility.yul\":17935:17936   */\n      dup4\n        /* \"#utility.yul\":17917:17937   */\n      tag_260\n      jump\t// in\n    tag_469:\n        /* \"#utility.yul\":17912:17937   */\n      swap3\n      pop\n        /* \"#utility.yul\":17956:17957   */\n      dup3\n        /* \"#utility.yul\":17946:17981   */\n      tag_470\n      jumpi\n        /* \"#utility.yul\":17961:17979   */\n      tag_471\n      tag_283\n      jump\t// in\n    tag_471:\n        /* \"#utility.yul\":17946:17981   */\n    tag_470:\n        /* \"#utility.yul\":18002:18003   */\n      dup3\n        /* \"#utility.yul\":17999:18000   */\n      dup3\n        /* \"#utility.yul\":17995:18004   */\n      mod\n        /* \"#utility.yul\":17990:18004   */\n      swap1\n      pop\n        /* \"#utility.yul\":17834:18010   */\n      swap3\n      swap2\n      pop\n      pop\n      jump\t// out\n\n    auxdata: 0xa26469706673582212208c562a37be97b8f11b18873e932d7d3da3ed748729fd28511301d304f508f6c264736f6c634300081a0033\n}\n",
				"bytecode": {
					"linkReferences": {},
					"object": "608060405234801561000f575f80fd5b50604051611f7b380380611f7b83398181016040528101906100319190610283565b8860025f6101000a81548173ffffffffffffffffffffffffffffffffffffffff021916908373ffffffffffffffffffffffffffffffffffffffff1602179055503360015f6101000a81548173ffffffffffffffffffffffffffffffffffffffff021916908373ffffffffffffffffffffffffffffffffffffffff160217905550875f806101000a81548173ffffffffffffffffffffffffffffffffffffffff021916908373ffffffffffffffffffffffffffffffffffffffff160217905550866003819055508560075f6101000a81548160ff02191690831515021790555084600481905550836005819055508260068190555081600760016101000a81548160ff021916908315150217905550806008819055505f6009819055505f600a819055505f600b819055505f600c5f6101000a81548160ff021916908315150217905550505050505050505050610347565b5f80fd5b5f73ffffffffffffffffffffffffffffffffffffffff82169050919050565b5f6101af82610186565b9050919050565b6101bf816101a5565b81146101c9575f80fd5b50565b5f815190506101da816101b6565b92915050565b5f6101ea826101a5565b9050919050565b6101fa816101e0565b8114610204575f80fd5b50565b5f81519050610215816101f1565b92915050565b5f819050919050565b61022d8161021b565b8114610237575f80fd5b50565b5f8151905061024881610224565b92915050565b5f8115159050919050565b6102628161024e565b811461026c575f80fd5b50565b5f8151905061027d81610259565b92915050565b5f805f805f805f805f6101208a8c0312156102a1576102a0610182565b5b5f6102ae8c828d016101cc565b99505060206102bf8c828d01610207565b98505060406102d08c828d0161023a565b97505060606102e18c828d0161026f565b96505060806102f28c828d0161023a565b95505060a06103038c828d0161023a565b94505060c06103148c828d0161023a565b93505060e06103258c828d0161026f565b9250506101006103378c828d0161023a565b9150509295985092959850929598565b611c27806103545f395ff3fe60806040526004361061013e575f3560e01c806375c7c9e0116100b557806397fcd1d71161006e57806397fcd1d7146103ec5780639a996efa14610416578063a3220df714610440578063b7661a5414610468578063b7dd32aa14610492578063bca353be146104bc5761013e565b806375c7c9e01461031257806378e979251461032e5780637df1f1b9146103585780637fca631f146103825780638fda356d146103ac57806392d09ceb146103c25761013e565b806330e9e5511161010757806330e9e551146102145780633577d94e1461023c5780634d3a69161461026657806358fe22be146102905780636baa17d0146102cc57806373dbd5d4146102f65761013e565b80620c70191461014257806302d05d3f1461016c5780630c7c9e6814610196578063186601ca146101c05780632765bdb9146101ea575b5f80fd5b34801561014d575f80fd5b506101566104d2565b604051610163919061133b565b60405180910390f35b348015610177575f80fd5b50610180610557565b60405161018d9190611393565b60405180910390f35b3480156101a1575f80fd5b506101aa61057c565b6040516101b791906113c6565b60405180910390f35b3480156101cb575f80fd5b506101d461058e565b6040516101e191906113c6565b60405180910390f35b3480156101f5575f80fd5b506101fe6105a1565b60405161020b919061133b565b60405180910390f35b34801561021f575f80fd5b5061023a60048036038101906102359190611437565b6105a7565b005b348015610247575f80fd5b506102506107bc565b60405161025d919061133b565b60405180910390f35b348015610271575f80fd5b5061027a6107c2565b60405161028791906113c6565b60405180910390f35b34801561029b575f80fd5b506102b660048036038101906102b19190611475565b6107d4565b6040516102c3919061133b565b60405180910390f35b3480156102d7575f80fd5b506102e0610888565b6040516102ed919061133b565b60405180910390f35b610310600480360381019061030b91906114a0565b61088e565b005b61032c600480360381019061032791906114a0565b610a60565b005b348015610339575f80fd5b50610342610c31565b60405161034f919061133b565b60405180910390f35b348015610363575f80fd5b5061036c610c37565b6040516103799190611393565b60405180910390f35b34801561038d575f80fd5b50610396610c5c565b6040516103a3919061133b565b60405180910390f35b3480156103b7575f80fd5b506103c0610c62565b005b3480156103cd575f80fd5b506103d6610db7565b6040516103e3919061133b565b60405180910390f35b3480156103f7575f80fd5b50610400610dbd565b60405161040d9190611526565b60405180910390f35b348015610421575f80fd5b5061042a610de0565b604051610437919061133b565b60405180910390f35b34801561044b575f80fd5b5061046660048036038101906104619190611437565b610de6565b005b348015610473575f80fd5b5061047c610ffa565b604051610489919061133b565b60405180910390f35b34801561049d575f80fd5b506104a6611000565b6040516104b3919061133b565b60405180910390f35b3480156104c7575f80fd5b506104d0611006565b005b5f600760019054906101000a900460ff16610522576040517f08c379a0000000000000000000000000000000000000000000000000000000008152600401610519906115bf565b60405180910390fd5b600d544210610533575f9050610554565b62015180600954600d54610547919061160a565b610551919061166a565b90505b90565b60015f9054906101000a900473ffffffffffffffffffffffffffffffffffffffff1681565b600c5f9054906101000a900460ff1681565b600760019054906101000a900460ff1681565b600b5481565b600760019054906101000a900460ff16156105f7576040517f08c379a00000000000000000000000000000000000000000000000000000000081526004016105ee9061170a565b60405180910390fd5b600454811461063b576040517f08c379a000000000000000000000000000000000000000000000000000000000815260040161063290611772565b60405180910390fd5b5f8054906101000a900473ffffffffffffffffffffffffffffffffffffffff1673ffffffffffffffffffffffffffffffffffffffff166323b872dd60025f9054906101000a900473ffffffffffffffffffffffffffffffffffffffff16846004546040518463ffffffff1660e01b81526004016106ba93929190611790565b6020604051808303815f875af11580156106d6573d5f803e3d5ffd5b505050506040513d601f19601f820116820180604052508101906106fa91906117ef565b610739576040517f08c379a000000000000000000000000000000000000000000000000000000000815260040161073090611864565b60405180910390fd5b60025f9054906101000a900473ffffffffffffffffffffffffffffffffffffffff1673ffffffffffffffffffffffffffffffffffffffff167ffe671c76cdf692b140b5703c07cfb25d42ddaa92d6566df7d188db5acf436bc88260075f9054906101000a900460ff166040516107b0929190611882565b60405180910390a25050565b60085481565b60075f9054906101000a900460ff1681565b5f600760019054906101000a900460ff16610824576040517f08c379a000000000000000000000000000000000000000000000000000000000815260040161081b906115bf565b60405180910390fd5b6201518060095442610836919061160a565b610840919061166a565b600a81905550610854600354600a5461118f565b600b81905550600b54821061087e576001600c5f6101000a81548160ff0219169083151502179055505b600b549050919050565b600d5481565b600760019054906101000a900460ff16156108de576040517f08c379a00000000000000000000000000000000000000000000000000000000081526004016108d59061170a565b60405180910390fd5b600454670de0b6b3a7640000346108f5919061166a565b14610935576040517f08c379a000000000000000000000000000000000000000000000000000000000815260040161092c906118f3565b60405180910390fd5b5f8173ffffffffffffffffffffffffffffffffffffffff163460405161095a9061193e565b5f6040518083038185875af1925050503d805f8114610994576040519150601f19603f3d011682016040523d82523d5f602084013e610999565b606091505b50509050806109dd576040517f08c379a00000000000000000000000000000000000000000000000000000000081526004016109d49061199c565b60405180910390fd5b60025f9054906101000a900473ffffffffffffffffffffffffffffffffffffffff1673ffffffffffffffffffffffffffffffffffffffff167ffe671c76cdf692b140b5703c07cfb25d42ddaa92d6566df7d188db5acf436bc83460075f9054906101000a900460ff16604051610a54929190611882565b60405180910390a25050565b600760019054906101000a900460ff16610aaf576040517f08c379a0000000000000000000000000000000000000000000000000000000008152600401610aa6906115bf565b60405180910390fd5b600b54670de0b6b3a764000034610ac6919061166a565b14610b06576040517f08c379a0000000000000000000000000000000000000000000000000000000008152600401610afd90611a04565b60405180910390fd5b5f8173ffffffffffffffffffffffffffffffffffffffff1634604051610b2b9061193e565b5f6040518083038185875af1925050503d805f8114610b65576040519150601f19603f3d011682016040523d82523d5f602084013e610b6a565b606091505b5050905080610bae576040517f08c379a0000000000000000000000000000000000000000000000000000000008152600401610ba59061199c565b60405180910390fd5b60025f9054906101000a900473ffffffffffffffffffffffffffffffffffffffff1673ffffffffffffffffffffffffffffffffffffffff167f16fa01357f6cb7df22aa7eb033e5c17d51df75a9b92f0f6885049c85d7d781d53460075f9054906101000a900460ff16604051610c25929190611882565b60405180910390a25050565b60095481565b60025f9054906101000a900473ffffffffffffffffffffffffffffffffffffffff1681565b60065481565b60015f9054906101000a900473ffffffffffffffffffffffffffffffffffffffff1673ffffffffffffffffffffffffffffffffffffffff163373ffffffffffffffffffffffffffffffffffffffff1614610cf1576040517f08c379a0000000000000000000000000000000000000000000000000000000008152600401610ce890611a92565b60405180910390fd5b600760019054906101000a900460ff1615610d41576040517f08c379a0000000000000000000000000000000000000000000000000000000008152600401610d389061170a565b60405180910390fd5b6001600760016101000a81548160ff02191690831515021790555042600981905550610d6b61121c565b600d819055507f089ebd6932f778a71ff463939ad23ae4577d4b0d691f94bd312ca29c15651d8d30600954610d9e6104d2565b604051610dad93929190611ab0565b60405180910390a1565b60045481565b5f8054906101000a900473ffffffffffffffffffffffffffffffffffffffff1681565b60055481565b600760019054906101000a900460ff16610e35576040517f08c379a0000000000000000000000000000000000000000000000000000000008152600401610e2c906115bf565b60405180910390fd5b6004548114610e79576040517f08c379a0000000000000000000000000000000000000000000000000000000008152600401610e7090611b2f565b60405180910390fd5b5f8054906101000a900473ffffffffffffffffffffffffffffffffffffffff1673ffffffffffffffffffffffffffffffffffffffff166323b872dd60025f9054906101000a900473ffffffffffffffffffffffffffffffffffffffff16846004546040518463ffffffff1660e01b8152600401610ef893929190611790565b6020604051808303815f875af1158015610f14573d5f803e3d5ffd5b505050506040513d601f19601f82011682018060405250810190610f3891906117ef565b610f77576040517f08c379a0000000000000000000000000000000000000000000000000000000008152600401610f6e90611864565b60405180910390fd5b60025f9054906101000a900473ffffffffffffffffffffffffffffffffffffffff1673ffffffffffffffffffffffffffffffffffffffff167f16fa01357f6cb7df22aa7eb033e5c17d51df75a9b92f0f6885049c85d7d781d58260075f9054906101000a900460ff16604051610fee929190611882565b60405180910390a25050565b600a5481565b60035481565b600760019054906101000a900460ff16611055576040517f08c379a000000000000000000000000000000000000000000000000000000000815260040161104c906115bf565b60405180910390fd5b60015f9054906101000a900473ffffffffffffffffffffffffffffffffffffffff1673ffffffffffffffffffffffffffffffffffffffff163373ffffffffffffffffffffffffffffffffffffffff16146110e4576040517f08c379a00000000000000000000000000000000000000000000000000000000081526004016110db90611a92565b60405180910390fd5b60015f9054906101000a900473ffffffffffffffffffffffffffffffffffffffff1673ffffffffffffffffffffffffffffffffffffffff163373ffffffffffffffffffffffffffffffffffffffff161461113c575f80fd5b5f600760016101000a81548160ff0219169083151502179055507f61b91cdb2d6b23bfe07da2bfba40f5f008499a45667b5df6af0f7389d46cce8c306040516111859190611393565b60405180910390a1565b5f600760019054906101000a900460ff166111df576040517f08c379a00000000000000000000000000000000000000000000000000000000081526004016111d6906115bf565b60405180910390fd5b5f6111ec83600654611240565b9050836298968082866111ff9190611b4d565b611209919061166a565b6112139190611b8e565b91505092915050565b5f6201518060085461122e9190611b4d565b60095461123b9190611b8e565b905090565b5f600760019054906101000a900460ff16611290576040517f08c379a0000000000000000000000000000000000000000000000000000000008152600401611287906115bf565b60405180910390fd5b5f82629896806112a09190611b8e565b90505f6298968090505f8590505b5f8111156113175760016002826112c59190611bc1565b036112e7576298968083836112da9190611b4d565b6112e4919061166a565b91505b6298968083846112f79190611b4d565b611301919061166a565b9250600281611310919061166a565b90506112ae565b81935050505092915050565b5f819050919050565b61133581611323565b82525050565b5f60208201905061134e5f83018461132c565b92915050565b5f73ffffffffffffffffffffffffffffffffffffffff82169050919050565b5f61137d82611354565b9050919050565b61138d81611373565b82525050565b5f6020820190506113a65f830184611384565b92915050565b5f8115159050919050565b6113c0816113ac565b82525050565b5f6020820190506113d95f8301846113b7565b92915050565b5f80fd5b6113ec81611373565b81146113f6575f80fd5b50565b5f81359050611407816113e3565b92915050565b61141681611323565b8114611420575f80fd5b50565b5f813590506114318161140d565b92915050565b5f806040838503121561144d5761144c6113df565b5b5f61145a858286016113f9565b925050602061146b85828601611423565b9150509250929050565b5f6020828403121561148a576114896113df565b5b5f61149784828501611423565b91505092915050565b5f602082840312156114b5576114b46113df565b5b5f6114c2848285016113f9565b91505092915050565b5f819050919050565b5f6114ee6114e96114e484611354565b6114cb565b611354565b9050919050565b5f6114ff826114d4565b9050919050565b5f611510826114f5565b9050919050565b61152081611506565b82525050565b5f6020820190506115395f830184611517565b92915050565b5f82825260208201905092915050565b7f43616e206f6e6c79206265206578656375746564207768656e2074686520636f5f8201527f6e74726163742069732061637469766174656400000000000000000000000000602082015250565b5f6115a960338361153f565b91506115b48261154f565b604082019050919050565b5f6020820190508181035f8301526115d68161159d565b9050919050565b7f4e487b71000000000000000000000000000000000000000000000000000000005f52601160045260245ffd5b5f61161482611323565b915061161f83611323565b9250828203905081811115611637576116366115dd565b5b92915050565b7f4e487b71000000000000000000000000000000000000000000000000000000005f52601260045260245ffd5b5f61167482611323565b915061167f83611323565b92508261168f5761168e61163d565b5b828204905092915050565b7f43616e206f6e6c79206265206578656375746564207768656e2074686520636f5f8201527f6e7472616374206973206e6f7420616374697661746564000000000000000000602082015250565b5f6116f460378361153f565b91506116ff8261169a565b604082019050919050565b5f6020820190508181035f830152611721816116e8565b9050919050565b7f496e636f7272656374205742544320636f6c6c61746572616c20616d6f756e745f82015250565b5f61175c60208361153f565b915061176782611728565b602082019050919050565b5f6020820190508181035f83015261178981611750565b9050919050565b5f6060820190506117a35f830186611384565b6117b06020830185611384565b6117bd604083018461132c565b949350505050565b6117ce816113ac565b81146117d8575f80fd5b50565b5f815190506117e9816117c5565b92915050565b5f60208284031215611804576118036113df565b5b5f611811848285016117db565b91505092915050565b7f57425443207472616e73666572206661696c65640000000000000000000000005f82015250565b5f61184e60148361153f565b91506118598261181a565b602082019050919050565b5f6020820190508181035f83015261187b81611842565b9050919050565b5f6040820190506118955f83018561132c565b6118a260208301846113b7565b9392505050565b7f496e636f72726563742045544820636f6c6c61746572616c20616d6f756e74005f82015250565b5f6118dd601f8361153f565b91506118e8826118a9565b602082019050919050565b5f6020820190508181035f83015261190a816118d1565b9050919050565b5f81905092915050565b50565b5f6119295f83611911565b91506119348261191b565b5f82019050919050565b5f6119488261191e565b9150819050919050565b7f5472616e73666572206661696c656400000000000000000000000000000000005f82015250565b5f611986600f8361153f565b915061199182611952565b602082019050919050565b5f6020820190508181035f8301526119b38161197a565b9050919050565b7f496e636f7272656374204554482072657061796d656e7420616d6f756e7400005f82015250565b5f6119ee601e8361153f565b91506119f9826119ba565b602082019050919050565b5f6020820190508181035f830152611a1b816119e2565b9050919050565b7f43616e206f6e6c792062652065786563757465642062792074686520636f6e745f8201527f726163742063726561746f720000000000000000000000000000000000000000602082015250565b5f611a7c602c8361153f565b9150611a8782611a22565b604082019050919050565b5f6020820190508181035f830152611aa981611a70565b9050919050565b5f606082019050611ac35f830186611384565b611ad0602083018561132c565b611add604083018461132c565b949350505050565b7f496e636f727265637420574254432072657061796d656e7420616d6f756e74005f82015250565b5f611b19601f8361153f565b9150611b2482611ae5565b602082019050919050565b5f6020820190508181035f830152611b4681611b0d565b9050919050565b5f611b5782611323565b9150611b6283611323565b9250828202611b7081611323565b91508282048414831517611b8757611b866115dd565b5b5092915050565b5f611b9882611323565b9150611ba383611323565b9250828201905080821115611bbb57611bba6115dd565b5b92915050565b5f611bcb82611323565b9150611bd683611323565b925082611be657611be561163d565b5b82820690509291505056fea26469706673582212208c562a37be97b8f11b18873e932d7d3da3ed748729fd28511301d304f508f6c264736f6c634300081a0033",
					"opcodes": "PUSH1 0x80 PUSH1 0x40 MSTORE CALLVALUE DUP1 ISZERO PUSH2 0xF JUMPI PUSH0 DUP1 REVERT JUMPDEST POP PUSH1 0x40 MLOAD PUSH2 0x1F7B CODESIZE SUB DUP1 PUSH2 0x1F7B DUP4 CODECOPY DUP2 DUP2 ADD PUSH1 0x40 MSTORE DUP2 ADD SWAP1 PUSH2 0x31 SWAP2 SWAP1 PUSH2 0x283 JUMP JUMPDEST DUP9 PUSH1 0x2 PUSH0 PUSH2 0x100 EXP DUP2 SLOAD DUP2 PUSH20 0xFFFFFFFFFFFFFFFFFFFFFFFFFFFFFFFFFFFFFFFF MUL NOT AND SWAP1 DUP4 PUSH20 0xFFFFFFFFFFFFFFFFFFFFFFFFFFFFFFFFFFFFFFFF AND MUL OR SWAP1 SSTORE POP CALLER PUSH1 0x1 PUSH0 PUSH2 0x100 EXP DUP2 SLOAD DUP2 PUSH20 0xFFFFFFFFFFFFFFFFFFFFFFFFFFFFFFFFFFFFFFFF MUL NOT AND SWAP1 DUP4 PUSH20 0xFFFFFFFFFFFFFFFFFFFFFFFFFFFFFFFFFFFFFFFF AND MUL OR SWAP1 SSTORE POP DUP8 PUSH0 DUP1 PUSH2 0x100 EXP DUP2 SLOAD DUP2 PUSH20 0xFFFFFFFFFFFFFFFFFFFFFFFFFFFFFFFFFFFFFFFF MUL NOT AND SWAP1 DUP4 PUSH20 0xFFFFFFFFFFFFFFFFFFFFFFFFFFFFFFFFFFFFFFFF AND MUL OR SWAP1 SSTORE POP DUP7 PUSH1 0x3 DUP2 SWAP1 SSTORE POP DUP6 PUSH1 0x7 PUSH0 PUSH2 0x100 EXP DUP2 SLOAD DUP2 PUSH1 0xFF MUL NOT AND SWAP1 DUP4 ISZERO ISZERO MUL OR SWAP1 SSTORE POP DUP5 PUSH1 0x4 DUP2 SWAP1 SSTORE POP DUP4 PUSH1 0x5 DUP2 SWAP1 SSTORE POP DUP3 PUSH1 0x6 DUP2 SWAP1 SSTORE POP DUP2 PUSH1 0x7 PUSH1 0x1 PUSH2 0x100 EXP DUP2 SLOAD DUP2 PUSH1 0xFF MUL NOT AND SWAP1 DUP4 ISZERO ISZERO MUL OR SWAP1 SSTORE POP DUP1 PUSH1 0x8 DUP2 SWAP1 SSTORE POP PUSH0 PUSH1 0x9 DUP2 SWAP1 SSTORE POP PUSH0 PUSH1 0xA DUP2 SWAP1 SSTORE POP PUSH0 PUSH1 0xB DUP2 SWAP1 SSTORE POP PUSH0 PUSH1 0xC PUSH0 PUSH2 0x100 EXP DUP2 SLOAD DUP2 PUSH1 0xFF MUL NOT AND SWAP1 DUP4 ISZERO ISZERO MUL OR SWAP1 SSTORE POP POP POP POP POP POP POP POP POP POP PUSH2 0x347 JUMP JUMPDEST PUSH0 DUP1 REVERT JUMPDEST PUSH0 PUSH20 0xFFFFFFFFFFFFFFFFFFFFFFFFFFFFFFFFFFFFFFFF DUP3 AND SWAP1 POP SWAP2 SWAP1 POP JUMP JUMPDEST PUSH0 PUSH2 0x1AF DUP3 PUSH2 0x186 JUMP JUMPDEST SWAP1 POP SWAP2 SWAP1 POP JUMP JUMPDEST PUSH2 0x1BF DUP2 PUSH2 0x1A5 JUMP JUMPDEST DUP2 EQ PUSH2 0x1C9 JUMPI PUSH0 DUP1 REVERT JUMPDEST POP JUMP JUMPDEST PUSH0 DUP2 MLOAD SWAP1 POP PUSH2 0x1DA DUP2 PUSH2 0x1B6 JUMP JUMPDEST SWAP3 SWAP2 POP POP JUMP JUMPDEST PUSH0 PUSH2 0x1EA DUP3 PUSH2 0x1A5 JUMP JUMPDEST SWAP1 POP SWAP2 SWAP1 POP JUMP JUMPDEST PUSH2 0x1FA DUP2 PUSH2 0x1E0 JUMP JUMPDEST DUP2 EQ PUSH2 0x204 JUMPI PUSH0 DUP1 REVERT JUMPDEST POP JUMP JUMPDEST PUSH0 DUP2 MLOAD SWAP1 POP PUSH2 0x215 DUP2 PUSH2 0x1F1 JUMP JUMPDEST SWAP3 SWAP2 POP POP JUMP JUMPDEST PUSH0 DUP2 SWAP1 POP SWAP2 SWAP1 POP JUMP JUMPDEST PUSH2 0x22D DUP2 PUSH2 0x21B JUMP JUMPDEST DUP2 EQ PUSH2 0x237 JUMPI PUSH0 DUP1 REVERT JUMPDEST POP JUMP JUMPDEST PUSH0 DUP2 MLOAD SWAP1 POP PUSH2 0x248 DUP2 PUSH2 0x224 JUMP JUMPDEST SWAP3 SWAP2 POP POP JUMP JUMPDEST PUSH0 DUP2 ISZERO ISZERO SWAP1 POP SWAP2 SWAP1 POP JUMP JUMPDEST PUSH2 0x262 DUP2 PUSH2 0x24E JUMP JUMPDEST DUP2 EQ PUSH2 0x26C JUMPI PUSH0 DUP1 REVERT JUMPDEST POP JUMP JUMPDEST PUSH0 DUP2 MLOAD SWAP1 POP PUSH2 0x27D DUP2 PUSH2 0x259 JUMP JUMPDEST SWAP3 SWAP2 POP POP JUMP JUMPDEST PUSH0 DUP1 PUSH0 DUP1 PUSH0 DUP1 PUSH0 DUP1 PUSH0 PUSH2 0x120 DUP11 DUP13 SUB SLT ISZERO PUSH2 0x2A1 JUMPI PUSH2 0x2A0 PUSH2 0x182 JUMP JUMPDEST JUMPDEST PUSH0 PUSH2 0x2AE DUP13 DUP3 DUP14 ADD PUSH2 0x1CC JUMP JUMPDEST SWAP10 POP POP PUSH1 0x20 PUSH2 0x2BF DUP13 DUP3 DUP14 ADD PUSH2 0x207 JUMP JUMPDEST SWAP9 POP POP PUSH1 0x40 PUSH2 0x2D0 DUP13 DUP3 DUP14 ADD PUSH2 0x23A JUMP JUMPDEST SWAP8 POP POP PUSH1 0x60 PUSH2 0x2E1 DUP13 DUP3 DUP14 ADD PUSH2 0x26F JUMP JUMPDEST SWAP7 POP POP PUSH1 0x80 PUSH2 0x2F2 DUP13 DUP3 DUP14 ADD PUSH2 0x23A JUMP JUMPDEST SWAP6 POP POP PUSH1 0xA0 PUSH2 0x303 DUP13 DUP3 DUP14 ADD PUSH2 0x23A JUMP JUMPDEST SWAP5 POP POP PUSH1 0xC0 PUSH2 0x314 DUP13 DUP3 DUP14 ADD PUSH2 0x23A JUMP JUMPDEST SWAP4 POP POP PUSH1 0xE0 PUSH2 0x325 DUP13 DUP3 DUP14 ADD PUSH2 0x26F JUMP JUMPDEST SWAP3 POP POP PUSH2 0x100 PUSH2 0x337 DUP13 DUP3 DUP14 ADD PUSH2 0x23A JUMP JUMPDEST SWAP2 POP POP SWAP3 SWAP6 SWAP9 POP SWAP3 SWAP6 SWAP9 POP SWAP3 SWAP6 SWAP9 JUMP JUMPDEST PUSH2 0x1C27 DUP1 PUSH2 0x354 PUSH0 CODECOPY PUSH0 RETURN INVALID PUSH1 0x80 PUSH1 0x40 MSTORE PUSH1 0x4 CALLDATASIZE LT PUSH2 0x13E JUMPI PUSH0 CALLDATALOAD PUSH1 0xE0 SHR DUP1 PUSH4 0x75C7C9E0 GT PUSH2 0xB5 JUMPI DUP1 PUSH4 0x97FCD1D7 GT PUSH2 0x6E JUMPI DUP1 PUSH4 0x97FCD1D7 EQ PUSH2 0x3EC JUMPI DUP1 PUSH4 0x9A996EFA EQ PUSH2 0x416 JUMPI DUP1 PUSH4 0xA3220DF7 EQ PUSH2 0x440 JUMPI DUP1 PUSH4 0xB7661A54 EQ PUSH2 0x468 JUMPI DUP1 PUSH4 0xB7DD32AA EQ PUSH2 0x492 JUMPI DUP1 PUSH4 0xBCA353BE EQ PUSH2 0x4BC JUMPI PUSH2 0x13E JUMP JUMPDEST DUP1 PUSH4 0x75C7C9E0 EQ PUSH2 0x312 JUMPI DUP1 PUSH4 0x78E97925 EQ PUSH2 0x32E JUMPI DUP1 PUSH4 0x7DF1F1B9 EQ PUSH2 0x358 JUMPI DUP1 PUSH4 0x7FCA631F EQ PUSH2 0x382 JUMPI DUP1 PUSH4 0x8FDA356D EQ PUSH2 0x3AC JUMPI DUP1 PUSH4 0x92D09CEB EQ PUSH2 0x3C2 JUMPI PUSH2 0x13E JUMP JUMPDEST DUP1 PUSH4 0x30E9E551 GT PUSH2 0x107 JUMPI DUP1 PUSH4 0x30E9E551 EQ PUSH2 0x214 JUMPI DUP1 PUSH4 0x3577D94E EQ PUSH2 0x23C JUMPI DUP1 PUSH4 0x4D3A6916 EQ PUSH2 0x266 JUMPI DUP1 PUSH4 0x58FE22BE EQ PUSH2 0x290 JUMPI DUP1 PUSH4 0x6BAA17D0 EQ PUSH2 0x2CC JUMPI DUP1 PUSH4 0x73DBD5D4 EQ PUSH2 0x2F6 JUMPI PUSH2 0x13E JUMP JUMPDEST DUP1 PUSH3 0xC7019 EQ PUSH2 0x142 JUMPI DUP1 PUSH4 0x2D05D3F EQ PUSH2 0x16C JUMPI DUP1 PUSH4 0xC7C9E68 EQ PUSH2 0x196 JUMPI DUP1 PUSH4 0x186601CA EQ PUSH2 0x1C0 JUMPI DUP1 PUSH4 0x2765BDB9 EQ PUSH2 0x1EA JUMPI JUMPDEST PUSH0 DUP1 REVERT JUMPDEST CALLVALUE DUP1 ISZERO PUSH2 0x14D JUMPI PUSH0 DUP1 REVERT JUMPDEST POP PUSH2 0x156 PUSH2 0x4D2 JUMP JUMPDEST PUSH1 0x40 MLOAD PUSH2 0x163 SWAP2 SWAP1 PUSH2 0x133B JUMP JUMPDEST PUSH1 0x40 MLOAD DUP1 SWAP2 SUB SWAP1 RETURN JUMPDEST CALLVALUE DUP1 ISZERO PUSH2 0x177 JUMPI PUSH0 DUP1 REVERT JUMPDEST POP PUSH2 0x180 PUSH2 0x557 JUMP JUMPDEST PUSH1 0x40 MLOAD PUSH2 0x18D SWAP2 SWAP1 PUSH2 0x1393 JUMP JUMPDEST PUSH1 0x40 MLOAD DUP1 SWAP2 SUB SWAP1 RETURN JUMPDEST CALLVALUE DUP1 ISZERO PUSH2 0x1A1 JUMPI PUSH0 DUP1 REVERT JUMPDEST POP PUSH2 0x1AA PUSH2 0x57C JUMP JUMPDEST PUSH1 0x40 MLOAD PUSH2 0x1B7 SWAP2 SWAP1 PUSH2 0x13C6 JUMP JUMPDEST PUSH1 0x40 MLOAD DUP1 SWAP2 SUB SWAP1 RETURN JUMPDEST CALLVALUE DUP1 ISZERO PUSH2 0x1CB JUMPI PUSH0 DUP1 REVERT JUMPDEST POP PUSH2 0x1D4 PUSH2 0x58E JUMP JUMPDEST PUSH1 0x40 MLOAD PUSH2 0x1E1 SWAP2 SWAP1 PUSH2 0x13C6 JUMP JUMPDEST PUSH1 0x40 MLOAD DUP1 SWAP2 SUB SWAP1 RETURN JUMPDEST CALLVALUE DUP1 ISZERO PUSH2 0x1F5 JUMPI PUSH0 DUP1 REVERT JUMPDEST POP PUSH2 0x1FE PUSH2 0x5A1 JUMP JUMPDEST PUSH1 0x40 MLOAD PUSH2 0x20B SWAP2 SWAP1 PUSH2 0x133B JUMP JUMPDEST PUSH1 0x40 MLOAD DUP1 SWAP2 SUB SWAP1 RETURN JUMPDEST CALLVALUE DUP1 ISZERO PUSH2 0x21F JUMPI PUSH0 DUP1 REVERT JUMPDEST POP PUSH2 0x23A PUSH1 0x4 DUP1 CALLDATASIZE SUB DUP2 ADD SWAP1 PUSH2 0x235 SWAP2 SWAP1 PUSH2 0x1437 JUMP JUMPDEST PUSH2 0x5A7 JUMP JUMPDEST STOP JUMPDEST CALLVALUE DUP1 ISZERO PUSH2 0x247 JUMPI PUSH0 DUP1 REVERT JUMPDEST POP PUSH2 0x250 PUSH2 0x7BC JUMP JUMPDEST PUSH1 0x40 MLOAD PUSH2 0x25D SWAP2 SWAP1 PUSH2 0x133B JUMP JUMPDEST PUSH1 0x40 MLOAD DUP1 SWAP2 SUB SWAP1 RETURN JUMPDEST CALLVALUE DUP1 ISZERO PUSH2 0x271 JUMPI PUSH0 DUP1 REVERT JUMPDEST POP PUSH2 0x27A PUSH2 0x7C2 JUMP JUMPDEST PUSH1 0x40 MLOAD PUSH2 0x287 SWAP2 SWAP1 PUSH2 0x13C6 JUMP JUMPDEST PUSH1 0x40 MLOAD DUP1 SWAP2 SUB SWAP1 RETURN JUMPDEST CALLVALUE DUP1 ISZERO PUSH2 0x29B JUMPI PUSH0 DUP1 REVERT JUMPDEST POP PUSH2 0x2B6 PUSH1 0x4 DUP1 CALLDATASIZE SUB DUP2 ADD SWAP1 PUSH2 0x2B1 SWAP2 SWAP1 PUSH2 0x1475 JUMP JUMPDEST PUSH2 0x7D4 JUMP JUMPDEST PUSH1 0x40 MLOAD PUSH2 0x2C3 SWAP2 SWAP1 PUSH2 0x133B JUMP JUMPDEST PUSH1 0x40 MLOAD DUP1 SWAP2 SUB SWAP1 RETURN JUMPDEST CALLVALUE DUP1 ISZERO PUSH2 0x2D7 JUMPI PUSH0 DUP1 REVERT JUMPDEST POP PUSH2 0x2E0 PUSH2 0x888 JUMP JUMPDEST PUSH1 0x40 MLOAD PUSH2 0x2ED SWAP2 SWAP1 PUSH2 0x133B JUMP JUMPDEST PUSH1 0x40 MLOAD DUP1 SWAP2 SUB SWAP1 RETURN JUMPDEST PUSH2 0x310 PUSH1 0x4 DUP1 CALLDATASIZE SUB DUP2 ADD SWAP1 PUSH2 0x30B SWAP2 SWAP1 PUSH2 0x14A0 JUMP JUMPDEST PUSH2 0x88E JUMP JUMPDEST STOP JUMPDEST PUSH2 0x32C PUSH1 0x4 DUP1 CALLDATASIZE SUB DUP2 ADD SWAP1 PUSH2 0x327 SWAP2 SWAP1 PUSH2 0x14A0 JUMP JUMPDEST PUSH2 0xA60 JUMP JUMPDEST STOP JUMPDEST CALLVALUE DUP1 ISZERO PUSH2 0x339 JUMPI PUSH0 DUP1 REVERT JUMPDEST POP PUSH2 0x342 PUSH2 0xC31 JUMP JUMPDEST PUSH1 0x40 MLOAD PUSH2 0x34F SWAP2 SWAP1 PUSH2 0x133B JUMP JUMPDEST PUSH1 0x40 MLOAD DUP1 SWAP2 SUB SWAP1 RETURN JUMPDEST CALLVALUE DUP1 ISZERO PUSH2 0x363 JUMPI PUSH0 DUP1 REVERT JUMPDEST POP PUSH2 0x36C PUSH2 0xC37 JUMP JUMPDEST PUSH1 0x40 MLOAD PUSH2 0x379 SWAP2 SWAP1 PUSH2 0x1393 JUMP JUMPDEST PUSH1 0x40 MLOAD DUP1 SWAP2 SUB SWAP1 RETURN JUMPDEST CALLVALUE DUP1 ISZERO PUSH2 0x38D JUMPI PUSH0 DUP1 REVERT JUMPDEST POP PUSH2 0x396 PUSH2 0xC5C JUMP JUMPDEST PUSH1 0x40 MLOAD PUSH2 0x3A3 SWAP2 SWAP1 PUSH2 0x133B JUMP JUMPDEST PUSH1 0x40 MLOAD DUP1 SWAP2 SUB SWAP1 RETURN JUMPDEST CALLVALUE DUP1 ISZERO PUSH2 0x3B7 JUMPI PUSH0 DUP1 REVERT JUMPDEST POP PUSH2 0x3C0 PUSH2 0xC62 JUMP JUMPDEST STOP JUMPDEST CALLVALUE DUP1 ISZERO PUSH2 0x3CD JUMPI PUSH0 DUP1 REVERT JUMPDEST POP PUSH2 0x3D6 PUSH2 0xDB7 JUMP JUMPDEST PUSH1 0x40 MLOAD PUSH2 0x3E3 SWAP2 SWAP1 PUSH2 0x133B JUMP JUMPDEST PUSH1 0x40 MLOAD DUP1 SWAP2 SUB SWAP1 RETURN JUMPDEST CALLVALUE DUP1 ISZERO PUSH2 0x3F7 JUMPI PUSH0 DUP1 REVERT JUMPDEST POP PUSH2 0x400 PUSH2 0xDBD JUMP JUMPDEST PUSH1 0x40 MLOAD PUSH2 0x40D SWAP2 SWAP1 PUSH2 0x1526 JUMP JUMPDEST PUSH1 0x40 MLOAD DUP1 SWAP2 SUB SWAP1 RETURN JUMPDEST CALLVALUE DUP1 ISZERO PUSH2 0x421 JUMPI PUSH0 DUP1 REVERT JUMPDEST POP PUSH2 0x42A PUSH2 0xDE0 JUMP JUMPDEST PUSH1 0x40 MLOAD PUSH2 0x437 SWAP2 SWAP1 PUSH2 0x133B JUMP JUMPDEST PUSH1 0x40 MLOAD DUP1 SWAP2 SUB SWAP1 RETURN JUMPDEST CALLVALUE DUP1 ISZERO PUSH2 0x44B JUMPI PUSH0 DUP1 REVERT JUMPDEST POP PUSH2 0x466 PUSH1 0x4 DUP1 CALLDATASIZE SUB DUP2 ADD SWAP1 PUSH2 0x461 SWAP2 SWAP1 PUSH2 0x1437 JUMP JUMPDEST PUSH2 0xDE6 JUMP JUMPDEST STOP JUMPDEST CALLVALUE DUP1 ISZERO PUSH2 0x473 JUMPI PUSH0 DUP1 REVERT JUMPDEST POP PUSH2 0x47C PUSH2 0xFFA JUMP JUMPDEST PUSH1 0x40 MLOAD PUSH2 0x489 SWAP2 SWAP1 PUSH2 0x133B JUMP JUMPDEST PUSH1 0x40 MLOAD DUP1 SWAP2 SUB SWAP1 RETURN JUMPDEST CALLVALUE DUP1 ISZERO PUSH2 0x49D JUMPI PUSH0 DUP1 REVERT JUMPDEST POP PUSH2 0x4A6 PUSH2 0x1000 JUMP JUMPDEST PUSH1 0x40 MLOAD PUSH2 0x4B3 SWAP2 SWAP1 PUSH2 0x133B JUMP JUMPDEST PUSH1 0x40 MLOAD DUP1 SWAP2 SUB SWAP1 RETURN JUMPDEST CALLVALUE DUP1 ISZERO PUSH2 0x4C7 JUMPI PUSH0 DUP1 REVERT JUMPDEST POP PUSH2 0x4D0 PUSH2 0x1006 JUMP JUMPDEST STOP JUMPDEST PUSH0 PUSH1 0x7 PUSH1 0x1 SWAP1 SLOAD SWAP1 PUSH2 0x100 EXP SWAP1 DIV PUSH1 0xFF AND PUSH2 0x522 JUMPI PUSH1 0x40 MLOAD PUSH32 0x8C379A000000000000000000000000000000000000000000000000000000000 DUP2 MSTORE PUSH1 0x4 ADD PUSH2 0x519 SWAP1 PUSH2 0x15BF JUMP JUMPDEST PUSH1 0x40 MLOAD DUP1 SWAP2 SUB SWAP1 REVERT JUMPDEST PUSH1 0xD SLOAD TIMESTAMP LT PUSH2 0x533 JUMPI PUSH0 SWAP1 POP PUSH2 0x554 JUMP JUMPDEST PUSH3 0x15180 PUSH1 0x9 SLOAD PUSH1 0xD SLOAD PUSH2 0x547 SWAP2 SWAP1 PUSH2 0x160A JUMP JUMPDEST PUSH2 0x551 SWAP2 SWAP1 PUSH2 0x166A JUMP JUMPDEST SWAP1 POP JUMPDEST SWAP1 JUMP JUMPDEST PUSH1 0x1 PUSH0 SWAP1 SLOAD SWAP1 PUSH2 0x100 EXP SWAP1 DIV PUSH20 0xFFFFFFFFFFFFFFFFFFFFFFFFFFFFFFFFFFFFFFFF AND DUP2 JUMP JUMPDEST PUSH1 0xC PUSH0 SWAP1 SLOAD SWAP1 PUSH2 0x100 EXP SWAP1 DIV PUSH1 0xFF AND DUP2 JUMP JUMPDEST PUSH1 0x7 PUSH1 0x1 SWAP1 SLOAD SWAP1 PUSH2 0x100 EXP SWAP1 DIV PUSH1 0xFF AND DUP2 JUMP JUMPDEST PUSH1 0xB SLOAD DUP2 JUMP JUMPDEST PUSH1 0x7 PUSH1 0x1 SWAP1 SLOAD SWAP1 PUSH2 0x100 EXP SWAP1 DIV PUSH1 0xFF AND ISZERO PUSH2 0x5F7 JUMPI PUSH1 0x40 MLOAD PUSH32 0x8C379A000000000000000000000000000000000000000000000000000000000 DUP2 MSTORE PUSH1 0x4 ADD PUSH2 0x5EE SWAP1 PUSH2 0x170A JUMP JUMPDEST PUSH1 0x40 MLOAD DUP1 SWAP2 SUB SWAP1 REVERT JUMPDEST PUSH1 0x4 SLOAD DUP2 EQ PUSH2 0x63B JUMPI PUSH1 0x40 MLOAD PUSH32 0x8C379A000000000000000000000000000000000000000000000000000000000 DUP2 MSTORE PUSH1 0x4 ADD PUSH2 0x632 SWAP1 PUSH2 0x1772 JUMP JUMPDEST PUSH1 0x40 MLOAD DUP1 SWAP2 SUB SWAP1 REVERT JUMPDEST PUSH0 DUP1 SLOAD SWAP1 PUSH2 0x100 EXP SWAP1 DIV PUSH20 0xFFFFFFFFFFFFFFFFFFFFFFFFFFFFFFFFFFFFFFFF AND PUSH20 0xFFFFFFFFFFFFFFFFFFFFFFFFFFFFFFFFFFFFFFFF AND PUSH4 0x23B872DD PUSH1 0x2 PUSH0 SWAP1 SLOAD SWAP1 PUSH2 0x100 EXP SWAP1 DIV PUSH20 0xFFFFFFFFFFFFFFFFFFFFFFFFFFFFFFFFFFFFFFFF AND DUP5 PUSH1 0x4 SLOAD PUSH1 0x40 MLOAD DUP5 PUSH4 0xFFFFFFFF AND PUSH1 0xE0 SHL DUP2 MSTORE PUSH1 0x4 ADD PUSH2 0x6BA SWAP4 SWAP3 SWAP2 SWAP1 PUSH2 0x1790 JUMP JUMPDEST PUSH1 0x20 PUSH1 0x40 MLOAD DUP1 DUP4 SUB DUP2 PUSH0 DUP8 GAS CALL ISZERO DUP1 ISZERO PUSH2 0x6D6 JUMPI RETURNDATASIZE PUSH0 DUP1 RETURNDATACOPY RETURNDATASIZE PUSH0 REVERT JUMPDEST POP POP POP POP PUSH1 0x40 MLOAD RETURNDATASIZE PUSH1 0x1F NOT PUSH1 0x1F DUP3 ADD AND DUP3 ADD DUP1 PUSH1 0x40 MSTORE POP DUP2 ADD SWAP1 PUSH2 0x6FA SWAP2 SWAP1 PUSH2 0x17EF JUMP JUMPDEST PUSH2 0x739 JUMPI PUSH1 0x40 MLOAD PUSH32 0x8C379A000000000000000000000000000000000000000000000000000000000 DUP2 MSTORE PUSH1 0x4 ADD PUSH2 0x730 SWAP1 PUSH2 0x1864 JUMP JUMPDEST PUSH1 0x40 MLOAD DUP1 SWAP2 SUB SWAP1 REVERT JUMPDEST PUSH1 0x2 PUSH0 SWAP1 SLOAD SWAP1 PUSH2 0x100 EXP SWAP1 DIV PUSH20 0xFFFFFFFFFFFFFFFFFFFFFFFFFFFFFFFFFFFFFFFF AND PUSH20 0xFFFFFFFFFFFFFFFFFFFFFFFFFFFFFFFFFFFFFFFF AND PUSH32 0xFE671C76CDF692B140B5703C07CFB25D42DDAA92D6566DF7D188DB5ACF436BC8 DUP3 PUSH1 0x7 PUSH0 SWAP1 SLOAD SWAP1 PUSH2 0x100 EXP SWAP1 DIV PUSH1 0xFF AND PUSH1 0x40 MLOAD PUSH2 0x7B0 SWAP3 SWAP2 SWAP1 PUSH2 0x1882 JUMP JUMPDEST PUSH1 0x40 MLOAD DUP1 SWAP2 SUB SWAP1 LOG2 POP POP JUMP JUMPDEST PUSH1 0x8 SLOAD DUP2 JUMP JUMPDEST PUSH1 0x7 PUSH0 SWAP1 SLOAD SWAP1 PUSH2 0x100 EXP SWAP1 DIV PUSH1 0xFF AND DUP2 JUMP JUMPDEST PUSH0 PUSH1 0x7 PUSH1 0x1 SWAP1 SLOAD SWAP1 PUSH2 0x100 EXP SWAP1 DIV PUSH1 0xFF AND PUSH2 0x824 JUMPI PUSH1 0x40 MLOAD PUSH32 0x8C379A000000000000000000000000000000000000000000000000000000000 DUP2 MSTORE PUSH1 0x4 ADD PUSH2 0x81B SWAP1 PUSH2 0x15BF JUMP JUMPDEST PUSH1 0x40 MLOAD DUP1 SWAP2 SUB SWAP1 REVERT JUMPDEST PUSH3 0x15180 PUSH1 0x9 SLOAD TIMESTAMP PUSH2 0x836 SWAP2 SWAP1 PUSH2 0x160A JUMP JUMPDEST PUSH2 0x840 SWAP2 SWAP1 PUSH2 0x166A JUMP JUMPDEST PUSH1 0xA DUP2 SWAP1 SSTORE POP PUSH2 0x854 PUSH1 0x3 SLOAD PUSH1 0xA SLOAD PUSH2 0x118F JUMP JUMPDEST PUSH1 0xB DUP2 SWAP1 SSTORE POP PUSH1 0xB SLOAD DUP3 LT PUSH2 0x87E JUMPI PUSH1 0x1 PUSH1 0xC PUSH0 PUSH2 0x100 EXP DUP2 SLOAD DUP2 PUSH1 0xFF MUL NOT AND SWAP1 DUP4 ISZERO ISZERO MUL OR SWAP1 SSTORE POP JUMPDEST PUSH1 0xB SLOAD SWAP1 POP SWAP2 SWAP1 POP JUMP JUMPDEST PUSH1 0xD SLOAD DUP2 JUMP JUMPDEST PUSH1 0x7 PUSH1 0x1 SWAP1 SLOAD SWAP1 PUSH2 0x100 EXP SWAP1 DIV PUSH1 0xFF AND ISZERO PUSH2 0x8DE JUMPI PUSH1 0x40 MLOAD PUSH32 0x8C379A000000000000000000000000000000000000000000000000000000000 DUP2 MSTORE PUSH1 0x4 ADD PUSH2 0x8D5 SWAP1 PUSH2 0x170A JUMP JUMPDEST PUSH1 0x40 MLOAD DUP1 SWAP2 SUB SWAP1 REVERT JUMPDEST PUSH1 0x4 SLOAD PUSH8 0xDE0B6B3A7640000 CALLVALUE PUSH2 0x8F5 SWAP2 SWAP1 PUSH2 0x166A JUMP JUMPDEST EQ PUSH2 0x935 JUMPI PUSH1 0x40 MLOAD PUSH32 0x8C379A000000000000000000000000000000000000000000000000000000000 DUP2 MSTORE PUSH1 0x4 ADD PUSH2 0x92C SWAP1 PUSH2 0x18F3 JUMP JUMPDEST PUSH1 0x40 MLOAD DUP1 SWAP2 SUB SWAP1 REVERT JUMPDEST PUSH0 DUP2 PUSH20 0xFFFFFFFFFFFFFFFFFFFFFFFFFFFFFFFFFFFFFFFF AND CALLVALUE PUSH1 0x40 MLOAD PUSH2 0x95A SWAP1 PUSH2 0x193E JUMP JUMPDEST PUSH0 PUSH1 0x40 MLOAD DUP1 DUP4 SUB DUP2 DUP6 DUP8 GAS CALL SWAP3 POP POP POP RETURNDATASIZE DUP1 PUSH0 DUP2 EQ PUSH2 0x994 JUMPI PUSH1 0x40 MLOAD SWAP2 POP PUSH1 0x1F NOT PUSH1 0x3F RETURNDATASIZE ADD AND DUP3 ADD PUSH1 0x40 MSTORE RETURNDATASIZE DUP3 MSTORE RETURNDATASIZE PUSH0 PUSH1 0x20 DUP5 ADD RETURNDATACOPY PUSH2 0x999 JUMP JUMPDEST PUSH1 0x60 SWAP2 POP JUMPDEST POP POP SWAP1 POP DUP1 PUSH2 0x9DD JUMPI PUSH1 0x40 MLOAD PUSH32 0x8C379A000000000000000000000000000000000000000000000000000000000 DUP2 MSTORE PUSH1 0x4 ADD PUSH2 0x9D4 SWAP1 PUSH2 0x199C JUMP JUMPDEST PUSH1 0x40 MLOAD DUP1 SWAP2 SUB SWAP1 REVERT JUMPDEST PUSH1 0x2 PUSH0 SWAP1 SLOAD SWAP1 PUSH2 0x100 EXP SWAP1 DIV PUSH20 0xFFFFFFFFFFFFFFFFFFFFFFFFFFFFFFFFFFFFFFFF AND PUSH20 0xFFFFFFFFFFFFFFFFFFFFFFFFFFFFFFFFFFFFFFFF AND PUSH32 0xFE671C76CDF692B140B5703C07CFB25D42DDAA92D6566DF7D188DB5ACF436BC8 CALLVALUE PUSH1 0x7 PUSH0 SWAP1 SLOAD SWAP1 PUSH2 0x100 EXP SWAP1 DIV PUSH1 0xFF AND PUSH1 0x40 MLOAD PUSH2 0xA54 SWAP3 SWAP2 SWAP1 PUSH2 0x1882 JUMP JUMPDEST PUSH1 0x40 MLOAD DUP1 SWAP2 SUB SWAP1 LOG2 POP POP JUMP JUMPDEST PUSH1 0x7 PUSH1 0x1 SWAP1 SLOAD SWAP1 PUSH2 0x100 EXP SWAP1 DIV PUSH1 0xFF AND PUSH2 0xAAF JUMPI PUSH1 0x40 MLOAD PUSH32 0x8C379A000000000000000000000000000000000000000000000000000000000 DUP2 MSTORE PUSH1 0x4 ADD PUSH2 0xAA6 SWAP1 PUSH2 0x15BF JUMP JUMPDEST PUSH1 0x40 MLOAD DUP1 SWAP2 SUB SWAP1 REVERT JUMPDEST PUSH1 0xB SLOAD PUSH8 0xDE0B6B3A7640000 CALLVALUE PUSH2 0xAC6 SWAP2 SWAP1 PUSH2 0x166A JUMP JUMPDEST EQ PUSH2 0xB06 JUMPI PUSH1 0x40 MLOAD PUSH32 0x8C379A000000000000000000000000000000000000000000000000000000000 DUP2 MSTORE PUSH1 0x4 ADD PUSH2 0xAFD SWAP1 PUSH2 0x1A04 JUMP JUMPDEST PUSH1 0x40 MLOAD DUP1 SWAP2 SUB SWAP1 REVERT JUMPDEST PUSH0 DUP2 PUSH20 0xFFFFFFFFFFFFFFFFFFFFFFFFFFFFFFFFFFFFFFFF AND CALLVALUE PUSH1 0x40 MLOAD PUSH2 0xB2B SWAP1 PUSH2 0x193E JUMP JUMPDEST PUSH0 PUSH1 0x40 MLOAD DUP1 DUP4 SUB DUP2 DUP6 DUP8 GAS CALL SWAP3 POP POP POP RETURNDATASIZE DUP1 PUSH0 DUP2 EQ PUSH2 0xB65 JUMPI PUSH1 0x40 MLOAD SWAP2 POP PUSH1 0x1F NOT PUSH1 0x3F RETURNDATASIZE ADD AND DUP3 ADD PUSH1 0x40 MSTORE RETURNDATASIZE DUP3 MSTORE RETURNDATASIZE PUSH0 PUSH1 0x20 DUP5 ADD RETURNDATACOPY PUSH2 0xB6A JUMP JUMPDEST PUSH1 0x60 SWAP2 POP JUMPDEST POP POP SWAP1 POP DUP1 PUSH2 0xBAE JUMPI PUSH1 0x40 MLOAD PUSH32 0x8C379A000000000000000000000000000000000000000000000000000000000 DUP2 MSTORE PUSH1 0x4 ADD PUSH2 0xBA5 SWAP1 PUSH2 0x199C JUMP JUMPDEST PUSH1 0x40 MLOAD DUP1 SWAP2 SUB SWAP1 REVERT JUMPDEST PUSH1 0x2 PUSH0 SWAP1 SLOAD SWAP1 PUSH2 0x100 EXP SWAP1 DIV PUSH20 0xFFFFFFFFFFFFFFFFFFFFFFFFFFFFFFFFFFFFFFFF AND PUSH20 0xFFFFFFFFFFFFFFFFFFFFFFFFFFFFFFFFFFFFFFFF AND PUSH32 0x16FA01357F6CB7DF22AA7EB033E5C17D51DF75A9B92F0F6885049C85D7D781D5 CALLVALUE PUSH1 0x7 PUSH0 SWAP1 SLOAD SWAP1 PUSH2 0x100 EXP SWAP1 DIV PUSH1 0xFF AND PUSH1 0x40 MLOAD PUSH2 0xC25 SWAP3 SWAP2 SWAP1 PUSH2 0x1882 JUMP JUMPDEST PUSH1 0x40 MLOAD DUP1 SWAP2 SUB SWAP1 LOG2 POP POP JUMP JUMPDEST PUSH1 0x9 SLOAD DUP2 JUMP JUMPDEST PUSH1 0x2 PUSH0 SWAP1 SLOAD SWAP1 PUSH2 0x100 EXP SWAP1 DIV PUSH20 0xFFFFFFFFFFFFFFFFFFFFFFFFFFFFFFFFFFFFFFFF AND DUP2 JUMP JUMPDEST PUSH1 0x6 SLOAD DUP2 JUMP JUMPDEST PUSH1 0x1 PUSH0 SWAP1 SLOAD SWAP1 PUSH2 0x100 EXP SWAP1 DIV PUSH20 0xFFFFFFFFFFFFFFFFFFFFFFFFFFFFFFFFFFFFFFFF AND PUSH20 0xFFFFFFFFFFFFFFFFFFFFFFFFFFFFFFFFFFFFFFFF AND CALLER PUSH20 0xFFFFFFFFFFFFFFFFFFFFFFFFFFFFFFFFFFFFFFFF AND EQ PUSH2 0xCF1 JUMPI PUSH1 0x40 MLOAD PUSH32 0x8C379A000000000000000000000000000000000000000000000000000000000 DUP2 MSTORE PUSH1 0x4 ADD PUSH2 0xCE8 SWAP1 PUSH2 0x1A92 JUMP JUMPDEST PUSH1 0x40 MLOAD DUP1 SWAP2 SUB SWAP1 REVERT JUMPDEST PUSH1 0x7 PUSH1 0x1 SWAP1 SLOAD SWAP1 PUSH2 0x100 EXP SWAP1 DIV PUSH1 0xFF AND ISZERO PUSH2 0xD41 JUMPI PUSH1 0x40 MLOAD PUSH32 0x8C379A000000000000000000000000000000000000000000000000000000000 DUP2 MSTORE PUSH1 0x4 ADD PUSH2 0xD38 SWAP1 PUSH2 0x170A JUMP JUMPDEST PUSH1 0x40 MLOAD DUP1 SWAP2 SUB SWAP1 REVERT JUMPDEST PUSH1 0x1 PUSH1 0x7 PUSH1 0x1 PUSH2 0x100 EXP DUP2 SLOAD DUP2 PUSH1 0xFF MUL NOT AND SWAP1 DUP4 ISZERO ISZERO MUL OR SWAP1 SSTORE POP TIMESTAMP PUSH1 0x9 DUP2 SWAP1 SSTORE POP PUSH2 0xD6B PUSH2 0x121C JUMP JUMPDEST PUSH1 0xD DUP2 SWAP1 SSTORE POP PUSH32 0x89EBD6932F778A71FF463939AD23AE4577D4B0D691F94BD312CA29C15651D8D ADDRESS PUSH1 0x9 SLOAD PUSH2 0xD9E PUSH2 0x4D2 JUMP JUMPDEST PUSH1 0x40 MLOAD PUSH2 0xDAD SWAP4 SWAP3 SWAP2 SWAP1 PUSH2 0x1AB0 JUMP JUMPDEST PUSH1 0x40 MLOAD DUP1 SWAP2 SUB SWAP1 LOG1 JUMP JUMPDEST PUSH1 0x4 SLOAD DUP2 JUMP JUMPDEST PUSH0 DUP1 SLOAD SWAP1 PUSH2 0x100 EXP SWAP1 DIV PUSH20 0xFFFFFFFFFFFFFFFFFFFFFFFFFFFFFFFFFFFFFFFF AND DUP2 JUMP JUMPDEST PUSH1 0x5 SLOAD DUP2 JUMP JUMPDEST PUSH1 0x7 PUSH1 0x1 SWAP1 SLOAD SWAP1 PUSH2 0x100 EXP SWAP1 DIV PUSH1 0xFF AND PUSH2 0xE35 JUMPI PUSH1 0x40 MLOAD PUSH32 0x8C379A000000000000000000000000000000000000000000000000000000000 DUP2 MSTORE PUSH1 0x4 ADD PUSH2 0xE2C SWAP1 PUSH2 0x15BF JUMP JUMPDEST PUSH1 0x40 MLOAD DUP1 SWAP2 SUB SWAP1 REVERT JUMPDEST PUSH1 0x4 SLOAD DUP2 EQ PUSH2 0xE79 JUMPI PUSH1 0x40 MLOAD PUSH32 0x8C379A000000000000000000000000000000000000000000000000000000000 DUP2 MSTORE PUSH1 0x4 ADD PUSH2 0xE70 SWAP1 PUSH2 0x1B2F JUMP JUMPDEST PUSH1 0x40 MLOAD DUP1 SWAP2 SUB SWAP1 REVERT JUMPDEST PUSH0 DUP1 SLOAD SWAP1 PUSH2 0x100 EXP SWAP1 DIV PUSH20 0xFFFFFFFFFFFFFFFFFFFFFFFFFFFFFFFFFFFFFFFF AND PUSH20 0xFFFFFFFFFFFFFFFFFFFFFFFFFFFFFFFFFFFFFFFF AND PUSH4 0x23B872DD PUSH1 0x2 PUSH0 SWAP1 SLOAD SWAP1 PUSH2 0x100 EXP SWAP1 DIV PUSH20 0xFFFFFFFFFFFFFFFFFFFFFFFFFFFFFFFFFFFFFFFF AND DUP5 PUSH1 0x4 SLOAD PUSH1 0x40 MLOAD DUP5 PUSH4 0xFFFFFFFF AND PUSH1 0xE0 SHL DUP2 MSTORE PUSH1 0x4 ADD PUSH2 0xEF8 SWAP4 SWAP3 SWAP2 SWAP1 PUSH2 0x1790 JUMP JUMPDEST PUSH1 0x20 PUSH1 0x40 MLOAD DUP1 DUP4 SUB DUP2 PUSH0 DUP8 GAS CALL ISZERO DUP1 ISZERO PUSH2 0xF14 JUMPI RETURNDATASIZE PUSH0 DUP1 RETURNDATACOPY RETURNDATASIZE PUSH0 REVERT JUMPDEST POP POP POP POP PUSH1 0x40 MLOAD RETURNDATASIZE PUSH1 0x1F NOT PUSH1 0x1F DUP3 ADD AND DUP3 ADD DUP1 PUSH1 0x40 MSTORE POP DUP2 ADD SWAP1 PUSH2 0xF38 SWAP2 SWAP1 PUSH2 0x17EF JUMP JUMPDEST PUSH2 0xF77 JUMPI PUSH1 0x40 MLOAD PUSH32 0x8C379A000000000000000000000000000000000000000000000000000000000 DUP2 MSTORE PUSH1 0x4 ADD PUSH2 0xF6E SWAP1 PUSH2 0x1864 JUMP JUMPDEST PUSH1 0x40 MLOAD DUP1 SWAP2 SUB SWAP1 REVERT JUMPDEST PUSH1 0x2 PUSH0 SWAP1 SLOAD SWAP1 PUSH2 0x100 EXP SWAP1 DIV PUSH20 0xFFFFFFFFFFFFFFFFFFFFFFFFFFFFFFFFFFFFFFFF AND PUSH20 0xFFFFFFFFFFFFFFFFFFFFFFFFFFFFFFFFFFFFFFFF AND PUSH32 0x16FA01357F6CB7DF22AA7EB033E5C17D51DF75A9B92F0F6885049C85D7D781D5 DUP3 PUSH1 0x7 PUSH0 SWAP1 SLOAD SWAP1 PUSH2 0x100 EXP SWAP1 DIV PUSH1 0xFF AND PUSH1 0x40 MLOAD PUSH2 0xFEE SWAP3 SWAP2 SWAP1 PUSH2 0x1882 JUMP JUMPDEST PUSH1 0x40 MLOAD DUP1 SWAP2 SUB SWAP1 LOG2 POP POP JUMP JUMPDEST PUSH1 0xA SLOAD DUP2 JUMP JUMPDEST PUSH1 0x3 SLOAD DUP2 JUMP JUMPDEST PUSH1 0x7 PUSH1 0x1 SWAP1 SLOAD SWAP1 PUSH2 0x100 EXP SWAP1 DIV PUSH1 0xFF AND PUSH2 0x1055 JUMPI PUSH1 0x40 MLOAD PUSH32 0x8C379A000000000000000000000000000000000000000000000000000000000 DUP2 MSTORE PUSH1 0x4 ADD PUSH2 0x104C SWAP1 PUSH2 0x15BF JUMP JUMPDEST PUSH1 0x40 MLOAD DUP1 SWAP2 SUB SWAP1 REVERT JUMPDEST PUSH1 0x1 PUSH0 SWAP1 SLOAD SWAP1 PUSH2 0x100 EXP SWAP1 DIV PUSH20 0xFFFFFFFFFFFFFFFFFFFFFFFFFFFFFFFFFFFFFFFF AND PUSH20 0xFFFFFFFFFFFFFFFFFFFFFFFFFFFFFFFFFFFFFFFF AND CALLER PUSH20 0xFFFFFFFFFFFFFFFFFFFFFFFFFFFFFFFFFFFFFFFF AND EQ PUSH2 0x10E4 JUMPI PUSH1 0x40 MLOAD PUSH32 0x8C379A000000000000000000000000000000000000000000000000000000000 DUP2 MSTORE PUSH1 0x4 ADD PUSH2 0x10DB SWAP1 PUSH2 0x1A92 JUMP JUMPDEST PUSH1 0x40 MLOAD DUP1 SWAP2 SUB SWAP1 REVERT JUMPDEST PUSH1 0x1 PUSH0 SWAP1 SLOAD SWAP1 PUSH2 0x100 EXP SWAP1 DIV PUSH20 0xFFFFFFFFFFFFFFFFFFFFFFFFFFFFFFFFFFFFFFFF AND PUSH20 0xFFFFFFFFFFFFFFFFFFFFFFFFFFFFFFFFFFFFFFFF AND CALLER PUSH20 0xFFFFFFFFFFFFFFFFFFFFFFFFFFFFFFFFFFFFFFFF AND EQ PUSH2 0x113C JUMPI PUSH0 DUP1 REVERT JUMPDEST PUSH0 PUSH1 0x7 PUSH1 0x1 PUSH2 0x100 EXP DUP2 SLOAD DUP2 PUSH1 0xFF MUL NOT AND SWAP1 DUP4 ISZERO ISZERO MUL OR SWAP1 SSTORE POP PUSH32 0x61B91CDB2D6B23BFE07DA2BFBA40F5F008499A45667B5DF6AF0F7389D46CCE8C ADDRESS PUSH1 0x40 MLOAD PUSH2 0x1185 SWAP2 SWAP1 PUSH2 0x1393 JUMP JUMPDEST PUSH1 0x40 MLOAD DUP1 SWAP2 SUB SWAP1 LOG1 JUMP JUMPDEST PUSH0 PUSH1 0x7 PUSH1 0x1 SWAP1 SLOAD SWAP1 PUSH2 0x100 EXP SWAP1 DIV PUSH1 0xFF AND PUSH2 0x11DF JUMPI PUSH1 0x40 MLOAD PUSH32 0x8C379A000000000000000000000000000000000000000000000000000000000 DUP2 MSTORE PUSH1 0x4 ADD PUSH2 0x11D6 SWAP1 PUSH2 0x15BF JUMP JUMPDEST PUSH1 0x40 MLOAD DUP1 SWAP2 SUB SWAP1 REVERT JUMPDEST PUSH0 PUSH2 0x11EC DUP4 PUSH1 0x6 SLOAD PUSH2 0x1240 JUMP JUMPDEST SWAP1 POP DUP4 PUSH3 0x989680 DUP3 DUP7 PUSH2 0x11FF SWAP2 SWAP1 PUSH2 0x1B4D JUMP JUMPDEST PUSH2 0x1209 SWAP2 SWAP1 PUSH2 0x166A JUMP JUMPDEST PUSH2 0x1213 SWAP2 SWAP1 PUSH2 0x1B8E JUMP JUMPDEST SWAP2 POP POP SWAP3 SWAP2 POP POP JUMP JUMPDEST PUSH0 PUSH3 0x15180 PUSH1 0x8 SLOAD PUSH2 0x122E SWAP2 SWAP1 PUSH2 0x1B4D JUMP JUMPDEST PUSH1 0x9 SLOAD PUSH2 0x123B SWAP2 SWAP1 PUSH2 0x1B8E JUMP JUMPDEST SWAP1 POP SWAP1 JUMP JUMPDEST PUSH0 PUSH1 0x7 PUSH1 0x1 SWAP1 SLOAD SWAP1 PUSH2 0x100 EXP SWAP1 DIV PUSH1 0xFF AND PUSH2 0x1290 JUMPI PUSH1 0x40 MLOAD PUSH32 0x8C379A000000000000000000000000000000000000000000000000000000000 DUP2 MSTORE PUSH1 0x4 ADD PUSH2 0x1287 SWAP1 PUSH2 0x15BF JUMP JUMPDEST PUSH1 0x40 MLOAD DUP1 SWAP2 SUB SWAP1 REVERT JUMPDEST PUSH0 DUP3 PUSH3 0x989680 PUSH2 0x12A0 SWAP2 SWAP1 PUSH2 0x1B8E JUMP JUMPDEST SWAP1 POP PUSH0 PUSH3 0x989680 SWAP1 POP PUSH0 DUP6 SWAP1 POP JUMPDEST PUSH0 DUP2 GT ISZERO PUSH2 0x1317 JUMPI PUSH1 0x1 PUSH1 0x2 DUP3 PUSH2 0x12C5 SWAP2 SWAP1 PUSH2 0x1BC1 JUMP JUMPDEST SUB PUSH2 0x12E7 JUMPI PUSH3 0x989680 DUP4 DUP4 PUSH2 0x12DA SWAP2 SWAP1 PUSH2 0x1B4D JUMP JUMPDEST PUSH2 0x12E4 SWAP2 SWAP1 PUSH2 0x166A JUMP JUMPDEST SWAP2 POP JUMPDEST PUSH3 0x989680 DUP4 DUP5 PUSH2 0x12F7 SWAP2 SWAP1 PUSH2 0x1B4D JUMP JUMPDEST PUSH2 0x1301 SWAP2 SWAP1 PUSH2 0x166A JUMP JUMPDEST SWAP3 POP PUSH1 0x2 DUP2 PUSH2 0x1310 SWAP2 SWAP1 PUSH2 0x166A JUMP JUMPDEST SWAP1 POP PUSH2 0x12AE JUMP JUMPDEST DUP2 SWAP4 POP POP POP POP SWAP3 SWAP2 POP POP JUMP JUMPDEST PUSH0 DUP2 SWAP1 POP SWAP2 SWAP1 POP JUMP JUMPDEST PUSH2 0x1335 DUP2 PUSH2 0x1323 JUMP JUMPDEST DUP3 MSTORE POP POP JUMP JUMPDEST PUSH0 PUSH1 0x20 DUP3 ADD SWAP1 POP PUSH2 0x134E PUSH0 DUP4 ADD DUP5 PUSH2 0x132C JUMP JUMPDEST SWAP3 SWAP2 POP POP JUMP JUMPDEST PUSH0 PUSH20 0xFFFFFFFFFFFFFFFFFFFFFFFFFFFFFFFFFFFFFFFF DUP3 AND SWAP1 POP SWAP2 SWAP1 POP JUMP JUMPDEST PUSH0 PUSH2 0x137D DUP3 PUSH2 0x1354 JUMP JUMPDEST SWAP1 POP SWAP2 SWAP1 POP JUMP JUMPDEST PUSH2 0x138D DUP2 PUSH2 0x1373 JUMP JUMPDEST DUP3 MSTORE POP POP JUMP JUMPDEST PUSH0 PUSH1 0x20 DUP3 ADD SWAP1 POP PUSH2 0x13A6 PUSH0 DUP4 ADD DUP5 PUSH2 0x1384 JUMP JUMPDEST SWAP3 SWAP2 POP POP JUMP JUMPDEST PUSH0 DUP2 ISZERO ISZERO SWAP1 POP SWAP2 SWAP1 POP JUMP JUMPDEST PUSH2 0x13C0 DUP2 PUSH2 0x13AC JUMP JUMPDEST DUP3 MSTORE POP POP JUMP JUMPDEST PUSH0 PUSH1 0x20 DUP3 ADD SWAP1 POP PUSH2 0x13D9 PUSH0 DUP4 ADD DUP5 PUSH2 0x13B7 JUMP JUMPDEST SWAP3 SWAP2 POP POP JUMP JUMPDEST PUSH0 DUP1 REVERT JUMPDEST PUSH2 0x13EC DUP2 PUSH2 0x1373 JUMP JUMPDEST DUP2 EQ PUSH2 0x13F6 JUMPI PUSH0 DUP1 REVERT JUMPDEST POP JUMP JUMPDEST PUSH0 DUP2 CALLDATALOAD SWAP1 POP PUSH2 0x1407 DUP2 PUSH2 0x13E3 JUMP JUMPDEST SWAP3 SWAP2 POP POP JUMP JUMPDEST PUSH2 0x1416 DUP2 PUSH2 0x1323 JUMP JUMPDEST DUP2 EQ PUSH2 0x1420 JUMPI PUSH0 DUP1 REVERT JUMPDEST POP JUMP JUMPDEST PUSH0 DUP2 CALLDATALOAD SWAP1 POP PUSH2 0x1431 DUP2 PUSH2 0x140D JUMP JUMPDEST SWAP3 SWAP2 POP POP JUMP JUMPDEST PUSH0 DUP1 PUSH1 0x40 DUP4 DUP6 SUB SLT ISZERO PUSH2 0x144D JUMPI PUSH2 0x144C PUSH2 0x13DF JUMP JUMPDEST JUMPDEST PUSH0 PUSH2 0x145A DUP6 DUP3 DUP7 ADD PUSH2 0x13F9 JUMP JUMPDEST SWAP3 POP POP PUSH1 0x20 PUSH2 0x146B DUP6 DUP3 DUP7 ADD PUSH2 0x1423 JUMP JUMPDEST SWAP2 POP POP SWAP3 POP SWAP3 SWAP1 POP JUMP JUMPDEST PUSH0 PUSH1 0x20 DUP3 DUP5 SUB SLT ISZERO PUSH2 0x148A JUMPI PUSH2 0x1489 PUSH2 0x13DF JUMP JUMPDEST JUMPDEST PUSH0 PUSH2 0x1497 DUP5 DUP3 DUP6 ADD PUSH2 0x1423 JUMP JUMPDEST SWAP2 POP POP SWAP3 SWAP2 POP POP JUMP JUMPDEST PUSH0 PUSH1 0x20 DUP3 DUP5 SUB SLT ISZERO PUSH2 0x14B5 JUMPI PUSH2 0x14B4 PUSH2 0x13DF JUMP JUMPDEST JUMPDEST PUSH0 PUSH2 0x14C2 DUP5 DUP3 DUP6 ADD PUSH2 0x13F9 JUMP JUMPDEST SWAP2 POP POP SWAP3 SWAP2 POP POP JUMP JUMPDEST PUSH0 DUP2 SWAP1 POP SWAP2 SWAP1 POP JUMP JUMPDEST PUSH0 PUSH2 0x14EE PUSH2 0x14E9 PUSH2 0x14E4 DUP5 PUSH2 0x1354 JUMP JUMPDEST PUSH2 0x14CB JUMP JUMPDEST PUSH2 0x1354 JUMP JUMPDEST SWAP1 POP SWAP2 SWAP1 POP JUMP JUMPDEST PUSH0 PUSH2 0x14FF DUP3 PUSH2 0x14D4 JUMP JUMPDEST SWAP1 POP SWAP2 SWAP1 POP JUMP JUMPDEST PUSH0 PUSH2 0x1510 DUP3 PUSH2 0x14F5 JUMP JUMPDEST SWAP1 POP SWAP2 SWAP1 POP JUMP JUMPDEST PUSH2 0x1520 DUP2 PUSH2 0x1506 JUMP JUMPDEST DUP3 MSTORE POP POP JUMP JUMPDEST PUSH0 PUSH1 0x20 DUP3 ADD SWAP1 POP PUSH2 0x1539 PUSH0 DUP4 ADD DUP5 PUSH2 0x1517 JUMP JUMPDEST SWAP3 SWAP2 POP POP JUMP JUMPDEST PUSH0 DUP3 DUP3 MSTORE PUSH1 0x20 DUP3 ADD SWAP1 POP SWAP3 SWAP2 POP POP JUMP JUMPDEST PUSH32 0x43616E206F6E6C79206265206578656375746564207768656E2074686520636F PUSH0 DUP3 ADD MSTORE PUSH32 0x6E74726163742069732061637469766174656400000000000000000000000000 PUSH1 0x20 DUP3 ADD MSTORE POP JUMP JUMPDEST PUSH0 PUSH2 0x15A9 PUSH1 0x33 DUP4 PUSH2 0x153F JUMP JUMPDEST SWAP2 POP PUSH2 0x15B4 DUP3 PUSH2 0x154F JUMP JUMPDEST PUSH1 0x40 DUP3 ADD SWAP1 POP SWAP2 SWAP1 POP JUMP JUMPDEST PUSH0 PUSH1 0x20 DUP3 ADD SWAP1 POP DUP2 DUP2 SUB PUSH0 DUP4 ADD MSTORE PUSH2 0x15D6 DUP2 PUSH2 0x159D JUMP JUMPDEST SWAP1 POP SWAP2 SWAP1 POP JUMP JUMPDEST PUSH32 0x4E487B7100000000000000000000000000000000000000000000000000000000 PUSH0 MSTORE PUSH1 0x11 PUSH1 0x4 MSTORE PUSH1 0x24 PUSH0 REVERT JUMPDEST PUSH0 PUSH2 0x1614 DUP3 PUSH2 0x1323 JUMP JUMPDEST SWAP2 POP PUSH2 0x161F DUP4 PUSH2 0x1323 JUMP JUMPDEST SWAP3 POP DUP3 DUP3 SUB SWAP1 POP DUP2 DUP2 GT ISZERO PUSH2 0x1637 JUMPI PUSH2 0x1636 PUSH2 0x15DD JUMP JUMPDEST JUMPDEST SWAP3 SWAP2 POP POP JUMP JUMPDEST PUSH32 0x4E487B7100000000000000000000000000000000000000000000000000000000 PUSH0 MSTORE PUSH1 0x12 PUSH1 0x4 MSTORE PUSH1 0x24 PUSH0 REVERT JUMPDEST PUSH0 PUSH2 0x1674 DUP3 PUSH2 0x1323 JUMP JUMPDEST SWAP2 POP PUSH2 0x167F DUP4 PUSH2 0x1323 JUMP JUMPDEST SWAP3 POP DUP3 PUSH2 0x168F JUMPI PUSH2 0x168E PUSH2 0x163D JUMP JUMPDEST JUMPDEST DUP3 DUP3 DIV SWAP1 POP SWAP3 SWAP2 POP POP JUMP JUMPDEST PUSH32 0x43616E206F6E6C79206265206578656375746564207768656E2074686520636F PUSH0 DUP3 ADD MSTORE PUSH32 0x6E7472616374206973206E6F7420616374697661746564000000000000000000 PUSH1 0x20 DUP3 ADD MSTORE POP JUMP JUMPDEST PUSH0 PUSH2 0x16F4 PUSH1 0x37 DUP4 PUSH2 0x153F JUMP JUMPDEST SWAP2 POP PUSH2 0x16FF DUP3 PUSH2 0x169A JUMP JUMPDEST PUSH1 0x40 DUP3 ADD SWAP1 POP SWAP2 SWAP1 POP JUMP JUMPDEST PUSH0 PUSH1 0x20 DUP3 ADD SWAP1 POP DUP2 DUP2 SUB PUSH0 DUP4 ADD MSTORE PUSH2 0x1721 DUP2 PUSH2 0x16E8 JUMP JUMPDEST SWAP1 POP SWAP2 SWAP1 POP JUMP JUMPDEST PUSH32 0x496E636F7272656374205742544320636F6C6C61746572616C20616D6F756E74 PUSH0 DUP3 ADD MSTORE POP JUMP JUMPDEST PUSH0 PUSH2 0x175C PUSH1 0x20 DUP4 PUSH2 0x153F JUMP JUMPDEST SWAP2 POP PUSH2 0x1767 DUP3 PUSH2 0x1728 JUMP JUMPDEST PUSH1 0x20 DUP3 ADD SWAP1 POP SWAP2 SWAP1 POP JUMP JUMPDEST PUSH0 PUSH1 0x20 DUP3 ADD SWAP1 POP DUP2 DUP2 SUB PUSH0 DUP4 ADD MSTORE PUSH2 0x1789 DUP2 PUSH2 0x1750 JUMP JUMPDEST SWAP1 POP SWAP2 SWAP1 POP JUMP JUMPDEST PUSH0 PUSH1 0x60 DUP3 ADD SWAP1 POP PUSH2 0x17A3 PUSH0 DUP4 ADD DUP7 PUSH2 0x1384 JUMP JUMPDEST PUSH2 0x17B0 PUSH1 0x20 DUP4 ADD DUP6 PUSH2 0x1384 JUMP JUMPDEST PUSH2 0x17BD PUSH1 0x40 DUP4 ADD DUP5 PUSH2 0x132C JUMP JUMPDEST SWAP5 SWAP4 POP POP POP POP JUMP JUMPDEST PUSH2 0x17CE DUP2 PUSH2 0x13AC JUMP JUMPDEST DUP2 EQ PUSH2 0x17D8 JUMPI PUSH0 DUP1 REVERT JUMPDEST POP JUMP JUMPDEST PUSH0 DUP2 MLOAD SWAP1 POP PUSH2 0x17E9 DUP2 PUSH2 0x17C5 JUMP JUMPDEST SWAP3 SWAP2 POP POP JUMP JUMPDEST PUSH0 PUSH1 0x20 DUP3 DUP5 SUB SLT ISZERO PUSH2 0x1804 JUMPI PUSH2 0x1803 PUSH2 0x13DF JUMP JUMPDEST JUMPDEST PUSH0 PUSH2 0x1811 DUP5 DUP3 DUP6 ADD PUSH2 0x17DB JUMP JUMPDEST SWAP2 POP POP SWAP3 SWAP2 POP POP JUMP JUMPDEST PUSH32 0x57425443207472616E73666572206661696C6564000000000000000000000000 PUSH0 DUP3 ADD MSTORE POP JUMP JUMPDEST PUSH0 PUSH2 0x184E PUSH1 0x14 DUP4 PUSH2 0x153F JUMP JUMPDEST SWAP2 POP PUSH2 0x1859 DUP3 PUSH2 0x181A JUMP JUMPDEST PUSH1 0x20 DUP3 ADD SWAP1 POP SWAP2 SWAP1 POP JUMP JUMPDEST PUSH0 PUSH1 0x20 DUP3 ADD SWAP1 POP DUP2 DUP2 SUB PUSH0 DUP4 ADD MSTORE PUSH2 0x187B DUP2 PUSH2 0x1842 JUMP JUMPDEST SWAP1 POP SWAP2 SWAP1 POP JUMP JUMPDEST PUSH0 PUSH1 0x40 DUP3 ADD SWAP1 POP PUSH2 0x1895 PUSH0 DUP4 ADD DUP6 PUSH2 0x132C JUMP JUMPDEST PUSH2 0x18A2 PUSH1 0x20 DUP4 ADD DUP5 PUSH2 0x13B7 JUMP JUMPDEST SWAP4 SWAP3 POP POP POP JUMP JUMPDEST PUSH32 0x496E636F72726563742045544820636F6C6C61746572616C20616D6F756E7400 PUSH0 DUP3 ADD MSTORE POP JUMP JUMPDEST PUSH0 PUSH2 0x18DD PUSH1 0x1F DUP4 PUSH2 0x153F JUMP JUMPDEST SWAP2 POP PUSH2 0x18E8 DUP3 PUSH2 0x18A9 JUMP JUMPDEST PUSH1 0x20 DUP3 ADD SWAP1 POP SWAP2 SWAP1 POP JUMP JUMPDEST PUSH0 PUSH1 0x20 DUP3 ADD SWAP1 POP DUP2 DUP2 SUB PUSH0 DUP4 ADD MSTORE PUSH2 0x190A DUP2 PUSH2 0x18D1 JUMP JUMPDEST SWAP1 POP SWAP2 SWAP1 POP JUMP JUMPDEST PUSH0 DUP2 SWAP1 POP SWAP3 SWAP2 POP POP JUMP JUMPDEST POP JUMP JUMPDEST PUSH0 PUSH2 0x1929 PUSH0 DUP4 PUSH2 0x1911 JUMP JUMPDEST SWAP2 POP PUSH2 0x1934 DUP3 PUSH2 0x191B JUMP JUMPDEST PUSH0 DUP3 ADD SWAP1 POP SWAP2 SWAP1 POP JUMP JUMPDEST PUSH0 PUSH2 0x1948 DUP3 PUSH2 0x191E JUMP JUMPDEST SWAP2 POP DUP2 SWAP1 POP SWAP2 SWAP1 POP JUMP JUMPDEST PUSH32 0x5472616E73666572206661696C65640000000000000000000000000000000000 PUSH0 DUP3 ADD MSTORE POP JUMP JUMPDEST PUSH0 PUSH2 0x1986 PUSH1 0xF DUP4 PUSH2 0x153F JUMP JUMPDEST SWAP2 POP PUSH2 0x1991 DUP3 PUSH2 0x1952 JUMP JUMPDEST PUSH1 0x20 DUP3 ADD SWAP1 POP SWAP2 SWAP1 POP JUMP JUMPDEST PUSH0 PUSH1 0x20 DUP3 ADD SWAP1 POP DUP2 DUP2 SUB PUSH0 DUP4 ADD MSTORE PUSH2 0x19B3 DUP2 PUSH2 0x197A JUMP JUMPDEST SWAP1 POP SWAP2 SWAP1 POP JUMP JUMPDEST PUSH32 0x496E636F7272656374204554482072657061796D656E7420616D6F756E740000 PUSH0 DUP3 ADD MSTORE POP JUMP JUMPDEST PUSH0 PUSH2 0x19EE PUSH1 0x1E DUP4 PUSH2 0x153F JUMP JUMPDEST SWAP2 POP PUSH2 0x19F9 DUP3 PUSH2 0x19BA JUMP JUMPDEST PUSH1 0x20 DUP3 ADD SWAP1 POP SWAP2 SWAP1 POP JUMP JUMPDEST PUSH0 PUSH1 0x20 DUP3 ADD SWAP1 POP DUP2 DUP2 SUB PUSH0 DUP4 ADD MSTORE PUSH2 0x1A1B DUP2 PUSH2 0x19E2 JUMP JUMPDEST SWAP1 POP SWAP2 SWAP1 POP JUMP JUMPDEST PUSH32 0x43616E206F6E6C792062652065786563757465642062792074686520636F6E74 PUSH0 DUP3 ADD MSTORE PUSH32 0x726163742063726561746F720000000000000000000000000000000000000000 PUSH1 0x20 DUP3 ADD MSTORE POP JUMP JUMPDEST PUSH0 PUSH2 0x1A7C PUSH1 0x2C DUP4 PUSH2 0x153F JUMP JUMPDEST SWAP2 POP PUSH2 0x1A87 DUP3 PUSH2 0x1A22 JUMP JUMPDEST PUSH1 0x40 DUP3 ADD SWAP1 POP SWAP2 SWAP1 POP JUMP JUMPDEST PUSH0 PUSH1 0x20 DUP3 ADD SWAP1 POP DUP2 DUP2 SUB PUSH0 DUP4 ADD MSTORE PUSH2 0x1AA9 DUP2 PUSH2 0x1A70 JUMP JUMPDEST SWAP1 POP SWAP2 SWAP1 POP JUMP JUMPDEST PUSH0 PUSH1 0x60 DUP3 ADD SWAP1 POP PUSH2 0x1AC3 PUSH0 DUP4 ADD DUP7 PUSH2 0x1384 JUMP JUMPDEST PUSH2 0x1AD0 PUSH1 0x20 DUP4 ADD DUP6 PUSH2 0x132C JUMP JUMPDEST PUSH2 0x1ADD PUSH1 0x40 DUP4 ADD DUP5 PUSH2 0x132C JUMP JUMPDEST SWAP5 SWAP4 POP POP POP POP JUMP JUMPDEST PUSH32 0x496E636F727265637420574254432072657061796D656E7420616D6F756E7400 PUSH0 DUP3 ADD MSTORE POP JUMP JUMPDEST PUSH0 PUSH2 0x1B19 PUSH1 0x1F DUP4 PUSH2 0x153F JUMP JUMPDEST SWAP2 POP PUSH2 0x1B24 DUP3 PUSH2 0x1AE5 JUMP JUMPDEST PUSH1 0x20 DUP3 ADD SWAP1 POP SWAP2 SWAP1 POP JUMP JUMPDEST PUSH0 PUSH1 0x20 DUP3 ADD SWAP1 POP DUP2 DUP2 SUB PUSH0 DUP4 ADD MSTORE PUSH2 0x1B46 DUP2 PUSH2 0x1B0D JUMP JUMPDEST SWAP1 POP SWAP2 SWAP1 POP JUMP JUMPDEST PUSH0 PUSH2 0x1B57 DUP3 PUSH2 0x1323 JUMP JUMPDEST SWAP2 POP PUSH2 0x1B62 DUP4 PUSH2 0x1323 JUMP JUMPDEST SWAP3 POP DUP3 DUP3 MUL PUSH2 0x1B70 DUP2 PUSH2 0x1323 JUMP JUMPDEST SWAP2 POP DUP3 DUP3 DIV DUP5 EQ DUP4 ISZERO OR PUSH2 0x1B87 JUMPI PUSH2 0x1B86 PUSH2 0x15DD JUMP JUMPDEST JUMPDEST POP SWAP3 SWAP2 POP POP JUMP JUMPDEST PUSH0 PUSH2 0x1B98 DUP3 PUSH2 0x1323 JUMP JUMPDEST SWAP2 POP PUSH2 0x1BA3 DUP4 PUSH2 0x1323 JUMP JUMPDEST SWAP3 POP DUP3 DUP3 ADD SWAP1 POP DUP1 DUP3 GT ISZERO PUSH2 0x1BBB JUMPI PUSH2 0x1BBA PUSH2 0x15DD JUMP JUMPDEST JUMPDEST SWAP3 SWAP2 POP POP JUMP JUMPDEST PUSH0 PUSH2 0x1BCB DUP3 PUSH2 0x1323 JUMP JUMPDEST SWAP2 POP PUSH2 0x1BD6 DUP4 PUSH2 0x1323 JUMP JUMPDEST SWAP3 POP DUP3 PUSH2 0x1BE6 JUMPI PUSH2 0x1BE5 PUSH2 0x163D JUMP JUMPDEST JUMPDEST DUP3 DUP3 MOD SWAP1 POP SWAP3 SWAP2 POP POP JUMP INVALID LOG2 PUSH5 0x6970667358 0x22 SLT KECCAK256 DUP13 JUMP 0x2A CALLDATACOPY 0xBE SWAP8 0xB8 CALL SHL XOR DUP8 RETURNDATACOPY SWAP4 0x2D PUSH30 0x3DA3ED748729FD28511301D304F508F6C264736F6C634300081A00330000 "
				},
				"gasEstimates": {
					"creation": {
						"codeDepositCost": "1441400",
						"executionCost": "infinite",
						"totalCost": "infinite"
					},
					"external": {
						"activateContract()": "infinite",
						"activated()": "2607",
						"borrowAmount()": "2535",
						"borrower()": "2575",
						"btcInEthPrice()": "2469",
						"collateralAmount()": "2558",
						"creator()": "2554",
						"dailyInterestRate()": "2514",
						"deactivateContract()": "32367",
						"depositCollateralBTC(address,uint256)": "infinite",
						"depositCollateralETH(address)": "infinite",
						"getRemainingDays()": "infinite",
						"loanDeadline()": "2536",
						"loanDurationInDays()": "2513",
						"loanTerm()": "2470",
						"repayLoanBTC(address,uint256)": "infinite",
						"repayLoanETH(address)": "infinite",
						"repaymentPendingStatus()": "2534",
						"requestRepayment(uint256)": "infinite",
						"startTime()": "2470",
						"totalRepaymentAmount()": "2537",
						"wBtc()": "infinite",
						"wantBTC()": "2533"
					},
					"internal": {
						"_calculateInterest(uint256,uint256)": "infinite",
						"_calculateTotalRepaymentAmount(uint256,uint256)": "infinite",
						"_getLoanDeadline()": "infinite"
					}
				},
				"methodIdentifiers": {
					"activateContract()": "8fda356d",
					"activated()": "186601ca",
					"borrowAmount()": "b7dd32aa",
					"borrower()": "7df1f1b9",
					"btcInEthPrice()": "9a996efa",
					"collateralAmount()": "92d09ceb",
					"creator()": "02d05d3f",
					"dailyInterestRate()": "7fca631f",
					"deactivateContract()": "bca353be",
					"depositCollateralBTC(address,uint256)": "30e9e551",
					"depositCollateralETH(address)": "73dbd5d4",
					"getRemainingDays()": "000c7019",
					"loanDeadline()": "6baa17d0",
					"loanDurationInDays()": "b7661a54",
					"loanTerm()": "3577d94e",
					"repayLoanBTC(address,uint256)": "a3220df7",
					"repayLoanETH(address)": "75c7c9e0",
					"repaymentPendingStatus()": "0c7c9e68",
					"requestRepayment(uint256)": "58fe22be",
					"startTime()": "78e97925",
					"totalRepaymentAmount()": "2765bdb9",
					"wBtc()": "97fcd1d7",
					"wantBTC()": "4d3a6916"
				}
			},
			"storageLayout": {
				"storage": [
					{
						"astId": 84,
						"contract": "DefiBorrow/BorrowContract.sol:BorrowContract",
						"label": "wBtc",
						"offset": 0,
						"slot": "0",
						"type": "t_contract(IERC20)77"
					},
					{
						"astId": 86,
						"contract": "DefiBorrow/BorrowContract.sol:BorrowContract",
						"label": "creator",
						"offset": 0,
						"slot": "1",
						"type": "t_address"
					},
					{
						"astId": 88,
						"contract": "DefiBorrow/BorrowContract.sol:BorrowContract",
						"label": "borrower",
						"offset": 0,
						"slot": "2",
						"type": "t_address"
					},
					{
						"astId": 90,
						"contract": "DefiBorrow/BorrowContract.sol:BorrowContract",
						"label": "borrowAmount",
						"offset": 0,
						"slot": "3",
						"type": "t_uint256"
					},
					{
						"astId": 92,
						"contract": "DefiBorrow/BorrowContract.sol:BorrowContract",
						"label": "collateralAmount",
						"offset": 0,
						"slot": "4",
						"type": "t_uint256"
					},
					{
						"astId": 94,
						"contract": "DefiBorrow/BorrowContract.sol:BorrowContract",
						"label": "btcInEthPrice",
						"offset": 0,
						"slot": "5",
						"type": "t_uint256"
					},
					{
						"astId": 96,
						"contract": "DefiBorrow/BorrowContract.sol:BorrowContract",
						"label": "dailyInterestRate",
						"offset": 0,
						"slot": "6",
						"type": "t_uint256"
					},
					{
						"astId": 98,
						"contract": "DefiBorrow/BorrowContract.sol:BorrowContract",
						"label": "wantBTC",
						"offset": 0,
						"slot": "7",
						"type": "t_bool"
					},
					{
						"astId": 100,
						"contract": "DefiBorrow/BorrowContract.sol:BorrowContract",
						"label": "activated",
						"offset": 1,
						"slot": "7",
						"type": "t_bool"
					},
					{
						"astId": 102,
						"contract": "DefiBorrow/BorrowContract.sol:BorrowContract",
						"label": "loanTerm",
						"offset": 0,
						"slot": "8",
						"type": "t_uint256"
					},
					{
						"astId": 104,
						"contract": "DefiBorrow/BorrowContract.sol:BorrowContract",
						"label": "startTime",
						"offset": 0,
						"slot": "9",
						"type": "t_uint256"
					},
					{
						"astId": 106,
						"contract": "DefiBorrow/BorrowContract.sol:BorrowContract",
						"label": "loanDurationInDays",
						"offset": 0,
						"slot": "10",
						"type": "t_uint256"
					},
					{
						"astId": 108,
						"contract": "DefiBorrow/BorrowContract.sol:BorrowContract",
						"label": "totalRepaymentAmount",
						"offset": 0,
						"slot": "11",
						"type": "t_uint256"
					},
					{
						"astId": 110,
						"contract": "DefiBorrow/BorrowContract.sol:BorrowContract",
						"label": "repaymentPendingStatus",
						"offset": 0,
						"slot": "12",
						"type": "t_bool"
					},
					{
						"astId": 112,
						"contract": "DefiBorrow/BorrowContract.sol:BorrowContract",
						"label": "loanDeadline",
						"offset": 0,
						"slot": "13",
						"type": "t_uint256"
					}
				],
				"types": {
					"t_address": {
						"encoding": "inplace",
						"label": "address",
						"numberOfBytes": "20"
					},
					"t_bool": {
						"encoding": "inplace",
						"label": "bool",
						"numberOfBytes": "1"
					},
					"t_contract(IERC20)77": {
						"encoding": "inplace",
						"label": "contract IERC20",
						"numberOfBytes": "20"
					},
					"t_uint256": {
						"encoding": "inplace",
						"label": "uint256",
						"numberOfBytes": "32"
					}
				}
			},
			"userdoc": {
				"events": {
					"CollateralDeposited(address,uint256,bool)": {
						"notice": "Events *"
					}
				},
				"kind": "user",
				"methods": {},
				"version": 1
			}
		}
	}
}